:020000040800F2
:1000000000050020210500082D1400083114000807
:10001000851400083114000859140008230500084D
:10002000230500082305000823050008D936000829
:100030002305000823050008230500082305000800
:1000400023050008230500082305000823050008F0
:100050002305000823050008C53B0008F13B000804
:100060001D3C0008493C0008753C000823050008B9
:1000700023050008230500082305000823050008C0
:10008000230500082305000823050008B9250008FA
:100090002926000889260008E9260008A13C000856
:1000A0002305000823050008230500082305000890
:1000B000D53900082305000823050008230500089A
:1000C0002305000823050008230500082305000870
:1000D00023050008C12A0008D52A000823050008C6
:1000E000093D000823050008230500082305000832
:1000F0002305000823050008230500082305000840
:10010000230500082305000823050008230500082F
:10011000230500082305000823050008230500081F
:10012000230500082305000823050008230500080F
:1001300023050008230500082305000823050008FF
:1001400023050008230500082305000823050008EF
:1001500023050008230500082305000823050008DF
:1001600023050008230500082305000823050008CF
:1001700023050008230500082305000823050008BF
:1001800023050008230500082305000823050008AF
:10019000230500082305000823050008230500089F
:1001A000230500082305000823050008230500088F
:1001B000230500082305000823050008230500087F
:1001C000230500082305000823050008230500086F
:1001D000230500082305000823050008230500085F
:1001E000D0400B1CD1409C46203AD3401843524289
:1001F00063469340184370479140031C90409C46CF
:10020000203A9340194352426346D3401943704702
:1002100053B94AB9002908BF00281CBF4FF0FF316D
:100220004FF0FF3000F07AB9ADF1080C6DE904CE63
:1002300000F006F8DDF804E0DDE9022304B07047C1
:100240002DE9F0478C460D460446089E002B51D1FF
:100250008A4217466DD9B2FA82FEBEF1000F0BD06A
:10026000CEF1200C01FA0EF520FA0CFC02FA0EF782
:100270004CEA050C00FA0EF44FEA174A250CBCFBB9
:10028000FAF81FFA87F90AFB18CC45EA0C4508FB77
:1002900009F3AB420AD9ED1908F1FF3280F023814E
:1002A000AB4240F22081A8F102083D44ED1AA4B20D
:1002B000B5FBFAF00AFB105544EA054400FB09F9C6
:1002C000A14509D9E41900F1FF3380F00A81A14565
:1002D00040F2078102383C44A4EB090440EA08409C
:1002E0000021002E61D024FA0EF4002334607360E4
:1002F000BDE8F0878B4207D9002E54D0002186E854
:1003000021000846BDE8F087B3FA83F1002940F0E8
:100310008E80AB4202D3824200F2FA80841A65EBEF
:1003200003050120AC46002E3FD086E81010BDE842
:10033000F08712B90127B7FBF2F7B7FA87FEBEF1D3
:10034000000F34D1EB1B3A0C1FFA87FC0121B3FBE1
:10035000F2F8250C02FB183345EA03450CFB08F3C1
:10036000AB4207D9ED1908F1FF3002D2AB4200F2DF
:10037000D1808046ED1AA3B2B5FBF2F002FB105516
:1003800043EA05440CFB00FCA44507D9E41900F13D
:10039000FF3302D2A44500F2B8801846A4EB0C0447
:1003A00040EA08409DE731463046BDE8F087CEF18F
:1003B000200405FA0EF307FA0EF720FA04F83A0CB7
:1003C00025FA04F448EA0308B4FBF2F14FEA1845B1
:1003D00002FB11441FFA87FC45EA044501FB0CF3BC
:1003E000AB4200FA0EF409D9ED1901F1FF3080F0AB
:1003F0008A80AB4240F2878002393D44EB1A1FFAF3
:1004000088F5B3FBF2F002FB103345EA034500FB2D
:100410000CF3AB4207D9ED1900F1FF386FD2AB42B4
:100420006DD902383D44EB1A40EA01418FE7C1F132
:10043000200722FA07F88B4005FA01F448EA030383
:1004400020FA07FE4FEA134CFD404EEA040EB5FBBE
:10045000FCF94FEA1E440CFB19551FFA83F844EAD5
:10046000054509FB08F4AC4202FA01F200FA01FA70
:1004700008D9ED1809F1FF3043D2AC4241D9A9F1B6
:1004800002091D442D1B1FFA8EFEB5FBFCF00CFB70
:1004900010554EEA054400FB08F8A04507D9E418BA
:1004A00000F1FF3529D2A04527D902381C4440EA83
:1004B0000940A4EB0804A0FB02894C45C6464D4602
:1004C00015D312D056B1BAEB0E0364EB050404FA4F
:1004D00007F7CB401F43CC40376074600021BDE874
:1004E000F0871846F8E69046E0E6C245EAD2B8EB57
:1004F000020E69EB03050138E4E72846D7E74046DA
:1005000091E78146BEE7014678E702383C4445E77B
:10051000084608E7A8F102083D442BE7704700BFF2
:1005200002E000F000F8FEE772B6394880F3088870
:10053000384880F3098838484EF60851CEF2000159
:10054000086040F20000CCF200004EF63471CEF2AA
:1005500000010860BFF34F8FBFF36F8F40F20000C0
:10056000C0F2F0004EF68851CEF200010860BFF3F1
:100570004F8FBFF36F8F4FF00000E1EE100A4EF681
:100580003C71CEF200010860062080F31488BFF3AE
:100590006F8F03F0DFF803F0BDF94FF055301F49BE
:1005A0001B4A91423CBF41F8040BFAE71C49194A27
:1005B00091423CBF41F8040BFAE71A491A4A1B4B17
:1005C0009A423EBF51F8040B42F8040BF8E70020B2
:1005D0001749184A91423CBF41F8040BFAE703F06F
:1005E000BDF803F0EBF9144C144DAC4203DA54F8A7
:1005F000041B8847F9E700F03FF8114C114DAC425D
:1006000003DA54F8041B8847F9E703F0A5B80000A3
:100610000005002000250020000000080001002047
:100620000005002088490008002500207C250020C6
:1006300080250020DC420020E0010008E0010008E5
:10064000E0010008E00100082DE9F04F2DED108ACF
:10065000C1F80CD0C3689D46BDEC108ABDE8F08F90
:10066000002383F311882846A047002002F0AEFD46
:1006700002F054FD00DFFEE7304B6FF0160270B55C
:100680001A70032200245A7007229C70DC701C71BF
:100690005C719C71DC711C725C729A72DC7202F08B
:1006A000F1FF064603F012F8054678B9244B9E4246
:1006B0002ED001339E422DD0224B26F0FF029A42CB
:1006C0002BD1F0B200F03EFA42F2107400F06AFC56
:1006D00000F03EFA064618B324BB2E46002002F076
:1006E000DBFF194B1B691B071FD40EB100F02EF85E
:1006F00000F07AFC00F020FE00F0D8FE0546B4B110
:1007000000F0D4FE401BA04211D900F01FF8F3E71F
:100710000446DBE704460125D8E74FF47A74D5E7B1
:100720000446DBE74FF47A74D8E70024E0E700F0F2
:10073000B1FC4FF47A7002F04FFDE0E78025002015
:10074000010007B0000008B00004024010B51C4BC7
:100750001C4953F8042F013200D110BD8B42F8D14F
:10076000194C1A4B22689A4228D9194B9B6803F1FD
:10077000006303F580339A4220D2002000F0F6FD9A
:10078000144B0220187000F025FE134B1A6C002247
:100790001A64196E1A66196E596C5A64596E5A6643
:1007A0005B6E72B60D4A0E4B13601B6822682021E7
:1007B00081F311889D4683F30888104710BD00BF60
:1007C000FCFF00081C00010804000108FFFF0008EE
:1007D000802500208C2500200038024008ED00E034
:1007E0000000010809490B6849F269009AB21B0C24
:1007F00000FB0233064A0B60136844F2506198B262
:100800001B0C01FB0030106080B2704714250020E3
:100810001025002010B500211022044600F0F6FD3E
:10082000034B03CB206061601868A06010BD00BF5F
:10083000107AFF1FF0B51F4CBBB000F037FEA36865
:10084000C31AF92B30D906AD2346A0602822002117
:10085000284601F0B7FB04F10E0000F0CFFD0023A5
:10086000C6B2591D5F1CDBB2B3424FEAC10107DAC1
:100870000E3323440822284601F0A4FB3B46F0E750
:10088000012303930823207B02930B4B0193C1F3B5
:10089000CF013023059100930146049503A3D3E9CA
:1008A0000023064801F05EF93BB0F0BD78F6339FB7
:1008B00093CACD8DC8350020D5350020A435002041
:1008C00070B50D4614461E4601F0F2F850B9022EDE
:1008D0000ED1012C0CD112A3D3E90023C5E90023CA
:1008E000012070BD052C14D003D8012C09D00020A4
:1008F00070BD282C09D0302CF9D10BA3D3E90023EB
:10090000ECE70BA3D3E90023E8E70BA3D3E900232B
:10091000E4E70BA3D3E90023E0E700BFAFF30080D7
:10092000401DA12026812A0B78F6339F93CACD8DD6
:100930009E6AC421818A46EE26417272DF25D7B7AE
:10094000F017304A39059E5638B504460D46034621
:1009500020222846002101F035FB22792346032A74
:1009600028BF032203F8042F28460222202101F089
:1009700029FB62792346072A28BF072203F8052F9F
:1009800028460322222101F01DFBA2792346072AD3
:1009900028BF072203F8062F28460322252101F04D
:1009A00011FB284604F108031022282101F00AFB5C
:1009B000382038BD2DE9F04FFFB01FAE0CAD40F22E
:1009C000791280460F463046002100F01FFD482274
:1009D0000021284600F01AFD00F068FD574B4FF447
:1009E0007A72B0FBF2F0186093E80700012385E803
:1009F00007002B740DF1520000236B74FFF70AFF00
:100A0000032385F82030E92385F8213006AB18460A
:100A10004B4903F02FFA162228643146284685F800
:100A20003C20FFF791FF10AB0446014608223046F8
:100A300001F0C8FA0822A1180DF14103304601F077
:100A4000C1FA0DF14203082204F11001304601F011
:100A5000B9FA11AB202204F11801304601F0B2FAC4
:100A600012AB402204F13801304601F0ABFA14AB6E
:100A7000082204F17801304601F0A4FA0DF1510387
:100A8000082204F18001304601F09CFA04F1880A42
:100A90000DF1520904F5847B4B465146082230463D
:100AA0000AF1080A01F08EFAD34509F10109F3D1E0
:100AB00019AB08225946304601F084FA04F58874CF
:100AC0004FF0000995F834304B4510D84FF000092D
:100AD00095F83C304B4515D92B6C21464B440822E8
:100AE000304601F06FFA083409F10109F0E7AB6B09
:100AF00021464B440822304601F064FA083409F1DB
:100B00000109DFE7E31DC3F3CF03F97E059300235B
:100B100004960393BB7E0293193701230093019738
:100B200004A3D3E90023404601F01CF87FB0BDE8E0
:100B3000F08F00BF9E6AC421818A46EE9025002076
:100B400010400008014B1870704700BF04250020BA
:100B500070B5274B1B7B88B083B9264A1068516853
:100B600002AB03C308230DEB03022349234803F020
:100B700063F9044620B9224800F050FC002035E01B
:100B800000F10802154604AE183428686968334637
:100B900003C30835A5421E46F7D10699B1F5E02FEB
:100BA00003D9184800F03AFCE8E702F1774202F571
:100BB0007F0210398C1A0020104900F07BFC294676
:100BC00006462246002000F075FC04998E4202D1B0
:100BD000059B984206D000903346059A0A4800F0DB
:100BE0001DFCCBE7094800F019FC012008B070BDDE
:100BF000C83500201C3F0008E8FF0600000001087F
:100C0000243F0008303F0008423F00086B3F0008C7
:100C10002DE9F04FAFB006AF80460D4600F048FF1B
:100C20000446002875D12B7E022B21D1EB8A012BA3
:100C30001ED100F03BFC8146FFF7D4FD07EE900A81
:100C40009FEDA97AA94EF8EE676A09F51670C6EE0F
:100C5000877A9FEDA77A67EE877AFCEEE77A17EE40
:100C6000903A03443360EB7E93B9A24B00221A7092
:100C7000A437BD46BDE8F08F07F10C031C44009477
:100C8000002308224FEAC901284600F0FFFF4C4626
:100C9000AB8A013BA3425FFA84F90BD904F1010945
:100CA000B9F1110FE8D1944B944A4FF498719448DC
:100CB00003F094F807F11C00FFF7ACFD224607F1A2
:100CC0001C0107F10C0003F0A7F803460028CCD163
:100CD000B9F1100F07D0874B83F800903368A3F564
:100CE00016733360C4E707F1A002014602F8950DC0
:100CF00028460092072200F0C9FFF97A7F2904DD17
:100D0000804B7E4A40F24711D1E7404600F0B4FEE6
:100D1000AEE7EB8A052B00F02F8106D8012BA7D177
:100D200029464046FFF746FEA2E7282B3DD0302B50
:100D30009ED16B7E744C0133627BDBB29342EA46F8
:100D400040F01881EA7E237B9A4240F0138107F13C
:100D5000A003002623F8846D10220093314601235E
:100D6000284600F093FFB5F81480A8F102081FFA96
:100D700088F808F1030323F003030A3323F0070381
:100D8000ADEB030D0DF1180933469BB2B11C98452C
:100D90004FEAC10106F101066DDD4B4400930822C4
:100DA0000023284600F072FFEEE7AB8A013B9BB2BE
:100DB000C92B3FF65DAF544E347B4CBB06F10C03A0
:100DC0000093082223462146284600F05FFFAB8AA5
:100DD00004F10109013BE4B29C424FEAC90109DA7E
:100DE0000E343444009400230822284600F04EFFBD
:100DF0004C46ECE700230022C6E900230023B36041
:100E000086F8D730C6F8D830337B0BB9EB7E337316
:100E1000002407F11C0607F10C0308222146304686
:100E2000FC603C617C6101F0CDF83B7C04F1010980
:100E3000A3424FEAC90107D97B69082223443046FF
:100E400001F0C0F84C46F0E7C1F3CF010023E87E83
:100E5000059104960393AB7E02931935282301462E
:100E6000009301951EA3D3E90023404600F07AFECB
:100E7000FFF7E0FCFCE694F8D70000F089FAD4F81C
:100E8000D83006461BB994F8D70000F091FAD4F890
:100E9000D83043449E4204D294F8D700013000F089
:100EA00087FA1A4B4FEA980B0025AAB25A4510460A
:100EB0002EDA5AB994F8D72042B9D4E900120A437D
:100EC00004D1D9F800201A600135EEE7226859F8FC
:100ED00020107B6002EB800000F04AFA7B68F3E7A9
:100EE00026417272DF25D7B700FF7F47A03500206B
:100EF0000000C8439D3500207C3F000828400008C2
:100F0000D53F0008F73F0008C83500200025002025
:100F1000D4E90023D4F8D85012EB080043F10001C3
:100F2000C4E90001454494F8D700C4F8D85000F053
:100F30002FFA854209D394F8D730013384F8D7309B
:100F4000D4F8D8309E1BC4F8D860B8F1FF0F0ADC83
:100F5000104B00201968207300F00AFAFFF7F8FD23
:100F600008B1FFF7F3FB23680B4A9B0A0133138197
:100F70000023A360D5467BE6BFF34F8F0749084B9C
:100F8000CA6802F4E0621343CB60BFF34F8F00BF27
:100F9000FDE700BF002500209025002000ED00E0C7
:100FA0000400FA0508B54FF000530B4A1968914246
:100FB0000AD10A4A597D117009481B7D0373C92261
:100FC00008490E3000F010FAE02200214FF00050E6
:100FD000BDE8084000F01ABA9AAD44C504250020C7
:100FE000C8350020160000201FB501231F498DF8C9
:100FF0000B3000240622ADF80C401D488DF80C3053
:101000004FF005134B60ADF808208DF80A2001F071
:10101000BFFD184B00931849184B01944FF48052B0
:10102000174800F0F3FC174B197811B1144800F081
:1010300023FD00F03BFA0446FFF7D4FB07EE900ACD
:101040009FED117AF8EE676A04F51670C6EE877A9E
:101050009FED0E7A67EE877AFCEEE77A17EE903A0C
:10106000034418460A4B186004B010BD0825002040
:10107000B8360020C10800089C250020110C00088B
:10108000A43500200425002000FF7F470000C8434E
:10109000A03500202DE9F04F9DA7D7E900670FF29A
:1010A0007829D9E90089934C93B0DFF874B2DFF85E
:1010B00074A2204600F0A2FD0CAD079098B3102258
:1010C0000021284600F0A2F9079B197B4FF000028F
:1010D00061F3030219468DF8302051F8040F496876
:1010E0000EAA03C21B680D9A63F31C029DF83030F0
:1010F0000D9243F020038DF8303000232A46194624
:10110000584601F055FD079030B9204600F07AFDB1
:10111000079B8AF80030CCE79AF80030072B40DCB8
:1011200001338AF8003018220021284600F06EF9B9
:10113000DFF8ECB1DFF8F0A1002319462A46584643
:1011400001F05EFD014680BB102208A800F05EF9A8
:10115000DAF8143083F48053CAF8143000F0A8F998
:101160000B4612A9024611E903000DF1240E8EE888
:1011700003009DF83410C1F3030089064CBF0E999B
:10118000BDF838108DF82C0046BFC1F31C0141F0AA
:101190000041C1F30A010891204608A900F078FF38
:1011A000CAE7204600F02EFDBDE7204600F080FC97
:1011B0008246002852D100F079F94F4B1A689042CC
:1011C0004CD3079300F072F98346FFF70BFB07EE51
:1011D000900A9FED4A7A8DF820A0F8EE676A0BF529
:1011E0001670C6EE877ADFF844B19BF800109FEDC9
:1011F000447A67EE877AFCEEE77A17EE903A03447A
:101200001846079B186011B901238DF82030284635
:101210000791FFF7FFFA0799C1F1100A5FFA8AFAFE
:10122000BAF1060F28BF4FF0060A524629440DF1C5
:10123000210000F0D9F80AF10103049308AB0393ED
:10124000182302932F4B01930123009332463B4610
:10125000204600F02FFC00238BF8003000F026F928
:10126000294ADFF8CCA01368C31AB3F57A7F31D3CB
:10127000106000F01DF902460B46204600F0C8FC45
:10128000204600F015FC28B39AF80C30DFF8A4B023
:10129000002B18BF03238BF8053000F007F94FF43B
:1012A0007A732946B0FBF3F0CBF800005846FFF7FD
:1012B0004BFB182307300293144B0193C0F3CF006C
:1012C00040F2551304900093039542464B46204646
:1012D00000F0F0FB9AF80C300BB1FFF7ABFA9AF87C
:1012E0000C30002B7FF4E1AE13B0BDE8F08F00BFEF
:1012F000AFF30080A4350020A035002000FF7F4719
:101300000000C8439C350020A8360020AC360020E1
:10131000401DA12026812A0BF1C6A7C1D068080F65
:10132000B8360020AD360020000402409D35002074
:10133000C83500209025002070B502F077F8094CE0
:10134000094E2070002530682378834208D902F0C6
:1013500067F8336805440133B5F5803F3360F2D355
:1013600070BD00BFB4360020B036002002F00EB9C8
:1013700007B502AB00F1006043F8041D04221946D2
:1013800000F5803002F098F803B05DF804FB00002F
:10139000054B1A68054B1B789B1A834202D91044EF
:1013A00002F03EB800207047B0360020B43600206E
:1013B00038B5074D04462868204402F039F828B9AA
:1013C00028682044BDE8384002F04AB838BD00BF64
:1013D000B0360020022802BF024B4FF080529A61C3
:1013E000704700BF0004024010B50023934203D0B1
:1013F000CC5CC4540133F9E710BD0000024603463B
:10140000981A13F9011B0029FAD1704702440346C8
:10141000934202D003F8011BFAE770470FB4002093
:1014200004B070470EB4002003B07047FEE7000020
:1014300000B59BB0EFF3098168226846FFF7D4FF3F
:10144000EFF30583034B9A6B9A6A9A6A9A6A9A6ACF
:101450009B6AFEE700ED00E000B59BB0EFF3098169
:1014600068226846FFF7C0FFEFF30583044B9A6BD1
:101470009A6A9A6A9A6A9A6A9A6A9B6AFEE700BFAF
:1014800000ED00E000B59BB0EFF3098168226846EB
:10149000FFF7AAFFEFF30583034B5A6B9A6A9A6A28
:1014A0009A6A9A6A9B6AFEE700ED00E002F0A6B82D
:1014B00002F080B810B5074C0A44914208D011F8E8
:1014C000013B4340DBB254F8233083EA1020F4E7B9
:1014D00010BD00BF6C4000080246006848B10368B8
:1014E0001360D388118901339BB29942D38038BFEE
:1014F0001381704770B588B00D4604462022002144
:101500006846FFF783FF20460495FFF7E5FF054691
:1015100058B16B46044608AE1A4603CAB242206070
:101520006160134604F10804F6D1284608B070BD86
:101530002DE9F04130B9274B274A40F2C531274801
:1015400002F04CFC0B7C23B9254B234A40F2C631F8
:10155000F5E7C66986B9C161BDE8F081002B29DADB
:10156000930CAB4229D1B44201D10C60F3E7C8F827
:1015700000100C60BDE8F0814B6823F06047BD0CA3
:101580004FEAD37EC3F3807C15EA230538BF3D467E
:10159000B04634466368BEEBD37F23F06042DDD1B2
:1015A000974203D1C3F380739C450AD1974205E06B
:1015B0001C46EFE7AA4206D013469D422CBF0023EB
:1015C0000123002BCFD12368A046002BF0D121604E
:1015D000BDE8F081FC460008F0440008B44700086C
:1015E000D547000808B5034A034B044840F25E3172
:1015F00002F0F4FBCC44000874470008B44700082C
:1016000008B503680B60C388016033B9044B054A11
:1016100005484FF4C76102F0E1FB013BC38008BD00
:101620004447000840450008B447000870B50C4620
:1016300000F10C05616831B9E38A61F30903E382C3
:101640000020002170BD0E682846FFF7D9FF6660B4
:10165000F0E7000008B5426832B10B4B0B4A0C486A
:1016600040F22F4102F0BAFBC37DC3F38401013184
:1016700061F38603C375C38A62F30903C3821B0A3D
:1016800062F3C713C37508BD90470008FC44000807
:10169000B44700082DE9F047089E32B91F4B204A95
:1016A000204840F2395102F099FB01F007054FEA5A
:1016B000D6082A4406F0070600EBD1004FF47F4914
:1016C000954201D1BDE8F08705F0070E06F0070A44
:1016D000D645774638BF5746C7F10807511BEC0877
:1016E0008F4228BF0F46045D08EBD60104FA0EF4C2
:1016F00013F801C029FA07FE24FA0AF45FFA8EFEF5
:101700008CEA04044EFA0AFE04EA0E048CEA040C85
:1017100003F801C03D443E44D2E700BF1047000833
:1017200014450008B44700082DE9F04106460F466D
:1017300000254FF6FF7441F221082A46304639460B
:10174000FEF74EFDC0B284EA0024082314F4004FD3
:101750004FEA4404A4B203F1FF3318BF84EA08043B
:1017600013F0FF03F2D10835402DE6D12046BDE845
:10177000F081000010B50A4441F22104914200D1E9
:1017800010BD11F8013B80EA0320082310F4004F3C
:101790004FEA400080B203F1FF3318BF604013F0FE
:1017A000FF03F3D1EAE700002DE9F04F85B08A4648
:1017B0008DE80C00BDF83C40814630B9494B4A4A9F
:1017C00040F26E31494802F009FB11F0604F04D03D
:1017D000474B454A40F26F31F4E7009B002B7ED027
:1017E00024B10E9B002B7AD0072C28D809F10C00CD
:1017F000FFF772FE054628B96FF00205284605B0CE
:10180000BDE8F08F14220021FFF700FE22460E995A
:1018100005F10800FFF7E8FD631C2B74009B1B78A3
:101820002C4403F01F0363F03F0323724AF000438C
:101830006B6029464846FFF77BFE0125DEE7019BEA
:101840001B0A4FF00008029300F10C034FF0800BCD
:101850004646454603930398FFF73EFE0746002899
:10186000CAD014220021FFF7D1FDB6BB9DF8043089
:101870003B729DF808307B7202220E9B711E194448
:10188000B4420AD9B8180132D2B211F801EF80F887
:1018900008E00136072AB6B2F2D1009B197801F0B0
:1018A0001F01B44208BF4FF0400BB81841EA48117D
:1018B0004BEA0103037201324AF000437B603A7441
:1018C00039464846FFF734FE0135B4422DB288F060
:1018D00001084FF0000BBED190E70022CDE76FF07A
:1018E00001058BE7FC460008E0440008B447000807
:1018F000204700082DE9F0471E46CB8A9146C3F3E6
:101900000902062A80460F4619D013460021B0B2BC
:101910008DB25A1992B2052A09D9A84210D8FA8A6A
:10192000034463F30902FA820120BDE8F087A8426C
:10193000F3D93A4419F8014094760131E8E70025DB
:10194000FB8A7C68C3F30900821F1C23B2FBF3FAF5
:1019500003FB1A2A1FFA8AF27CB301212368002BA9
:1019600039D1B31F03441C20B3FBF0F301339BB206
:1019700099420CD2BAF1000F09D14046FFF7ACFDF5
:1019800008B1C0F800A0206008B304460022B6B237
:101990004FF0000AB54230D2691E49441346E018A0
:1019A00001339BB211F801EF80F804E001351C2BE4
:1019B000ADB214D0AE42F2D8ECE74046FFF78CFD52
:1019C000044608B1002303607C60002CDED16FF078
:1019D0000200BDE8F087013189B21C46BEE7AE4285
:1019E000D8D94046FFF778FD08B1C0F800A02060C4
:1019F0000028ECD004460022CCE7FB8AC3F309029E
:101A0000164466F30903FB828EE70000F8B50E4624
:101A100015461F46044628B9144B154A15484F2150
:101A200002F0DCF924220021FFF7F0FC069B636042
:101A3000079B23626A094FF6FF739A424FF000003A
:101A400028BF1A46A7602070A061E06197B204F138
:101A50000C05824205D100232B6027826382A3827A
:101A6000F8BD2E60013035462036F2E7F846000812
:101A70006C440008B447000808B528B9084B094A67
:101A80007321094802F0AAF9037823B94BB2002B5D
:101A900001DD017008BD054B024A7D21F1E700BF61
:101AA000FC46000878440008B44700084046000897
:101AB000007870472DE9F7430D9EBDF828900B9DE7
:101AC0009DF83040BDF8388007461946104616B9D3
:101AD000B8F1000F43D11F2C41D83B78D3B9B8F1EE
:101AE000070F39D839F0030339D1424631464FF652
:101AF000FF70FFF73FFE4FEA092920F0010009F4CB
:101B00004079400449EA0464400C44EA40244FF61A
:101B1000FF730DE043EA0923B8F1070F43EA0464B9
:101B2000F5D9FFF701FE42463146FFF723FE034693
:101B30008DE840012A4621463846FFF735FE0DB9AB
:101B4000FFF750FD2B780133DBB21F2B88BF00233A
:101B50002B7003B0BDE8F0836FF00300F9E76FF07E
:101B60000100F6E72DE9F7430E9F0B9D9DF83480A9
:101B7000BDF83C6081469DF8300007B9C6BB1F2800
:101B800036D899F800E0BEF1000F34D00C0244F0D2
:101B900080049DF8281044EAC83444EA014444EA29
:101BA0000E04072E44EA006415D919461046FFF7C3
:101BB000BBFD32463946FFF7DDFD0346019600972F
:101BC0002A4621464846FFF7EFFDB8F1010F0CD138
:101BD00025B9FFF707FD4FF6FF73EFE72B780133C9
:101BE000DBB21F2B88BF00232B7003B0BDE8F0834E
:101BF0006FF00100F9E76FF00300F6E7C06900B18C
:101C000004307047C1690B68C3610C30FFF7F8BC42
:101C10002DE9F84FD0F818A0DFF86C80054616467D
:101C20001F4654464FF0000900F10C0B0CB9BDE8FB
:101C3000F88FD4E90223B21A67EB0303994508BF72
:101C400090451FD2AB699C42214628460DD1FFF733
:101C5000EDFCAB691B68AB6121465846FFF7D0FC31
:101C6000AC692346A2461C46E0E7FFF7DFFC236889
:101C7000CAF8003021465846FFF7C2FC5446DAF84D
:101C80000030EFE72368EDE780841E002DE9F04F78
:101C90008BB00D4614460793DDF85090824600281D
:101CA00000F06481B9F1000F00F06081531E3F2BFA
:101CB00000F25C81012A03D1079B002B40F0568182
:101CC000BAF81460F6000023B5420893099380F037
:101CD00053812B199E420AD2761B16F0FF0607D1BC
:101CE000AB4BAC4A40F26751AB4802F077F826465E
:101CF000DAF80C3023B9DAF81030002B00F0A580A8
:101D00002F2D31D8C5F1300846454FF000032CBFC8
:101D10005FFA88F8B0460093294608AB4246DAF8E5
:101D20000800FFF7B7FCA6EB08074544FFB2BAF876
:101D3000143003F10053063BDB000293DAF80C3059
:101D400005934FF0300B059B002B51D087B9DAF883
:101D50001000002861D0002F5FD0AB4550D98F4BC9
:101D60008C4A40F2A651BFE737464FF00008DEE745
:101D7000029B23B98A4B874A4FF4B161B4E7029BB7
:101D8000E02B28BFE02306935B44AB4204931DD9AC
:101D90005B1B9F4226BFDBB203930397AB4504D97D
:101DA0007E4B7C4A40F291519EE70598CDF8008029
:101DB00008ABA5EB0B01039A0430FFF76BFC039B08
:101DC0009844FF1A1D445FFA88F8FFB2049B9B45B4
:101DD00004D3744B6F4A40F29B5185E7029B069AED
:101DE000DDF810B09B1A0293059B1B680593AAE7C8
:101DF000029BBB42ABD26C4B664A40F2A15173E7E7
:101E0000CDF800803A46A5EB0B0108ABFFF742FC8A
:101E1000B8443D445FFA88F80027BAF81430B5EBAF
:101E2000C30F04D9614B5B4A40F2B1515CE7B8F192
:101E3000400F04D95E4B574A40F2B25154E767B1A4
:101E40005C4B544A40F2B3514EE70093324608AB24
:101E50002946DAF80800FFF71DFC731E3F2B35B248
:101E600001D8A64204DD544B544A40F235213BE7E9
:101E700060070AD00AAB03EBD401624211F8083CB8
:101E800002F00702134101F8083C082C21D9102C5C
:101E900021D9202C8CBF08230423079A002A6DD057
:101EA000B4EBC30F6CD0082C04F1FF3215D89DF8A9
:101EB000203023FA02F2D10706D54FF0FF3202FAA2
:101EC00004F423438DF820309DF8203089F8003049
:101ED0004EE00123E1E70223DFE7102C11D8BDF823
:101EE000203023FA02F2D20706D54FF0FF3202FA71
:101EF00004F42343ADF82030BDF82030A9F80030B9
:101F000036E0202C0ED8089921FA02F2D30705D525
:101F10004FF0FF3303FA04F40C430894089BC9F80C
:101F2000003025E0402C1CD0DDE9086730463946FA
:101F3000FEF756F9002100F0010050EA01030BD032
:101F4000224601200021FEF757F9404261EB410192
:101F500006430F43CDE90867DDE90823C9E90023FB
:101F600006E0174B154A4FF42071BDE66FF00105EE
:101F700028460BB0BDE8F08F1D46F9E7012CA3D031
:101F8000082CA1D9102CB7D9202CE5D8C6E700BF62
:101F90004C45000824450008B44700086E45000879
:101FA0005B45000893450008BB450008E245000872
:101FB000104600082846000842460008A4440008CD
:101FC0004046000830B585B030B9244B244A40F271
:101FD000B121244801F002FF23B9234B204A40F2EB
:101FE000B221F6E7402A04D9204B1D4A40F2B6211F
:101FF000EFE722B91D4B1A4A4FF42F71E9E700248D
:10200000012A0294039417D11B788DF808305307E6
:102010000AD004AB03EBD203554213F8084C05F089
:102020000705AC4003F8084C00910346002102A8C4
:10203000FFF730FB05B030BD082AE5D9102A03D8D8
:102040001B88ADF80830E2E7202A02D81B6802930B
:10205000DDE7D3E90045CDE90245D8E77C46000835
:10206000B8440008B44700089746000840460008F6
:1020700070B50C4600F10C05E16819B9A160216149
:10208000A18270BD0E682846FFF7BAFAE660F3E752
:102090002DE9F04FD1F8009091B0C9F3C016044675
:1020A0000D46CDE90223002E50D0C9F3C03BC9F341
:1020B0000626B9F1000F80F29F8119F0C04F40F061
:1020C0009B812B7B002B00F09781BBF1020F03D08B
:1020D0002278B24240F0938109F07F02BBF1020FF7
:1020E000059236D119F07F0FC9F30F2A01D10AF0FA
:1020F000030A2B447606059A93F8038046EA0B46BA
:1021000046EA82465FEAD81346EA0A06069300F0DA
:102110009A800022002310A961E90823059B0093FF
:1021200067685B4652462046B847002800F0888022
:10213000A7698FB9314604F10C00FFF7DBF90746B8
:10214000D0B96FF0020011B0BDE8F08F4FF0020B74
:10215000AFE7C9F3074ACCE73B699E420DD03F6821
:10216000002FF9D1314604F10C00FFF7C3F90746FF
:102170000028E6D0A3693B60A761DDE90801FFF70D
:10218000D3FAB882F97D08F01F06C1F38401711AF1
:1021900089B20FFA81FED7E90223BEF1000FB8BF62
:1021A00001F1200EC9F30461B8BF0FFA8EFE07914A
:1021B00052EA030100F02F81DDE90201801A61EB90
:1021C000030102460B469F480021994208BF9042F6
:1021D000C0F02181069B002B3FD0BEF1010F00F320
:1021E0001A8118F0400F38D0DDE90223C7E9022335
:1021F000202200210DEB0200FFF708F9DDE90223A0
:10220000CDE908232B1D0A932B7BADF836A0013BAB
:10221000DBB2ADF834309DF81C308DF83A309DF8C3
:1022200014308DF83B3020468DF838B08DF8396089
:10223000A36808A998473846FFF70CFA002082E700
:102240006FF00B007FE7A76917B96FF00C007AE712
:102250003B699E4296D03F68F6E7FB7DC8F340128B
:10226000B2EBD31F40F0CE80C3F38403B34240F0FF
:10227000CC8006992B7B4FEA981279B3D2073CD4D5
:10228000032B40F2C580DDE90223C7E902232B7B43
:10229000AE1D033BDBB23246394604F10C00FFF7BA
:1022A00029FB002808DA39462046FFF7BFF93846EF
:1022B000FFF7D0F9032046E7AB883B832A7B033A3C
:1022C000D2B2B88A3146FFF755FAFB7DB882DA43BD
:1022D000C2F3C01262F3C713FB75AFE76AB92E1DD4
:1022E000013BDBB23246394604F10C00FFF702FB3A
:1022F0000028D8DB2A7B013AE2E7FA8AC2F3090216
:10230000013B052AD9B250D8281D002399420AD989
:1023100007EB020E013210F801CB8EF81AC0013320
:10232000062ADBB2F2D1DDE902898B4207F11A02FB
:10233000CDE908890A9238BF04337A680B9234BF1A
:102340005B1900230C93FB8AADF836A0C3F3090395
:1023500019449DF81C308DF83A309DF814308DF8F2
:102360003B300023ADF834108DF838B08DF839606B
:102370007B602A7BB88A013A291DFFF7FBF93B8B6A
:10238000B882834203D1A36808A92046984708A9C8
:102390002046FFF76DFE3846FFF75CF9B88A3B8BA5
:1023A000984214BF11200020CDE6786810B34FF09A
:1023B000060E03689BB9A2EB0E021B2A13D8033248
:1023C000024405F1040E1F309942ACD91EF801CB2E
:1023D00002F801CF01339042DBB2F5D1A3E70EF151
:1023E0001C0E1846E5E7184B184A194840F2B3117D
:1023F00001F0F4FC034696E76FF00900A3E66FF0E6
:102400000A00A0E66FF00D009DE66FF00E009AE660
:102410006FF00F0097E6FB7D68F386036FF3C71339
:10242000FB7539462046FFF701F9069B002B7FF428
:10243000D8AEFB7DC3F38402013262F38603FB75E1
:1024400003E700BF80841E00AC46000890440008EB
:10245000B4470008026843681143016003B118479C
:10246000704700002DE9F041504EB04240F08980A5
:102470004F4CDFF840E1256C45F000752564256E72
:1024800045F000752566246E446DD4F8007207EAA5
:102490000E0747F00107C4F80072D4F8005205EAAD
:1024A0000E0545F0010545EA0121C4F80012002A95
:1024B00069D00021C4F81C120F46C4F80412C4F8F5
:1024C0000C12C4F8141204EBC10501311C29C5F823
:1024D0004072C5F84472F6D14FF0000E4FF0010C77
:1024E000964514D1426DD2F80032B04223F0010378
:1024F000C2F8003257D12E4B1A6C22F000721A64C7
:102500001A6E22F000721A661B6EBDE8F0819F7889
:102510001D8817F0010F18BFD4F804820CFA05F1DA
:102520001CBF41EA0808C4F8048217F0020F1EBF5E
:10253000D4F80C8241EA0808C4F80C827F0742BF35
:10254000D4F814720F43C4F8147204EBC5055F6825
:10255000C5F840729F68C5F84472D4F81C522943EC
:10256000C4F81C120C330EF1010EB9E7446D0021C2
:10257000C4F81C12C4F80412C4F80C12C4F81412E3
:10258000AAE7002AF2D1436D0022C3F84022C3F823
:102590004422C3F80422C3F814220122C3F80C22F7
:1025A000C3F81C229EE7BDE8F08100BFB8360020CA
:1025B000003802400000FFFF184B5A6D936810B5B9
:1025C00013F00104936005D013F00C0F14BF4FF407
:1025D00080340124D90506D513F4406F14BF44F4A8
:1025E000003444F00204DA0306D513F4402F14BF7C
:1025F00044F4802444F00404202383F31188002150
:10260000074800F011FE21460648FFF723FF00238C
:1026100083F31188BDE8104001F06EB8B836002091
:10262000C0360020DC36002038B5154C636DDD68FF
:10263000AA0713D05A6922F002025A61202383F3B9
:102640001188002104F1100000F0EEFD012104F1D9
:102650001800FFF7FFFE002383F31188EB060BD56C
:10266000636D1021D960202383F311880548FFF79B
:10267000F1FE002383F31188BDE8384001F03CB837
:10268000B8360020E836002038B5154C636D1D695A
:10269000AA0713D05A6922F010025A61202383F34B
:1026A0001188002104F1100000F0BEFD022104F1A8
:1026B0001800FFF7CFFE002383F31188EB060BD53C
:1026C000636D10211961202383F311880548FFF7FA
:1026D000C1FE002383F31188BDE8384001F00CB837
:1026E000B8360020E836002038B5144C636D5D68BC
:1026F0005D602A0710D52046032200F8482B1A688F
:1027000022F002021A60202383F311880021FFF7D0
:10271000A1FE002383F311886B070BD5636D9969C4
:10272000202383F3118806480904FFF793FE002352
:1027300083F31188BDE8384000F0DEBFB8360020D2
:10274000E836002010B50F4C204600F005FA0E4B7D
:1027500063650B21132000F0E7F90B21142000F032
:10276000E3F90B21152000F0DFF90B21162000F012
:10277000DBF9002320461A460E21BDE81040FFF782
:1027800071BE00BFB836002000640040114B984273
:1027900010B5044609D1104B1A6C42F000721A644D
:1027A0001A6E42F000721A661B6E636D01221A6087
:1027B000636D5A68D20707D5626851681268D9619B
:1027C0001A60064A5A6110BD0121082000F060FC21
:1027D000EEE700BFB8360020003802405B870100FA
:1027E00003291AD8DFE801F0020A0F14436D9B6831
:1027F00013F0E05F14BF012000207047436D98681C
:10280000C0F380607047436D9868C0F3C060704744
:10281000436D9868C0F30070704700207047000057
:1028200010B503291FD8DFE801F0021F2327416DEF
:102830008B68C3F30163183301EB0313107881062F
:102840001ED55468C0F30011490041EAC40141F0AB
:10285000040100F00F00586090689860D268DA6058
:1028600041F00101196010BD436D03F5C073E5E748
:10287000436D03F5C873E1E7436D03F5D073DDE7FE
:102880009488C0F30011490041EA4451E1E7000097
:1028900001290CD003D3022910D000207047436DCA
:1028A000DA68920701D1186903E001207047436D8F
:1028B000D86810F0030018BF01207047436DF2E79D
:1028C00010B539B9436DD96889071BD11B699B07BE
:1028D00004D110BD012915D0022948D1416DD1F88C
:1028E000C031D1F8C401D1F8C8411461D1F8CC414C
:1028F000546120240C610C69A40717D14C6944F081
:10290000100412E0416DD1F8B031D1F8B401D1F822
:10291000B8411461D1F8BC4154612024CC60CC682A
:10292000A40703D14C6944F002044C6111795C089E
:1029300064F304119C0864F34511117189064BBFBF
:1029400091681189DB085B0D4CBF63F31C0163F3D5
:102950000A01137948BF916060F3030313714FEAD2
:1029600010234FEA104058BF11811370508010BDE2
:10297000002304491A465A50C8180833802B426075
:10298000F9D1704710370020026843681143016095
:1029900003B1184770470000024AD36843F0C003F0
:1029A000D360704700100140024AD36843F0C0036F
:1029B000D3607047004400402DE9F041D0F85C64DA
:1029C000F7683368DA0505469CB20DD5202383F3FA
:1029D00011884FF400710430FFF7D6FF6FF4807355
:1029E0003360002383F31188202383F3118805F1DA
:1029F000040814F02F0333D183F31188380615D55A
:102A0000210613D5202383F3118805F1380000F047
:102A100031FA002846DA0821281DFFF7B5FF4FF6E6
:102A20007F733B40F360002383F311887A060ED551
:102A300063060CD5202383F31188EA6C2B6D9A4230
:102A400002D12B6C002B2FD1002383F31188D5F8F2
:102A50006424D368002B31D01069BDE8F0411847D9
:102A6000230713D014F0080F0CBF00218021E007CA
:102A700048BF41F02001A20748BF41F04001630771
:102A800048BF41F480714046FFF77EFFA40673689B
:102A900005D595F860142846194000F08DFA346881
:102AA000A4B2A6E77060BEE727F040073F041021FC
:102AB000281D3F0CFFF768FFF760C5E7BDE8F08110
:102AC00008B50348FFF778FFBDE8084000F014BEE2
:102AD0009037002008B50348FFF76EFFBDE80840B7
:102AE00000F00ABEF83B002010B5094C094A204608
:102AF000002100F03FFA084BC4F85C34074C084A48
:102B00000021204600F036FA064BC4F85C3410BDB4
:102B1000903700209929000800100140F83B002060
:102B2000A92900080044004000F1604300F01F02A2
:102B3000400903F5614309018000C9B200F160401A
:102B400083F8001300F5614001239340C0F8803101
:102B500003607047FFF7F6BD00F108020123037020
:102B600082600023C26000F110028361436043620F
:102B7000026103634261C363C36103628362C36230
:102B800043638363036443648364C364036570477E
:102B900010B52023044683F311880223037041609B
:102BA000FFF7F4FD03232370002383F3118810BD86
:102BB0002DE9F0411F4604460D461646202383F3B7
:102BC000118800F108082378042B0ED029462046EE
:102BD000FFF706FE48B1204632462946FFF720FEA1
:102BE000002080F31188BDE8F0813946404600F0AE
:102BF000FFFA0028E7D0002383F31188BDE8F081B5
:102C00002DE9F0411F4604460D461646202383F366
:102C1000118800F110082378042B0ED02946204695
:102C2000FFF736FE48B1204632462946FFF748FEF8
:102C3000002080F31188BDE8F0813946404600F05D
:102C4000D7FA0028E7D0002383F31188BDE8F0818C
:102C5000F8B5154682680669AA420B46816938BFF5
:102C60008568761AB542044607D218462A46FEF70A
:102C7000BBFBA3692B44A3610DE011D93246184672
:102C8000FEF7B2FBAF1B3A46E1683044FEF7ACFBFF
:102C9000E2683A44A261A3685B1BA3602846F8BDC2
:102CA00018462A46FEF7A0FBE368E4E783682DE9AF
:102CB000F041044693421546266938BF856840694D
:102CC000361AB5420F4606D22A46FEF78DFB6369D7
:102CD0002B4463610DE012D93246A5EB0608FEF7DE
:102CE00083FB4246B919E068FEF77EFBE268424486
:102CF0006261A3685B1BA3602846BDE8F0812A4699
:102D0000FEF772FBE368E4E710B50A440024C361F0
:102D1000029B006040608460C1608161416102612A
:102D2000036210BD08B582694369934201D182688C
:102D300082B98268013282605A1C4261197042690C
:102D400003699A4201D3C3684361002100F060FA2D
:102D5000002008BD4FF0FF3008BD000070B52023F3
:102D600004460E4683F31188A568A5B1A368A2693D
:102D7000013BA360531CA36115782269934224BFD1
:102D8000E368A361E3690BB120469847002383F30E
:102D90001188284670BD3146204600F029FA0028E7
:102DA000E2DA85F3118870BD2DE9F74F05460F462D
:102DB00090469A46D0F81C90202686F311884FF052
:102DC000000B144664B1224639462846FFF740FFFF
:102DD000034668B95146284600F00AFA0028F1D0A7
:102DE000002383F31188A8EB040003B0BDE8F08F43
:102DF000B9F1000F03D001902846C847019B8BF31F
:102E00001188E41A1F4486F31188DBE7C1608161F1
:102E10004161C3611144009B0060406082600161B8
:102E200003627047F8B504460E461746202383F325
:102E30001188A568A5B1A368013BA36063695A1C0A
:102E400062611E70236962699A4224BFE36863610C
:102E5000E3690BB120469847002080F31188F8BD44
:102E60003946204600F0C4F90028E2DA85F31188DB
:102E7000F8BD0000836942699A4210B501D18268A9
:102E80007AB98268013282605A1C82611C780369B7
:102E90009A4201D3C3688361002100F0B9F920464A
:102EA00010BD4FF0FF3010BD2DE9F74F05460F461E
:102EB00090469A46D0F81C90202686F311884FF051
:102EC000000B144664B1224639462846FFF7EEFE51
:102ED000034668B95146284600F08AF90028F1D027
:102EE000002383F31188A8EB040003B0BDE8F08F42
:102EF000B9F1000F03D001902846C847019B8BF31E
:102F00001188E41A1F4486F31188DBE702684368DE
:102F10001143016003B11847704700001430FFF7F8
:102F200043BF00004FF0FF331430FFF73DBF0000F8
:102F30003830FFF7B9BF00004FF0FF333830FFF7EC
:102F4000B3BF00001430FFF709BF00004FF0FF319E
:102F50001430FFF703BF00003830FFF763BF0000F5
:102F60004FF0FF323830FFF75DBF000000207047A0
:102F7000FFF7BABD37B50F4B036000234360836092
:102F8000C360012304460374154600900B464FF4BA
:102F9000007200F15C011430FFF7B6FE00942B467E
:102FA0004FF4007204F5177104F13800FFF72EFF9B
:102FB00003B030BDF047000838B5C36904460D467C
:102FC0001BB904210844FFF7A1FF294604F11400AE
:102FD000FFF7A8FE002806DA201D4FF48061BDE847
:102FE0003840FFF793BF38BD024B00221B605B6087
:102FF0009A60704760400020002303748268054B8C
:103000001B6899689142FBD25A6803604260106065
:10301000586070476040002008B5202383F3118872
:10302000037C032B05D0042B0DD02BB983F311881F
:1030300008BD436900221A604FF0FF334361FFF778
:10304000DBFF0023F2E790E80C001A60026853608F
:10305000F2E70000002303748268054B1B6899683F
:103060009142FBD85A680360426010605860704714
:1030700060400020054B19690874186802681A60DE
:103080005360186101230374FDF7DEBA604000202D
:1030900030B54B1C87B005460A4C10D023690A4A4C
:1030A00001A800F0DDF82846FFF7E4FF049B13B108
:1030B00001A800F011F92369586907B030BDFFF786
:1030C000D9FFF8E7604000201930000838B50C4DF2
:1030D00041612B6981689A689142044603D8BDE832
:1030E0003840FFF789BF1846FFF786FF01232C61A0
:1030F000014623742046BDE83840FDF7A5BA00BF5D
:1031000060400020044B1A681B6990689B689842D5
:1031100094BF0020012070476040002010B5084C8B
:10312000236820691A6822605460012223611A749E
:10313000FFF790FF01462069BDE81040FDF784BA13
:103140006040002008B5FFF7DDFF18B1BDE808407A
:10315000FFF7E4BF08BD0000826002220274002273
:10316000427470478368A3F17C0243F80C2C026917
:1031700043F83C2C426943F8382C074A43F81C2C8E
:10318000C26843F8102C022203F8082C002203F82E
:10319000072CA3F1180070476106000810B5202322
:1031A00083F31188FFF7DEFF00210446FFF78EFF4F
:1031B000002383F31188204610BD0000024B1B69D9
:1031C00058610F20FFF756BF60400020202383F393
:1031D0001188FFF7F3BF000008B50146202383F3F1
:1031E00011880820FFF754FF002383F3118808BDDE
:1031F00049B1064B42681B6918605A60136043600E
:103200000420FFF745BF4FF0FF30704760400020BB
:103210000368984206D01A680260506059611846E7
:10322000FFF7EABE7047000038B504460D46206837
:10323000844200D138BD036823605C604561FFF7BC
:10324000DBFEF4E7054B03F114025A619A614FF07B
:10325000FF32DA6100221A62704700BF604000202E
:10326000F8B503614FF08043C2605C6A194B1A469F
:10327000022952F8145F38BF0221954206461F46C4
:103280000AD1586198611C62056045608160081927
:10329000BDE8F84000F07EBA186AAB68241A0C1931
:1032A00002D3E41A2D6804E09C4202D2204400F0CC
:1032B0007FFAAB689C42F4D86B68736035601E601F
:1032C0006E60B460A9684FF0FF33091BA960FB6111
:1032D000F8BD00BF6040002010B41B4C234653F8DB
:1032E000141F814210D0416802680A600268516070
:1032F0009A424FF00001C16003D0936881680B448B
:1033000093605DF8044B70470A68626100209A423E
:103310005360C86003D15DF8044B00F043BA936872
:103320008868034493604FF08042206A526A121A00
:103330009342E6D9991A012998BF931C18445DF865
:10334000044B00F035BA00BF6040002000207047F9
:10335000FEE70000704700004FF0FF3070470000AC
:10336000BFF34F8F024AD368DB03FCD4704700BF22
:10337000003C024008B5094B1B7873B9FFF7F0FF1A
:10338000074B1A69002ABFBF064A5A6002F1883209
:103390005A601A6822F480621A6008BDA0400020BA
:1033A000003C02402301674508B50B4B1B7893B9DD
:1033B000FFF7D6FF094B1A6942F000421A611A68FA
:1033C00042F480521A601A6822F480521A601A6815
:1033D00042F480621A6008BDA0400020003C024018
:1033E000072870B513D80B4A0B4C137863B90B4EF2
:1033F0004FF0006144F8231056F823500133082B96
:103400002944F7D10123137054F8200070BD002027
:1034100070BD00BFC4400020A44000201848000830
:10342000014B53F8200070471848000808207047E7
:10343000072810B5044601D9002010BDFFF7D0FFC2
:10344000064B53F824301844C21A0BB9012010BDA2
:1034500012680132F0D1043BF6E700BF18480008BB
:10346000072810B5044621D8FFF77AFFFFF782FF3F
:103470000F4AF323D360C300DBB243F4007343F07D
:1034800002031361136943F480331361FFF768FF8C
:10349000FFF7A6FF074B53F8241000F009F9FFF7D8
:1034A00083FF2046BDE81040FFF7C2BF002010BDDB
:1034B000003C0240184800082DE9F84312F00103CF
:1034C000154640D184182E4A94423CD82D4B1B6897
:1034D00013F0010337D02C4CFFF74CFFF323E360CC
:1034E000FFF73EFF40F20127032D01D9830713D0D8
:1034F000254C0F46401A40F20118EB1B0B44012BE0
:1035000000EB0706236924D823F001032361FFF7AA
:103510004BFF0120BDE8F883236923F44073236146
:1035200023693B43236151F8046B0660BFF34F8F5F
:10353000FFF716FF03689E4208D0236923F00103BA
:103540002361FFF731FF0020BDE8F883043D04301C
:10355000CAE723F440732361236943EA0803236124
:10356000B94637F8023B3380BFF34F8FFFF7F8FEC1
:103570003688B9F80030B6B2B342BED0DDE700BF3E
:10358000FFFF070800380240003C0240084908B528
:103590000B7828B153B9FFF7EDFE01230B7008BD7E
:1035A00023B1BDE808400870FFF7FEBE08BD00BFAC
:1035B000A040002070B500F083F90E4E4FF080431C
:1035C000596A3368994210D20B4CD4E90023003277
:1035D00043F10103C4E90023541843F100053160AD
:1035E00000F078F92046294670BD034BD3E900234B
:1035F000F2E700BFC8400020D040002008B5FFF728
:10360000D9FF4FF47A720023FCF702FE08BD00BF19
:1036100010B50244064B0439D2B2904200D110BD1D
:10362000441C00B253F8200041F8040FE0B2F4E764
:1036300050280040104B30B51C6F240407D41C6F79
:1036400044F400741C671C6F44F400441C670B4C6A
:10365000236843F4807323600244094B0439D2B2D7
:10366000904200D130BD441C00B251F8045F43F8D1
:103670002050E0B2F4E700BF003802400070004084
:103680005028004007B5012201A90020FFF7C0FF24
:10369000019803B05DF804FB07B502A9012241F8C7
:1036A000040D0020FFF7C6FF03B05DF804FB000027
:1036B00070470000034B1B689B0042BF024B012276
:1036C0001A70704774380240D8400020014B1878B7
:1036D000704700BFD8400020064A536823F001031A
:1036E0005360EFF30983683383F30988002383F37E
:1036F0001188704730EF00E010B5202383F3118864
:10370000104B5B6813F4006318D0F1EE103AEFF33E
:1037100009844FF0807344F84C3C0B4BDB6844F851
:10372000083CA4F1680383F30988FFF7EBFC18B1A8
:10373000064B44F8503C10BD054BFAE783F3118863
:1037400010BD00BF00ED00E030EF00E071060008A2
:103750007406000870470000FEE70000084A094BA5
:1037600009498B4204D3094A0021934205D370478B
:1037700052F8040F43F8040BF3E743F8041BF4E793
:10378000004A0008DC420020DC420020DC4200202D
:1037900000F034B94FF08043002258631A610222CE
:1037A000DA6070474FF080430022DA607047000013
:1037B0004FF0804358637047FEE7000010B5174C88
:1037C000FFF712FCFFF73EFD802215492046FFF768
:1037D000C3FC012344F8180C0374124B124AD96835
:1037E00021F4E0610904090C0A431049DA60CA684F
:1037F00042F08072CA600E490A6842F001020A6013
:103800001022DA77202283F82220002383F3118804
:1038100062B60848BDE81040FFF7C0BC88400020F1
:103820003848000800ED00E00003FA05F0ED00E084
:10383000001000E0404800082DE9F84F1F4C4FF001
:103840000008656904F11407C1464FF08043266AF9
:103850005B6AAA689E1B96421DD34FF0200AAA6895
:10386000236AD5F80CB0134423622B68BB425F6017
:10387000A6EB02066361C5F80C8001D1FFF792FF49
:1038800089F311882869D8478AF311886569AB687C
:103890009E42E4D2D9E76269BA420CD091682362B1
:1038A0008E1B9660A86802282CBF1818981CBDE8CB
:1038B000F84FFFF77DBFBDE8F88F00BF60400020E4
:1038C000EFF3118020B9EFF30583202282F31188F2
:1038D0007047000010B558B9EFF30584C4F308042D
:1038E00014B180F3118810BDFFF72CFC84F311880C
:1038F00010BD00004B6843608B688360CB68C36079
:103900000B6943614B6903628B6943620B68036017
:103910007047000008B51F4B1F481A6942F0FF02AC
:103920001A611A6922F0FF021A611A691A6B42F0D1
:10393000FF021A631A6D42F0FF021A65174A1B6DE7
:103940001146FFF7D7FF164802F11C01FFF7D2FF1F
:10395000144802F13801FFF7CDFF134802F154017A
:10396000FFF7C8FF114802F17001FFF7C3FF1048CD
:1039700002F18C01FFF7BEFF0E4802F1A801FFF72C
:10398000B9FF0D4802F1C401FFF7B4FFBDE80840DC
:1039900000F09CB800380240000002406048000877
:1039A0000004024000080240000C024000100240E7
:1039B0000014024000180240001C024008B500F04C
:1039C000FDF9FFF7FBFEBDE80840FFF773BE0000FE
:1039D000704700004FF0804310B51A69920708D570
:1039E00000241C61202383F31188FFF725FF84F353
:1039F0001188BDE81040FFF77FBE0000104B1A6C25
:103A000042F001021A641A6E42F001021A660D4A6F
:103A10001B6E936843F0010393604FF080435F2275
:103A20009A624FF0FF32DA6200229A615A63DA60DA
:103A30005A6001225A6108211A601C20FFF774B8ED
:103A400000380240002004E01E4B1A6962F0FF02B9
:103A50001A611A69D2B21A614FF0FF301A695A69B5
:103A6000586100215A6959615A691A6A62F0805294
:103A70001A621A6A02F080521A621A6A5A6A586204
:103A80005A6A59625A6A1A6C42F080521A641A6E63
:103A900042F080521A661A6E0B4A106840F4807029
:103AA0001060186F00F44070B0F5007F1EBF4FF437
:103AB000803018671967536823F40073536000F06F
:103AC0005DB900BF0038024000700040334B344AFB
:103AD0001A64344A4FF4404111601A6842F00102FE
:103AE0001A601A689207FCD59A6822F003029A605D
:103AF0002A4B19469A6812F00C02FBD1186800F0A4
:103B0000F90018609A601A6842F480321A600B68F3
:103B10009B03FCD54B6F43F001034B671F4B5A6F60
:103B20009007FCD5204A5A601A6842F080721A60E9
:103B30001C4A53685904FCD5184B1A689201FCD5ED
:103B40001A4A9A600322C3F88C200022C3F89420FA
:103B5000174B1A68174B9A42174B1BD1174A11681B
:103B6000174A914216D140F203121A600B4B9A6821
:103B700042F002029A609A6802F00C02082AFAD116
:103B80005A6C42F480425A645A6E42F480425A6639
:103B90005B6E704740F20372E7E700BF00380240F7
:103BA0000004001000700040106041080090883848
:103BB000002004E011640020003C024000ED00E021
:103BC00041C20F41084A08B5536911680B4003F020
:103BD0000103536123B1054A13680BB1506898473C
:103BE000BDE80840FFF788BD003C014010370020C9
:103BF000084A08B5536911680B4003F0020353618A
:103C000023B1054A93680BB1D0689847BDE80840D6
:103C1000FFF772BD003C014010370020084A08B58C
:103C2000536911680B4003F00403536123B1054A43
:103C300013690BB150699847BDE80840FFF75CBDB8
:103C4000003C014010370020084A08B5536911684C
:103C50000B4003F00803536123B1054A93690BB18C
:103C6000D0699847BDE80840FFF746BD003C0140D9
:103C700010370020084A08B5536911680B4003F05B
:103C80001003536123B1054A136A0BB1506A984778
:103C9000BDE80840FFF730BD003C01401037002070
:103CA000174B10B55C691A68144004F478725A61B5
:103CB000A30604D5134A936A0BB1D06A98476006ED
:103CC00004D5104A136B0BB1506B9847210604D5ED
:103CD0000C4A936B0BB1D06B9847E20504D5094AA7
:103CE000136C0BB1506C9847A30504D5054A936C2F
:103CF0000BB1D06C9847BDE81040FFF7FDBC00BF8A
:103D0000003C0140103700201A4B10B55C691A685E
:103D1000144004F47C425A61620504D5164A136DBE
:103D20000BB1506D9847230504D5134A936D0BB121
:103D3000D06D9847E00404D50F4A136E0BB1506E56
:103D40009847A10404D50C4A936E0BB1D06E9847E6
:103D5000620404D5084A136F0BB1506F98472304CF
:103D600004D5054A936F0BB1D06F9847BDE810405A
:103D7000FFF7C2BC003C014010370020062108B507
:103D80000846FEF7D1FE06210720FEF7CDFE0621EC
:103D90000820FEF7C9FE06210920FEF7C5FE062110
:103DA0000A20FEF7C1FE06211720FEF7BDFE062100
:103DB0002820BDE80840FEF7B7BE000008B5FFF7B1
:103DC00043FEFEF7D5FDFEF7C5FEFFF7D1F8FFF77E
:103DD000FFFDBDE80840FFF7DBBC00001FB51C4637
:103DE000094B1B680546D86852B1084B02928DE812
:103DF0000A0022462B460649FDF714FB00F042F864
:103E0000044B1A46F2E700BF18250020404900087D
:103E10004D490008793F000810B50139024490422D
:103E200001D1002010BD10F8013B11F8014FA34251
:103E3000F5D0181B10BD00002DE9F8430746884651
:103E400091461E468BB10D46A8EB0500B54207EB27
:103E5000000402D20020BDE8F883324649462046DD
:103E6000FFF7DAFF18B1013DEEE7BDE8F883204621
:103E7000BDE8F883034611F8012B03F8012B002A53
:103E8000F9D1704708B5062000F02CF80120FFF7A3
:103E90005FFA00001F2938B504460D4604D91623E1
:103EA00003604FF0FF3038BD426C12B152F8213040
:103EB0004BB9204600F030F82A4601462046BDE8BE
:103EC000384000F017B8012B0AD0591C03D1162333
:103ED0000360012038BD002442F825402846984759
:103EE000002038BD024B01461868FFF7D3BF00BF62
:103EF0001825002038B5074C002305460846114612
:103F00002360FFF729FA431C02D1236803B12B6019
:103F100038BD00BFD8420020FFF718BA40A2E4F134
:103F2000646891064E6F20617070207369670A00A3
:103F3000426164206677206C656E67746820257521
:103F40000A0042616420617070204352432030783F
:103F5000253038783A307825303878203078253058
:103F600038783A3078253038780A00476F6F642007
:103F70006669726D776172650A000000726563653B
:103F8000697665645F756E697175655F69645F6C9C
:103F9000656E203C2055415643414E5F50524F5470
:103FA0004F434F4C5F44594E414D49435F4E4F4440
:103FB000455F49445F414C4C4F434154494F4E5F2C
:103FC000554E495155455F49445F4D41585F4C45F9
:103FD0004E475448002E2E2F2E2E2F546F6F6C7389
:103FE0002F41505F426F6F746C6F616465722F6315
:103FF000616E2E63707000616C6C6F6361746564D8
:104000005F6E6F64655F6964203C3D20313237002C
:104010006F72672E6172647570696C6F742E637550
:1040200061765F6770730000766F69642068616E07
:10403000646C655F616C6C6F636174696F6E5F72F5
:104040006573706F6E73652843616E617264496E4B
:104050007374616E63652A2C2043616E61726452D1
:10406000785472616E736665722A29000000000040
:10407000963007772C610EEEBA51099919C46D0775
:104080008FF46A7035A563E9A395649E3288DB0ED0
:10409000A4B8DC791EE9D5E088D9D2972B4CB609B3
:1040A000BD7CB17E072DB8E7911DBF906410B71D90
:1040B000F220B06A4871B9F3DE41BE847DD4DA1AC9
:1040C000EBE4DD6D51B5D4F4C785D38356986C13FA
:1040D000C0A86B647AF962FDECC9658A4F5C011473
:1040E000D96C0663633D0FFAF50D088DC8206E3B51
:1040F0005E10694CE44160D5727167A2D1E4033C63
:1041000047D4044BFD850DD26BB50AA5FAA8B53589
:104110006C98B242D6C9BBDB40F9BCACE36CD83278
:10412000755CDF45CF0DD6DC593DD1ABAC30D9261F
:104130003A00DE518051D7C81661D0BFB5F4B42122
:1041400023C4B3569995BACF0FA5BDB89EB802281F
:104150000888055FB2D90CC624E90BB1877C6F2FA4
:10416000114C6858AB1D61C13D2D66B69041DC769F
:104170000671DB01BC20D2982A10D5EF8985B17178
:104180001FB5B606A5E4BF9F33D4B8E8A2C9077827
:1041900034F9000F8EA8099618980EE1BB0D6A7FBE
:1041A0002D3D6D08976C6491015C63E6F4516B6B77
:1041B00062616C1CD83065854E0062F2ED95066C2C
:1041C0007BA5011BC1F4088257C40FF5C6D9B065A1
:1041D00050E9B712EAB8BE8B7C88B9FCDF1DDD62FE
:1041E000492DDA15F37CD38C654CD4FB5861B24D64
:1041F000CE51B53A7400BCA3E230BBD441A5DF4A2E
:10420000D795D83D6DC4D1A4FBF4D6D36AE96943F0
:10421000FCD96E34468867ADD0B860DA732D04449B
:10422000E51D03335F4C0AAAC97C0DDD3C710550C6
:10423000AA41022710100BBE86200CC925B568576D
:10424000B3856F2009D466B99FE461CE0EF9DE5EB6
:1042500098C9D9292298D0B0B4A8D7C7173DB35967
:10426000810DB42E3B5CBDB7AD6CBAC02083B8EDF8
:10427000B6B3BF9A0CE2B6039AD2B1743947D5EA05
:10428000AF77D29D1526DB048316DC73120B63E334
:10429000843B64943E6A6D0DA85A6A7A0BCF0EE493
:1042A0009DFF099327AE000AB19E077D44930FF04E
:1042B000D2A3088768F2011EFEC206695D5762F745
:1042C000CB67658071366C19E7066B6E761BD4FE82
:1042D000E02BD3895A7ADA10CC4ADD676FDFB9F95F
:1042E000F9EFBE8E43BEB717D58EB060E8A3D6D621
:1042F0007E93D1A1C4C2D83852F2DF4FF167BBD14F
:104300006757BCA6DD06B53F4B36B248DA2B0DD851
:104310004C1B0AAFF64A0336607A0441C3EF60DFF4
:1043200055DF67A8EF8E6E3179BE69468CB361CBDD
:104330001A8366BCA0D26F2536E2685295770CCC02
:1043400003470BBBB91602222F260555BE3BBAC543
:10435000280BBDB2925AB42B046AB35CA7FFD7C234
:1043600031CFD0B58B9ED92C1DAEDE5BB0C2649B25
:1043700026F263EC9CA36A750A936D02A906099C58
:104380003F360EEB8567077213570005824ABF95CB
:10439000147AB8E2AE2BB17B381BB60C9B8ED2924E
:1043A0000DBED5E5B7EFDC7C21DFDB0BD4D2D386A5
:1043B00042E2D4F1F8B3DD686E83DA1FCD16BE8118
:1043C0005B26B9F6E177B06F7747B718E65A0888E9
:1043D000706A0FFFCA3B06665C0B0111FF9E658F7A
:1043E00069AE62F8D3FF6B6145CF6C1678E20AA024
:1043F000EED20DD75483044EC2B30339612667A7AA
:10440000F71660D04D476949DB776E3E4A6AD1AEF8
:10441000DC5AD6D9660BDF40F03BD83753AEBCA987
:10442000C59EBBDE7FCFB247E9FFB5301CF2BDBDF4
:104430008AC2BACA3093B353A6A3B4240536D0BAFD
:104440009306D7CD2957DE54BF67D9232E7A66B39A
:10445000B84A61C4021B685D942B6F2A37BE0BB447
:10446000A18E0CC31BDF055A8DEF022D63616E61B7
:104470007264496E6974000063616E6172645365B1
:10448000744C6F63616C4E6F6465494400000000BA
:1044900063616E61726448616E646C6552784672E5
:1044A000616D650063616E6172644465636F64652C
:1044B0005363616C6172000063616E617264456E8A
:1044C000636F64655363616C61720000696E63724F
:1044D000656D656E745472616E73666572494400F1
:1044E000656E717565756554784672616D657300AA
:1044F0007075736854785175657565007072657074
:10450000617265466F724E6578745472616E73663F
:1045100065720000636F70794269744172726179EB
:1045200000000000646573636174746572547261A5
:104530006E736665725061796C6F61640000000093
:1045400066726565426C6F636B0000006269745F40
:104550006C656E677468203E20300072656D61691D
:104560006E696E675F62697473203E203000696E09
:104570007075745F6269745F6F6666736574203E00
:104580003D20626C6F636B5F6269745F6F66667318
:10459000657400626C6F636B5F656E645F62697403
:1045A0005F6F6666736574203E20626C6F636B5F3D
:1045B0006269745F6F66667365740072656D6169C8
:1045C0006E696E675F6269745F6C656E67746820A0
:1045D0003C3D2072656D61696E696E675F626974EA
:1045E0007300696E7075745F6269745F6F6666737D
:1045F0006574203C3D207472616E736665722D3E59
:104600007061796C6F61645F6C656E202A20380080
:104610006F75747075745F6269745F6F66667365D9
:1046200074203C3D2036340072656D61696E696EA0
:10463000675F6269745F6C656E677468203D3D20DA
:10464000300028726573756C74203E203029202656
:10465000262028726573756C74203C3D2036342901
:104660002026262028726573756C74203C3D2062DC
:1046700069745F6C656E67746829000064657374A3
:10468000696E6174696F6E20213D202828766F69FC
:1046900064202A2930290076616C756520213D202F
:1046A0002828766F6964202A293029006F6666738E
:1046B00065745F77697468696E5F626C6F636B20A5
:1046C0003C2028333255202D205F5F6275696C7461
:1046D000696E5F6F66667365746F66202843616EEE
:1046E000617264427566666572426C6F636B2C2002
:1046F00064617461292900006F75745F696E7320AD
:10470000213D202828766F6964202A29302900005D
:104710007372635F6C656E203E20305500000000B0
:104720002863616E5F6964202620307831464646F2
:10473000464646465529203D3D2063616E5F6964CB
:1047400000000000616C6C6F6361746F722D3E73CA
:104750007461746973746963732E63757272656EC4
:10476000745F75736167655F626C6F636B73203E26
:10477000203000007472616E736665725F69642038
:10478000213D202828766F6964202A2930290000DD
:1047900073746174652D3E6275666665725F626CE6
:1047A0006F636B73203D3D202828766F6964202A53
:1047B000293029002E2E2F2E2E2F6D6F64756C65DB
:1047C000732F6C696263616E6172642F63616E61E5
:1047D00072642E63006974656D2D3E6672616D654D
:1047E0002E646174615F6C656E203E2030000000B5
:1047F00000000000392F0008252F0008612F000855
:104800004D2F0008592F0008452F0008312F0008B0
:104810001D2F00086D2F0008004000000040000020
:104820000040000000400000000001000000020005
:1048300000000200000002006D61696E00000000CF
:1048400058480008E0400020D84200200100000045
:10485000B93700080000000069646C6500000000C2
:10486000A000002800000000AAAAAAAA5000000088
:10487000FFFF0000007700000000000000A40A0114
:1048800000000000AAA6AAAA80500000DFEF0000E6
:104890000000007788000000000000000000000019
:1048A000AAAAAAAA00000000FFFF00000000000062
:1048B000000000000000000000000000AAAAAAAA50
:1048C00000000000FFFF00000000000000000000EA
:1048D0000000000000000000AAAAAAAA0000000030
:1048E000FFFF0000000000000000000000000000CA
:1048F00000000000AAAAAAAA00000000FFFF000012
:1049000000000000000000000000000000000000A7
:10491000AAAAAAAA00000000FFFF000000000000F1
:104920000000000000000000000000000A0000007D
:104930000000000003000000000000000000000074
:104940002C2066756E6374696F6E3A200061737314
:10495000657274696F6E2022257322206661696C0E
:1049600065643A2066696C6520222573222C206CD0
:10497000696E65202564257325730A00C4B8FF7F1E
:104980000100000000000000FFFFFFFF74000000B6
:104990006400000000000000FE2A0100D2040000B4
:1049A0001C250020000000000000000000000000A6
:1049B00000000000000000000000000000000000F7
:1049C00000000000000000000000000000000000E7
:1049D00000000000000000000000000000000000D7
:1049E00000000000000000000000000000000000C7
:1049F00000000000000000000000000000000000B7
:044A000000000000B2
:00000001FF
