:020000040800F2
:10000000000900209D09000835180008391800086B
:100010007518000839180008551800089F090008CD
:100020009F0900089F0900089F090008D5390008AA
:100030009F0900089F0900089F090008613E000809
:100040009F0900089F0900089F0900089F090008F0
:100050009F0900089F090008413C00086D3C00080A
:10006000993C0008C53C0008F13C00089F090008C5
:100070009F0900089F0900089F0900089F090008C0
:100080009F0900089F0900089F090008952900089A
:10009000052A0008652A0008C52A00081D3D000839
:1000A0009F0900089F0900089F0900089F09000890
:1000B0009F0900089F0900089F0900089F09000880
:1000C0009F0900089F0900089F0900089F09000870
:1000D0009F090008012F0008152F00089F0900083C
:1000E000853D00089F0900089F0900089F09000836
:1000F0009F0900089F0900089F0900089F09000840
:100100009F0900089F0900089F0900089F0900082F
:100110009F0900089F0900089F0900089F0900081F
:100120009F0900089F0900089F0900089F0900080F
:100130009F0900089F0900089F0900089F090008FF
:100140009F0900089F0900089F0900089F090008EF
:100150009F0900089F0900089F0900089F090008DF
:10016000D0400B1CD1409C46203AD3401843524209
:1001700063469340184370479140031C90409C464F
:10018000203A9340194352426346D3401943704783
:1001900080F0004002E000BF81F0004142001FBF3C
:1001A0005FEA410392EA030F7FEA226C7FEA236C45
:1001B0006AD04FEA1262D2EB1363C1BFD21841403A
:1001C00048404140B8BF5B42192B88BF704710F0D0
:1001D000004F40F4000020F07F4018BF404211F073
:1001E000004F41F4000121F07F4118BF494292EADB
:1001F000030F3FD0A2F1010241FA03FC10EB0C0007
:10020000C3F1200301FA03F100F0004302D5494293
:1002100060EB4000B0F5000F13D3B0F1807F06D340
:1002200040084FEA310102F10102FE2A51D2B1F138
:10023000004F40EBC25008BF20F0010040EA03002D
:100240007047490040EB000010F4000FA2F10102DA
:10025000EDD1B0FA80FCACF1080CB2EB0C0200FA64
:100260000CF0AABF00EBC25052421843BCBFD040B2
:100270001843704792F0000F81F4000106BF80F42C
:1002800000000132013BB5E74FEA41037FEA226CEF
:1002900018BF7FEA236C21D092EA030F04D092F0BA
:1002A000000F08BF0846704790EA010F1CBF0020EE
:1002B000704712F07F4F04D1400028BF40F000404B
:1002C000704712F100723CBF00F50000704700F06B
:1002D000004343F0FE4040F4000070477FEA226292
:1002E00016BF08467FEA23630146420206BF5FEA63
:1002F000412390EA010F40F4800070474FF0000363
:1003000004E000BF10F0004348BF40425FEA000C29
:1003100008BF704743F0964301464FF000001CE0D1
:1003200050EA010208BF70474FF000030AE000BF27
:1003300050EA010208BF704711F0004302D5404265
:1003400061EB41015FEA010C02BF844601460020D7
:1003500043F0B64308BFA3F18053A3F50003BCFAF2
:100360008CF2083AA3EBC25310DB01FA02FC63449F
:1003700000FA02FCC2F12002BCF1004F20FA02F2A6
:1003800043EB020008BF20F00100704702F1200299
:1003900001FA02FCC2F1200250EA4C0021FA02F2FA
:1003A00043EB020008BF20EADC7070474FF0FF0CFF
:1003B0001CEAD0521EBF1CEAD15392EA0C0F93EAFA
:1003C0000C0F6FD01A4480EA010C400218BF5FEA9C
:1003D00041211ED04FF0006343EA501043EA51110F
:1003E000A0FB01310CF00040B1F5000F3EBF490009
:1003F00041EAD3715B0040EA010062F17F02FD2A0D
:100400001DD8B3F1004F40EBC25008BF20F00100EF
:10041000704790F0000F0CF0004C08BF49024CEA06
:10042000502040EA51207F3AC2BFD2F1FF0340EA98
:10043000C250704740F400004FF00003013A5DDC09
:1004400012F1190FDCBF00F000407047C2F100024A
:10045000410021FA02F1C2F1200200FA02FC5FEA37
:10046000310040F1000053EA4C0308BF20EADC7081
:10047000704792F0000F00F0004C02BF400010F4F3
:10048000000F013AF9D040EA0C0093F0000F01F0A0
:10049000004C02BF490011F4000F013BF9D041EAC2
:1004A0000C018FE70CEAD15392EA0C0F18BF93EAC4
:1004B0000C0F0AD030F0004C18BF31F0004CD8D1EE
:1004C00080EA010000F00040704790F0000F17BF75
:1004D00090F0004F084691F0000F91F0004F14D0BB
:1004E00092EA0C0F01D142020FD193EA0C0F03D113
:1004F0004B0218BF084608D180EA010000F0004016
:1005000040F0FE4040F40000704740F0FE4040F4F0
:10051000400070474FF0FF0C1CEAD0521EBF1CEA8F
:10052000D15392EA0C0F93EA0C0F69D0A2EB0302AD
:1005300080EA010C49024FEA402037D04FF0805347
:1005400043EA111143EA10130CF000408B4238BF0C
:100550005B0042F17D024FF4000C8B4224BF5B1A1A
:1005600040EA0C00B3EB510F24BFA3EB510340EA68
:100570005C00B3EB910F24BFA3EB910340EA9C0016
:10058000B3EBD10F24BFA3EBD10340EADC001B0186
:1005900018BF5FEA1C1CE0D1FD2A3FF650AF8B422A
:1005A00040EBC25008BF20F0010070470CF0004C37
:1005B0004CEA50207F32C2BFD2F1FF0340EAC25062
:1005C000704740F400004FF00003013A37E792F023
:1005D000000F00F0004C02BF400010F4000F013A81
:1005E000F9D040EA0C0093F0000F01F0004C02BF7C
:1005F000490011F4000F013BF9D041EA0C0195E7E5
:100600000CEAD15392EA0C0F08D142027FF47DAF7D
:1006100093EA0C0F7FF470AF084676E793EA0C0F6D
:1006200004D14B023FF44CAF08466EE730F0004C6B
:1006300018BF31F0004CCAD130F000427FF45CAFFB
:1006400031F000437FF43CAF5FE700BF42000ED2C1
:10065000B2F1FE4F0BD34FF09E03B3EB126209D4FD
:100660004FEA002343F0004323FA02F070474FF0B3
:100670000000704712F1610F01D1420202D14FF028
:10068000FF3070474FF00000704700BF53B94AB9C0
:10069000002908BF00281CBF4FF0FF314FF0FF308A
:1006A00000F07AB9ADF1080C6DE904CE00F006F85F
:1006B000DDF804E0DDE9022304B070472DE9F047DE
:1006C0008C460E460446089D002B50D18A421746A0
:1006D0006CD9B2FA82FEBEF1000F0BD0CEF1200C25
:1006E00001FA0EF620FA0CFC02FA0EF74CEA060CA0
:1006F00000FA0EF43A0CBCFBF2F9BBB202FB19CCC7
:1007000009FB03FA4FEA144848EA0C46B2450AD9F5
:10071000F61909F1FF3180F02581B24540F22281BE
:10072000A9F102093E44A6EB0A06B6FBF2F002FB71
:10073000106600FB03F3A4B244EA0644A34209D9BD
:10074000E41900F1FF3280F00B81A34240F20881EE
:1007500002383C440021E41A40EA0940002D62D0EE
:10076000002324FA0EF42C606B60BDE8F0878B4206
:1007700007D9002D55D0002185E841000846BDE885
:10078000F087B3FA83F1002940F08F80B34202D39F
:10079000824200F2FC80841A66EB03060120B44614
:1007A000002D40D085E81010BDE8F08712B9012770
:1007B000B7FBF2F7B7FA87FEBEF1000F35D1012182
:1007C000F61B4FEA174C1FFA87F8B6FBFCF20CFB3E
:1007D000126608FB02F0230C43EA0646B04207D932
:1007E000F61902F1FF3302D2B04200F2D2801A466B
:1007F000361AB6FBFCF00CFB106608FB00F8A3B23F
:1008000043EA0644A04507D9E41900F1FF3302D2B8
:10081000A04500F2B9801846A4EB080440EA024063
:100820009CE729462846BDE8F08707FA0EF7CEF187
:10083000200326FA03F24FEA174CB2FBFCF11FFA31
:1008400087F80CFB112206FA0EF620FA03F301FBDF
:1008500008F933431E0C46EA0246B14500FA0EF48D
:1008600009D9F61901F1FF3280F08C80B14540F2D0
:10087000898002393E44A6EB0906B6FBFCF00CFB6E
:10088000106200FB08F99EB246EA0246B14507D95C
:10089000F61900F1FF3371D2B1456FD902383E44E9
:1008A000A6EB090640EA01418FE7C1F1200722FAD1
:1008B00007F88B4048EA030326FA07F44FEA134E81
:1008C000B4FBFEF91FFA83FC0EFB19448E4020FA9C
:1008D00007F809FB0CFA48EA06084FEA184646EA08
:1008E0000444A24502FA01F200FA01F608D9E4181C
:1008F00009F1FF3044D2A24542D9A9F102091C44B2
:10090000A4EB0A04B4FBFEF00EFB104400FB0CFC4D
:100910001FFA88F848EA0444A44507D9E41800F10E
:10092000FF3E29D2A44527D902381C4440EA094099
:10093000A0FB0289A4EB0C0CCC45C246CE4615D3D5
:1009400012D055B1B6EB0A036CEB0E0606FA07F7A8
:10095000CB401F43CE402F606E600021BDE8F08782
:100960001046F7E68946DEE64645EAD2B8EB020ACB
:1009700069EB030E0138E4E77046D7E718468FE7C6
:100980008146BDE7114676E702383C4444E7084615
:1009900006E7023A3E442BE7704700BF02E000F052
:1009A00000F8FEE772B6274880F30888264880F3EF
:1009B000098826484EF60851CEF200010860022050
:1009C00080F31488BFF36F8F03F034F803F0CCF892
:1009D0004FF055301E491B4A91423CBF41F8040B71
:1009E000FAE71C49184A91423CBF41F8040BFAE768
:1009F00019491A4A1A4B9A423EBF51F8040B42F861
:100A0000040BF8E700201749174A91423CBF41F810
:100A1000040BFAE703F012F803F0A8F8134C144D96
:100A2000AC4203DA54F8041B8847F9E700F03AF8BF
:100A3000104C114DAC4203DA54F8041B8847F9E717
:100A400002F0FABF00090020001100200000000899
:100A5000000100200009002080490008001100204A
:100A60007811002078110020FC250020600100088A
:100A70006001000860010008600100082DE9F04FE6
:100A8000C1F80CD0C3689D46BDE8F08F002383F306
:100A900011882846A047002002F0BEFD02F064FD48
:100AA00000DFFEE76FF01702F8B5304B00241A7034
:100AB000032201275A706FF063029C70DC701C7176
:100AC0005C719C71DC711C725A729F72DC7202F054
:100AD00057FF064602F078FF054678B9244B9E4240
:100AE0002FD03B449E422ED0224B26F0FF029A424A
:100AF0002CD1F0B200F03AFA42F2107400F062FC2D
:100B000000F03AFA064620B32CBB2E46002002F035
:100B100041FF194B9B6813F040031FD00EB100F04A
:100B20002DF800F071FC00F00BFE00F0B1FE054660
:100B3000B4B100F0ADFE401BA04211D900F01EF888
:100B4000F3E70446DAE704463D46D7E74FF47A7404
:100B5000D4E70446DAE74FF47A74D7E71C46E0E7B7
:100B600000F0A4FC012002F05DFDE1E77811002017
:100B7000010007B0000008B0000C014010B51A4B8E
:100B80001A4953F8042F013200D110BD8B42F8D11D
:100B9000174C184B22689A4224D9174B9B6803F1D3
:100BA000006303F5C8439A421CD2002000F0E2FD26
:100BB0000220124B187000F011FE114BDA6900226E
:100BC000DA61D96999699A619B6972B60D4B0E4ACF
:100BD000202113601B68226881F311889D4683F3EE
:100BE0000888104710BD00BFFC6300081C640008A3
:100BF00004640008FF6300087811002084110020BD
:100C0000001002400064000808ED00E049F26900AD
:100C100008490B689AB21B0C00FB02330B6044F2CC
:100C20005061054A136898B21B0C01FB003010603C
:100C300080B27047101100200C11002010B504463E
:100C40000021102200F0E6FD034B03CB2060616021
:100C50001868A06010BD00BFE8F7FF1FF0B5BBB07B
:100C600000F016FE1D4CA368C31AF92B30D906AD4F
:100C70002346A06028220021284601F095FB04F1BC
:100C80000E0000F0BFFD0023C6B2591D5F1CDBB291
:100C9000B3424FEAC10107DA0E3323440822284643
:100CA00001F082FB3B46F0E7012303930823029304
:100CB0000B4B207B01933023C1F3CF0105910093AF
:100CC000014604A3D3E900230495064801F03CF94A
:100CD0003BB0F0BD78F6339F93CACD8DC82100207C
:100CE000D5210020A021002070B50D4614461E46D7
:100CF00001F0D0F850B9022E0ED1012C0CD112A364
:100D0000D3E90023C5E90023012070BD052C14D0D0
:100D100003D8012C09D0002070BD282C09D0302C1C
:100D2000F9D10BA3D3E90023ECE70BA3D3E900230C
:100D3000E8E70BA3D3E90023E4E70BA3D3E90023FF
:100D4000E0E700BFAFF30080401DA12026812A0B01
:100D500078F6339F93CACD8D9E6AC421818A46EE70
:100D600026417272DF25D7B7F017304A39059E56F3
:100D700038B50D460446034620222846002101F0DE
:100D800013FB22792346032A28BF0322284603F8AF
:100D9000042F2021022201F007FB62792346072A53
:100DA00028BF0722284603F8052F2221032201F03D
:100DB000FBFAA2792346072A28BF0722284603F810
:100DC000062F2521032201F0EFFA284604F108033B
:100DD0001022282101F0E8FA382038BD2DE9F04F23
:100DE000FFB01FAE0CAD40F2791280460F46304680
:100DF000002100F00FFD48220021284600F00AFDE6
:100E000000F046FD4FF47A72B0FBF2F0554B0DF155
:100E10005209186093E8070001232B74002385E82A
:100E200007000DF152006B74FFF708FF032385F8EC
:100E30002030E82385F8213006AB18464A4903F0F4
:100E400079F8172228643146284685F83C20FFF7B8
:100E50008FFF10AB044601460822304601F0A4FA89
:100E600008220DF14103A118304601F09DFA0DF161
:100E70004203082204F11001304601F095FA11AB4B
:100E8000202204F11801304601F08EFA12AB402204
:100E900004F13801304601F087FA14AB082204F15E
:100EA0007801304601F080FA0DF15103082204F177
:100EB0008001304601F078FA04F1880A04F5847B59
:100EC0004B465146082230460AF1080A01F06CFAF6
:100ED000D34509F10109F3D119AB0822594630462F
:100EE00001F062FA4FF0000904F5887495F8343087
:100EF0004B4510D84FF0000995F83C304B4515D9BB
:100F00002B6C21464B440822304601F04DFA083440
:100F100009F10109F0E7AB6B21464B44082230464A
:100F200001F042FA083409F10109DFE7E31DC3F3D8
:100F3000CF03F97E0593002304960393BB7E1937F4
:100F40000293012301970093404604A3D3E90023B1
:100F500000F0FAFF7FB0BDE8F08F00BF9E6AC421A9
:100F6000818A46EE88110020D0400008014B18709D
:100F7000704700BF9411002070B5274B88B01B7BD1
:100F800083B9264A02AB1068516803C30823244979
:100F90000DEB0302234802F0AFFF044620B92248BC
:100FA00000F040FC002035E000F10802154604AED8
:100FB0001834334628686968083503C3A5421E46BD
:100FC000F7D10699B1F5CE3F03D9184800F02AFCB5
:100FD000E8E702F17842A2F5C84210398C1A0020E5
:100FE000104900F059FC064629462246002000F030
:100FF00053FC04998E4202D1059B984206D0009082
:101000003346059A0A4800F00DFCCBE7094800F08A
:1010100009FC012008B070BDC8210020DC3F000899
:10102000E89B010000640008E43F0008F03F00086E
:10103000024000082B4000082DE9F04FAFB006AF8A
:1010400080460D4600F026FF044600286FD12B7E17
:10105000022B1BD1EB8A012B18D100F019FC814621
:10106000FFF7D4FDFFF74AF9A749FFF753FAA7495D
:10107000FFF79CF9FFF7EAFAA54E09F51679EB7E22
:101080004844306093B90022A24B1A70A437BD4681
:10109000BDE8F08F07F10C031C44009400230822E4
:1010A0004FEAC901284600F0E3FF4C46AB8A5FFADD
:1010B00084F9013BA3420BD904F10109B9F1110FE5
:1010C000E8D14FF49871944B944A954802F0E6FEAB
:1010D00007F11C00FFF7B2FD224607F11C0107F1E2
:1010E0000C0002F0F9FE03460028CCD1B9F1100F34
:1010F00007D0884B83F800903368A3F516733360EC
:10110000C4E707F1A00202F8950D014600922846B7
:10111000072200F0ADFFF97A7F2904DD814B7F4A79
:1011200040F24711D1E7404600F098FEAEE7EB8A67
:10113000052B00F0318106D8012BA7D12946404666
:10114000FFF74CFEA2E7282B3DD0302B9ED16B7EC3
:10115000754C0133627BDBB29342EA4640F01A8160
:10116000EA7E237B9A4240F01581002607F1A00316
:1011700023F8846D0093102201233146284600F0A5
:1011800077FFB5F81480A8F102081FFA88F808F173
:10119000030323F003030A3323F00703ADEB030D2E
:1011A0000DF1180933469BB2B11C98454FEAC101B5
:1011B00006F101066DDD4B4400930822002328460A
:1011C00000F056FFEEE7AB8A013B9BB2C92B3FF61E
:1011D0005DAF554E347B4CBB06F10C0300930822E7
:1011E00023462146284600F043FFAB8A04F101095B
:1011F000013BE4B29C424FEAC90109DA0E3434449F
:10120000009400230822284600F032FF4C46ECE709
:1012100000230022C6E900230023B36086F8D730FC
:10122000C6F8D830337B0BB9EB7E3373002407F15B
:101230001C0607F10C03082221463046FC603C6185
:101240007C6101F0B1F83B7C04F10109A3424FEA53
:10125000C90107D97B6908222344304601F0A4F86C
:101260004C46F0E70023C1F3CF01E87E05910496D8
:101270000393AB7E19350293282301460093019511
:101280001FA3D3E90023404600F05EFEFFF7E6FC13
:10129000FCE694F8D70000F07FFAD4F8D830064680
:1012A0001BB994F8D70000F087FAD4F8D83043443B
:1012B0009E4204D294F8D700013000F07DFA002558
:1012C0001A4B4FEA980BAAB25A45104630DA5AB96F
:1012D00094F8D72042B9D4E900120A4304D1D9F8CE
:1012E00000201A600135EEE7226859F8201002EB61
:1012F00080007B6000F040FA7B68F3E7AFF300808A
:1013000026417272DF25D7B700FF7F470000C84330
:101310009C210020992100203C400008E840000862
:1013200095400008B7400008C821002000110020A7
:10133000D4E90023D4F8D85012EB080043F100019F
:10134000C4E90001454494F8D700C4F8D85000F02F
:1013500023FA854209D394F8D730013384F8D73083
:10136000D4F8D8309E1BC4F8D860B8F1FF0F0ADC5F
:101370000020104B2073196800F0FEF9FFF7FCFD08
:1013800008B1FFF7FBFB23680B4A9B0A013313816B
:101390000023A360D54679E6BFF34F8F0749084B7A
:1013A000CA6802F4E0621343CB60BFF34F8F00BF03
:1013B000FDE700BF001100208811002000ED00E0D3
:1013C0000400FA0508B54FF000530B4A1968914222
:1013D0000AD1597D094A0A4811701B7DC92203733D
:1013E00008490E3000F004FABDE80840E022002170
:1013F0004FF0005000F00EBA9AAD44C59411002091
:10140000C8210020160000201FB504230024ADF8D9
:101410000830012307221A49ADF80C408DF80B3033
:101420008DF80C30174B18484B608DF80A2001F0EE
:10143000D7FD164B164900930194164B4FF480527A
:10144000154800F0D5FC154B197811B1124800F081
:1014500005FD00F01DFA0446FFF7D8FBFEF74EFF2E
:101460000F49FFF757F80F49FEF7A0FFFFF7EEF817
:1014700004F516740C4B04441C6004B010BD00BF8E
:101480000411002003000600B8220020E90C000827
:101490009811002039100008A0210020941100208C
:1014A00000FF7F470000C8439C2100202DE9F04F3A
:1014B00099A7D7E900670FF26829D9E900898F4C0D
:1014C00093B0DFF864B2DFF864A2204600F088FD34
:1014D0000CAD079098B310220021284600F09AF92D
:1014E0004FF00002079B197B61F3030219468DF848
:1014F000302051F8040F0EAA496803C21B680D9AE8
:10150000584663F31C029DF830300D9243F02003DF
:101510008DF8303000232A46194601F071FD0790FE
:1015200030B9204600F060FD079B8AF80030CCE718
:101530009AF80030072B40DC01338AF8003018227B
:101540000021284600F066F9DFF8DCB1DFF8E0A101
:1015500000232A461946584601F07AFD014680BB11
:10156000102208A800F056F9DAF80C3083F01003C6
:10157000CAF80C3000F08EF90DF1240E0B4612A9BA
:10158000024611E903008EE803009DF83410C1F310
:101590000300890649BF0E99BDF83810C1F31C013C
:1015A00041F0004158BFC1F30A018DF82C000891A9
:1015B000204608A900F05EFFCAE7204600F014FDAF
:1015C000BDE7204600F066FC834600284BD100F0C2
:1015D0005FF94B4B1A68904245D3079300F058F9D6
:1015E0008246FFF713FBFEF789FE4649FEF792FF9E
:1015F0004549FEF7DBFEFFF729F88DF820B0DFF84C
:1016000034B10AF5167A079B9BF800105044186015
:1016100011B901238DF8203028460791FFF70EFB02
:1016200007990DF12100C1F1100A5FFA8AFABAF1A7
:10163000060F28BF4FF0060A2944524600F0D8F89A
:101640000AF10103049308AB0393182302932F4B71
:10165000324601930123204600933B4600F01CFCD8
:1016600000238BF8003000F013F9294ADFF8C8A0F6
:101670001368C31AB3F57A7F31D3106000F00AF90A
:1016800002460B46204600F0B5FC204600F002FC66
:1016900028B39AF80C30DFF8A4B0002B18BF03234E
:1016A0008BF8053000F0F4F84FF47A73B0FBF3F0E8
:1016B0002946CBF800005846FFF75AFB182302933F
:1016C000144B0730019340F25513C0F3CF00049040
:1016D0000093039542464B46204600F0DDFB9AF806
:1016E0000C300BB1FFF7BAFA9AF80C30002B7FF4EC
:1016F000E8AE13B0BDE8F08FAFF30080A02100206A
:101700009C21002000FF7F470000C8439821002053
:10171000A8220020AC220020401DA12026812A0BF7
:10172000F1C6A7C1D068080FB8220020AD22002062
:101730000008014099210020C821002088110020C4
:1017400070B502F025F80025084C094E207030686D
:101750002378834208D902F017F83368054401332F
:10176000B5F5C84F3360F2D370BD00BFB42200207E
:10177000B022002002F09AB807B502AB43F8041D6E
:1017800000F100600422194600F5C84002F03AF862
:1017900003B05DF804FB0000054B1A68054B1B788D
:1017A0009B1A834202D9104401F0EEBF002070471B
:1017B000B0220020B422002038B50446064D286827
:1017C000204401F0E7FF28B928682044BDE83840EC
:1017D00001F0F2BF38BD00BFB0220020022802BFD6
:1017E0004FF48012014B1A61704700BF000801409E
:1017F000002310B5934203D0CC5CC4540133F9E705
:1018000010BD000002460346981A13F9011B002977
:10181000FAD1704703460244934202D003F8011BF9
:10182000FAE770470FB4002004B070470EB40020F0
:1018300003B07047FEE70000EFF30983EFF3058381
:10184000034B9A6B9A6A9A6A9A6A9A6A9B6AFEE74B
:1018500000ED00E0EFF30983EFF30583044B9A6B8F
:101860009A6A9A6A9A6A9A6A9A6A9B6AFEE700BFBB
:1018700000ED00E0EFF30983EFF30583034B5A6BB0
:101880009A6A9A6A9A6A9A6A9B6AFEE700ED00E091
:1018900002F044B802F01EB810B5074C0A44914259
:1018A00008D011F8013B4340DBB254F8233083EAFF
:1018B0001020F4E710BD00BF2C410008024600686C
:1018C00048B1036811891360D38801339BB29942F0
:1018D000D38038BF1381704770B504460D4688B079
:1018E000202200216846FFF795FF20460495FFF768
:1018F000E5FF054658B16B46044608AE1A4603CAD2
:10190000B24220606160134604F10804F6D1284613
:1019100008B070BD2DE9F04130B940F2C531264B19
:10192000264A274802F0BAFA0B7C23B9254B234AF2
:1019300040F2C631F5E7C66986B9C161BDE8F081FC
:10194000002B29DA930CAB4229D1B44201D10C60AF
:10195000F3E7C8F800100C60BDE8F0814B68B046B2
:1019600023F06047BD0C15EA230538BF3D463446D9
:101970004FEAD37EC3F3807C6368BEEBD37F23F052
:101980006042DDD1974203D1C3F380739C450AD1F5
:10199000974205E01C46EFE7AA4206D013469D4257
:1019A0002CBF00230123002BCFD12368A046002B9E
:1019B000F0D12160BDE8F081BC470008B0450008C7
:1019C000744800089548000808B5034A034B40F2E4
:1019D0005E31034802F062FA8C4500083448000882
:1019E0007448000808B503680B60C388016033B908
:1019F000044B054A4FF4C761044802F04FFA013B1B
:101A0000C38008BD04480008004600087448000868
:101A100070B50C4600F10C05616831B9E38A00200D
:101A200061F30903E382002170BD0E682846FFF7C9
:101A3000D9FF6660F0E7000008B5426832B10B4B91
:101A40000B4A40F22F410B4802F028FAC37DC3F342
:101A50008401013161F38603C375C38A62F309030C
:101A6000C3821B0A62F3C713C37508BD5048000840
:101A7000BC450008744800082DE9F047089E32B9BB
:101A80001F4B204A40F239511F4802F007FA4FF429
:101A90007F4901F007054FEAD6082A4406F00706F9
:101AA00000EBD100954201D1BDE8F08705F0070EAB
:101AB00006F0070AD645774638BF5746511BC7F18F
:101AC00008078F4228BF0F46EC08045D08EBD601DB
:101AD00013F801C004FA0EF429FA07FE24FA0AF4F6
:101AE0005FFA8EFE8CEA04044EFA0AFE04EA0E0443
:101AF0008CEA040C03F801C03D443E44D2E700BF29
:101B0000D0470008D4450008744800082DE9F0418A
:101B100006460F4600254FF6FF7441F221082A467B
:101B200030463946FEF71CFB0823C0B284EA002485
:101B300014F4004F4FEA4404A4B203F1FF3318BF7A
:101B400084EA080413F0FF03F2D10835402DE6D1F2
:101B50002046BDE8F081000010B541F221040A449E
:101B6000914200D110BD11F8013B80EA0320082307
:101B700010F4004F4FEA400080B203F1FF3318BF6A
:101B8000604013F0FF03F3D1EAE700002DE9F04FC6
:101B900085B08A468DE80C00BDF83C40814630B9DE
:101BA00040F26E31484B494A494802F077F911F04A
:101BB000604F04D0474B454A40F26F31F4E7009B39
:101BC000002B7ED024B10E9B002B7AD0072C28D876
:101BD00009F10C00FFF772FE054628B96FF0020507
:101BE000284605B0BDE8F08F14220021FFF712FE51
:101BF00022460E9905F10800FFF7FAFD631C2B74CD
:101C0000009B2C441B78294603F01F0363F03F031D
:101C100023724AF000436B604846FFF77BFE0125C4
:101C2000DEE74FF000084FF0800B46464546019B2B
:101C30001B0A029300F10C0303930398FFF73EFE87
:101C400007460028CAD014220021FFF7E3FDB6BBE7
:101C500002229DF804303B729DF808307B720E9B87
:101C6000711E1944B4420AD9B818013211F801EFB3
:101C7000D2B20136072A80F808E0B6B2F2D1B442F7
:101C800008BF4FF0400B009BB8181978013201F0E3
:101C90001F0141EA48114BEA010303724AF0004375
:101CA0007B603A7439464846FFF734FE0135B4424A
:101CB0002DB288F001084FF0000BBED190E7002252
:101CC000CDE76FF001058BE7BC470008A045000891
:101CD00074480008E04700082DE9F0471E46CB8A0B
:101CE0009146C3F30902062A80460F4619D01346CF
:101CF0000021B0B28DB25A1992B2052A09D9A84270
:101D000010D8FA8A034463F30902FA820120BDE87D
:101D1000F087A842F3D919F801403A44947601318A
:101D2000E8E70025FB8A7C68C3F309001C23821FB7
:101D3000B2FBF3FA03FB1A2A1FFA8AF27CB30121E1
:101D40002368002B39D1B31F03441C20B3FBF0F3ED
:101D500001339BB299420CD2BAF1000F09D140462F
:101D6000FFF7ACFD08B1C0F800A0206008B304463E
:101D700000224FF0000AB6B2B54230D21346691EB7
:101D80004944E018013311F801EF9BB201351C2BD7
:101D900080F804E0ADB214D0AE42F2D8ECE7404691
:101DA000FFF78CFD044608B1002303607C60002C23
:101DB000DED16FF00200BDE8F087013189B21C4628
:101DC000BEE7AE42D8D94046FFF778FD08B1C0F86B
:101DD00000A020600028ECD004460022CCE7FB8A5B
:101DE000C3F30902164466F30903FB828EE7000081
:101DF000F8B50E4615461F46044628B9144B154A39
:101E00004F21154802F04AF824220021FFF702FD75
:101E1000069B6A096360079B002023624FF6FF73ED
:101E20009A4228BF1A46A7602070A061E06197B26D
:101E300004F10C05824205D100232B6027826382C6
:101E4000A382F8BD2E60013035462036F2E700BF90
:101E5000B84700082C4500087448000808B528B9A0
:101E60007321084B084A094802F018F8037823B98F
:101E70004BB2002B01DD017008BD054B024A7D21EC
:101E8000F1E700BFBC470008384500087448000867
:101E900000470008007870472DE9F7430D9E07467C
:101EA00019461046BDF828900B9D9DF83040BDF8AE
:101EB000388016B9B8F1000F43D11F2C41D83B78B8
:101EC000D3B9B8F1070F39D839F0030339D14246F5
:101ED00031464FF6FF70FFF73FFE4FEA092920F029
:101EE000010009F44079400449EA0464400C44EAE2
:101EF00040244FF6FF730DE043EA0923B8F1070FC2
:101F000043EA0464F5D9FFF701FE42463146FFF784
:101F100023FE03468DE840012A4621463846FFF756
:101F200035FE0DB9FFF750FD2B780133DBB21F2BC7
:101F300088BF00232B7003B0BDE8F0836FF003006F
:101F4000F9E76FF00100F6E72DE9F7430E9F8146B0
:101F50000B9D9DF830009DF83480BDF83C6007B9BA
:101F6000C6BB1F2836D899F800E0BEF1000F34D068
:101F70000C0244F080049DF8281044EAC83444EA76
:101F8000014444EA0E04072E44EA006415D91946B8
:101F90001046FFF7BBFD32463946FFF7DDFD03462D
:101FA000019600972A4621464846FFF7EFFDB8F113
:101FB000010F0CD125B9FFF707FD4FF6FF73EFE7CF
:101FC0002B780133DBB21F2B88BF00232B7003B0AB
:101FD000BDE8F0836FF00100F9E76FF00300F6E76A
:101FE000C06900B104307047C1690C300B680361EF
:101FF000FFF7F8BC2DE9F84FD0F818A005461646B3
:102000001F4654464FF00009DFF8608000F10C0BCA
:102010000CB9BDE8F88FD4E90223B21A67EB0303C9
:10202000994508BF90451FD2AB6921469C4228467E
:102030000DD1FFF7EDFCAB6921461B685846AB613B
:10204000FFF7D0FCAC692346A2461C46E0E7FFF749
:10205000DFFC23682146CAF800305846FFF7C2FC6F
:102060005446DAF80030EFE72368EDE780841E007D
:102070002DE9F04F8BB00D4614460793DDF85090D4
:102080008246002800F06481B9F1000F00F0608101
:10209000531E3F2B00F25C81012A03D1079B002BCA
:1020A00040F056810023BAF814600893F600B54258
:1020B000099380F053812B199E420AD2761B16F0A9
:1020C000FF0607D140F26751AA4BAB4AAB4801F07B
:1020D000E5FE2646DAF80C3023B9DAF81030002B8A
:1020E00000F0A5802F2D31D8C5F1300846454FF0BE
:1020F000000334BFB0465FFA88F80093294608AB66
:102100004246DAF80800FFF7B7FCA6EB080745449B
:10211000FFB24FF0300BBAF8143003F10053063B16
:10212000DB000293DAF80C300593059B002B51D0AD
:1021300087B9DAF81000002861D0002F5FD0AB45D6
:1021400050D98F4B8C4A40F2A651BFE737464FF02B
:102150000008DEE7029B23B98A4B874A4FF4B1613E
:10216000B4E7029BE02B28BFE02306935B44AB421D
:1021700004931DD95B1B9F4226BFDBB203930397D9
:10218000AB4504D97E4B7C4A40F291519EE70598BD
:10219000CDF8008008ABA5EB0B01039A0430FFF7E4
:1021A0006BFC039B9844FF1A1D445FFA88F8FFB24A
:1021B000049B9B4504D3744B6F4A40F29B5185E7C7
:1021C000029B069ADDF810B09B1A0293059B1B68D0
:1021D0000593AAE7029BBB42ABD26C4B664A40F226
:1021E000A15173E7CDF800803A46A5EB0B0108AB8F
:1021F000B8443D44FFF740FC00275FFA88F8BAF87E
:102200001430B5EBC30F04D9614B5B4A40F2B151B6
:102210005CE7B8F1400F04D95E4B574A40F2B25127
:1022200054E767B15C4B544A40F2B3514EE7009318
:10223000324608AB2946DAF80800FFF71DFC731E8A
:102240003F2B35B201D8A64204DD544B544A40F22C
:1022500035213BE760070AD00AAB03EBD40111F844
:10226000083C624202F00702134101F8083C082CC6
:1022700021D9102C21D9202C8CBF08230423079AA4
:10228000002A6DD0B4EBC30F6CD0082C04F1FF32E0
:1022900015D89DF8203023FA02F2D10706D54FF069
:1022A000FF3202FA04F423438DF820309DF82030E9
:1022B00089F800304EE00123E1E70223DFE7102C2C
:1022C00011D8BDF8203023FA02F2D20706D54FF01C
:1022D000FF3202FA04F42343ADF82030BDF8203079
:1022E000A9F8003036E0202C0ED8089921FA02F225
:1022F000D30705D54FF0FF3303FA04F40C430894D9
:10230000089BC9F8003025E0402C1CD0DDE90867A7
:1023100030463946FDF724FF002100F0010050EA65
:1023200001030BD0224601200021FDF725FF40428A
:1023300061EB410106430F43CDE90867DDE908235E
:10234000C9E9002306E0174B154A4FF42071BDE69A
:102350006FF0010528460BB0BDE8F08F1D46F9E788
:10236000012CA3D0082CA1D9102CB7D9202CE5D84A
:10237000C6E700BF0C460008E445000874480008A2
:102380002E4600081B460008534600087B460008FE
:10239000A2460008D0460008E846000802470008A8
:1023A000644500080047000830B585B030B940F2F8
:1023B000B121234B234A244801F070FD23B9234B5C
:1023C000204A40F2B221F6E7402A04D9204B1D4AA8
:1023D00040F2B621EFE722B91D4B1A4A4FF42F7194
:1023E000E9E70024012A0294039417D11B788DF8A1
:1023F000083053070AD004AB03EBD20313F8084CA0
:10240000554205F00705AC4003F8084C009103461F
:10241000002102A8FFF730FB05B030BD082AE5D93E
:10242000102A03D81B88ADF80830E2E7202A02D82A
:102430001B680293DDE7D3E90045CDE90245D8E703
:102440003C470008784500087448000857470008D2
:102450000047000870B50C4600F10C05E16819B999
:10246000A1602161A18270BD0E682846FFF7BAFA0B
:10247000E660F3E72DE9F04FD1F8009091B0C9F391
:10248000C01604460D46CDE90223002E50D0C9F3F4
:10249000C03BC9F30626B9F1000F80F29F8119F005
:1024A000C04F40F09B812B7B002B00F09781BBF14C
:1024B000020F03D02278B24240F0938109F07F02EC
:1024C000BBF1020F059236D119F07F0FC9F30F2A25
:1024D00001D10AF0030A2B447606059A93F803808B
:1024E00046EA0B4646EA82465FEAD81346EA0A06FF
:1024F000069300F09A800022002310A961E90823C6
:10250000059B6768009352465B462046B847002803
:1025100000F08880A7698FB9314604F10C00FFF7FD
:10252000DBF90746D0B96FF0020011B0BDE8F08FBB
:102530004FF0020BAFE7C9F3074ACCE73B699E4275
:102540000DD03F68002FF9D1314604F10C00FFF7A0
:10255000C3F907460028E6D0A3693B60A761DDE91F
:102560000801FFF7D3FAB882F97D08F01F06C1F31E
:102570008401711A89B20FFA81FEBEF1000FB8BF53
:1025800001F1200EC9F30461D7E90223B8BF0FFAA5
:102590008EFE079152EA030100F02F81DDE902016E
:1025A000801A61EB03010B46002102469E489942C6
:1025B00008BF9042C0F02181069B002B3FD0BEF1A6
:1025C000010F00F31A8118F0400F38D0DDE9022323
:1025D000C7E90223202200210DEB0200FFF71AF9C0
:1025E000DDE90223CDE908232B1D0A932B7B20462E
:1025F000013BDBB2ADF834309DF81C30ADF836A0AD
:102600008DF83A309DF814308DF838B08DF83B30A5
:102610008DF83960A36808A998473846FFF70CFA87
:10262000002082E76FF00B007FE7A76917B96FF012
:102630000C007AE73B699E4296D03F68F6E7FB7D47
:10264000C8F34012B2EBD31F40F0CE80C3F3840333
:10265000B34240F0CC8006992B7B4FEA981279B3B5
:10266000D2073CD4032B40F2C580DDE90223C7E941
:1026700002232B7BAE1D033BDBB23246394604F10D
:102680000C00FFF729FB002808DA39462046FFF73F
:10269000BFF93846FFF7D0F9032046E7AB883B8304
:1026A0002A7B033AD2B2B88A3146FFF755FAFB7D4E
:1026B000B882DA43C2F3C01262F3C713FB75AFE707
:1026C0006AB92E1D013BDBB23246394604F10C00DB
:1026D000FFF702FB0028D8DB2A7B013AE2E7FA8AFF
:1026E000013BC2F30902052AD9B250D80023281DA4
:1026F00099420AD907EB020E10F801CB01320133DF
:10270000062A8EF81AC0DBB2F2D18B4228BF002312
:10271000DDE9028907F11A02CDE908890A927A688F
:102720003CBF04335B190B920C93FB8AADF836A0C7
:10273000C3F3090319449DF81C30ADF834108DF82B
:102740003A309DF814308DF838B08DF83B300023C6
:102750008DF839607B602A7BB88A013A291DFFF722
:10276000FBF93B8BB882834203D1A36808A92046BA
:10277000984708A92046FFF76DFE3846FFF75CF939
:10278000B88A3B8B984214BF11200020CDE67868B0
:1027900010B34FF0060E03689BB9A2EB0E021B2A82
:1027A00013D80332024405F1040E1F309942ACD90C
:1027B0001EF801CB013302F801CF9042DBB2F5D114
:1027C000A3E70EF11C0E1846E5E7184B184A40F235
:1027D000B311184801F062FB034696E76FF0090059
:1027E000A3E66FF00A00A0E66FF00D009DE66FF023
:1027F0000E009AE66FF00F0097E6FB7D394668F30E
:1028000086036FF3C713FB752046FFF701F9069B9C
:10281000002B7FF4D8AEFB7DC3F38402013262F358
:102820008603FB7503E700BF80841E006C47000829
:10283000504500087448000802684368114301606D
:1028400003B11847704700002DE9F0414E4EB042E9
:1028500040F086804D4CDFF838E1E56945F00075C1
:10286000E561E469446DD4F8007207EA0E0747F0A9
:102870000107C4F80072D4F8005205EA0E0545F0CD
:10288000010545EA0121C4F80012002A6AD000219E
:102890000F46C4F81C12C4F80412C4F80C12C4F891
:1028A000141204EBC10501310E29C5F84072C5F8B8
:1028B0004472F6D14FF0000E4FF0010C964510D146
:1028C000426DB042D2F8003223F00103C2F8003268
:1028D00058D12E4BDA6922F00072DA61DB69BDE86B
:1028E000F0819F781D8817F0010F18BFD4F804827B
:1028F0000CFA05F11CBF41EA0808C4F8048217F07D
:10290000020F18BFD4F80C8204EBC5051CBF41EAC6
:102910000808C4F80C827F0748BFD4F8147203F18A
:102920000C0344BF0F43C4F8147253F8087C0EF133
:10293000010EC5F8407253F8047CC5F84472D4F80F
:102940001C522943C4F81C12B8E70021446DC4F896
:102950001C12C4F80412C4F80C12C4F81412A9E72B
:10296000002AF2D10022436DC3F84022C3F844226A
:10297000C3F80422C3F814220122C3F80C22C3F8BE
:102980001C229DE7BDE8F081B82200200010024023
:102990000000FFFF184B10B55A6D936813F0010447
:1029A000936005D013F00C0F14BF4FF48034012452
:1029B000D90506D513F4406F14BF44F4003444F035
:1029C0000204DA0306D513F4402F14BF44F4802424
:1029D00044F00404202383F311880021074800F009
:1029E00049FE21460648FFF727FF002383F311889D
:1029F000BDE8104000F0F8BFB8220020C02200203F
:102A0000DC22002038B5154C636DDD68AA0713D0B1
:102A10005A6922F002025A61202383F311880021AF
:102A200004F1100000F026FE012104F11800FFF768
:102A300003FF002383F31188EB060BD51021636D90
:102A4000D960202383F311880548FFF7F5FE0023A2
:102A500083F31188BDE8384000F0C6BFB8220020DB
:102A6000E822002038B5154C636D1D69AA0713D004
:102A70005A6922F010025A61202383F31188002141
:102A800004F1100000F0F6FD022104F11800FFF738
:102A9000D3FE002383F31188EB060BD51021636D61
:102AA0001961202383F311880548FFF7C5FE002331
:102AB00083F31188BDE8384000F096BFB8220020AB
:102AC000E822002038B5144C636D5D682A075D600C
:102AD00010D52046032200F8482B1A6822F0020283
:102AE0001A60202383F311880021FFF7A5FE00233D
:102AF00083F311886B070BD5636D9969202383F3EA
:102B0000118806480904FFF797FE002383F3118814
:102B1000BDE8384000F068BFB8220020E82200205D
:102B200010B50F4C204600F03FFA0E4B0B2113203E
:102B3000636500F019FA0B21142000F015FA0B213F
:102B4000152000F011FA0B21162000F00DFA0023D9
:102B50002046BDE810401A460E21FFF775BE00BFA3
:102B6000B8220020006400400F4B10B59842044684
:102B700005D10E4BDA6942F00072DA61DB6901229D
:102B8000636D1A60636D5A68D20707D56268516831
:102B90001268D9611A60064A5A6110BD01210820E5
:102BA00000F09CFCEEE700BFB822002000100240BD
:102BB0005B87010003291AD8DFE801F0020A0F142D
:102BC000436D9B6813F0E05F14BF01200020704745
:102BD000436D9868C0F380607047436D9868C0F398
:102BE000C0607047436D9868C0F300707047002064
:102BF0007047000010B503291FD8DFE801F0021F5D
:102C00002327416D8B68C3F30163183301EB031372
:102C1000107881061ED55468C0F30011490041EABE
:102C2000C40141F0040100F00F005860906841F0C9
:102C300001019860D268DA60196010BD436D03F538
:102C4000C073E5E7436D03F5C873E1E7436D03F532
:102C5000D073DDE79488C0F30011490041EA445184
:102C6000E1E7000001290CD003D3022910D0002095
:102C70007047436DDA68920701D1186903E00120BB
:102C80007047436DD86810F0030018BF01207047EB
:102C9000436DF2E710B539B9436DD96889071BD187
:102CA0001B699B0704D110BD012915D0022948D109
:102CB000416DD1F8C031D1F8C401D1F8C8411461D7
:102CC000D1F8CC41546120240C610C69A40717D1C0
:102CD0004C6944F0100412E0416DD1F8B031D1F8E4
:102CE000B401D1F8B8411461D1F8BC415461202439
:102CF000CC60CC68A40703D14C6944F002044C6159
:102D000011795C0864F304119C0864F34511117196
:102D100089064BBF91681189DB085B0D4CBF63F3DB
:102D20001C0163F30A01137948BF916060F3030348
:102D300013714FEA10234FEA104058BF11811370EE
:102D4000508010BD00231A4610B51C495A50CC18AB
:102D50000833802B6260F9D1194B9A6942F07D02E9
:102D60009A619B690268174BDA6082685A60426810
:102D70001A60C26803F58063DA6042695A600269CA
:102D80001A608269C3F80C24026AC3F80424C26979
:102D9000C3F80024426AC3F80C28C26AC3F80428A6
:102DA000826AC3F80028026BC3F80C2C826BC3F84C
:102DB000042C426BC3F8002C10BD00BF1023002070
:102DC000001002400008014002684368114301609E
:102DD00003B1184770470000024AD36843F0C003AC
:102DE000D360704700380140024AD36843F0C00303
:102DF000D3607047004400402DE9F041D0F89C605A
:102E00000546F7683368DA059CB20DD5202383F3B5
:102E100011884FF400710430FFF7D6FF6FF4807310
:102E20003360002383F31188202383F3118805F195
:102E3000040814F02F0333D183F31188380615D515
:102E4000210613D5202383F3118805F1380000F003
:102E500039FA002846DA0821281DFFF7B5FF4FF69A
:102E60007F733B40F360002383F311887A060ED50D
:102E700063060CD5202383F31188EA6C2B6D9A42EC
:102E800002D12B6C002B2FD1002383F31188D5F8AE
:102E9000A420D368002B31D0BDE8F0411069184759
:102EA000230713D014F0080F0CBF00218021E00786
:102EB00048BF41F02001A20748BF41F0400163072D
:102EC00048BF41F480714046FFF77EFFA406736857
:102ED00005D595F8A0102846194000F093FA3468FB
:102EE000A4B2A6E77060BEE727F040073F041021B8
:102EF000281D3F0CFFF768FFF760C5E7BDE8F081CC
:102F000008B50348FFF778FFBDE8084000F06CBD46
:102F10009023002008B50348FFF76EFFBDE8084086
:102F200000F062BD3824002010B5094C094A204643
:102F3000002100F047FA084B084AC4F89C30084CBE
:102F40000021204600F03EFA064BC4F89C3010BD2C
:102F500090230020D92D000800380140E92D0008F9
:102F6000382400200044004000F16043090103F5CB
:102F70006143C9B283F80013012300F01F02400926
:102F8000800000F16040934000F56140C0F880315E
:102F900003607047090100F16040C9B200F56D405F
:102FA00001767047FFF7BCBD01230370002300F1D9
:102FB00008028260C26000F11002836143604362D4
:102FC000026103634261C363C36103628362C362DC
:102FD00043638363036443648364C364036570472A
:102FE00010B52023044683F3118802234160037047
:102FF000FFF7BAFD03232370002383F3118810BD6C
:103000002DE9F0411F4604460D461646202383F362
:10301000118800F108082378042B0ED02946204699
:10302000FFF7C8FD48B1204632462946FFF7E2FDCA
:10303000002080F31188BDE8F0813946404600F059
:10304000FDFA0028E7D0002383F31188BDE8F08162
:103050002DE9F0411F4604460D461646202383F312
:10306000118800F110082378042B0ED02946204641
:10307000FFF7F8FD48B1204632462946FFF70AFE21
:10308000002080F31188BDE8F0813946404600F009
:10309000D5FA0028E7D0002383F31188BDE8F0813A
:1030A000F8B5154682680B46AA428169066938BFA1
:1030B0008568761AB542044607D218462A46FEF7B6
:1030C00097FBA3692B44A3610DE011D93246184642
:1030D000FEF78EFBAF1B3A46E1683044FEF788FBF3
:1030E000E2683A44A261A36828465B1BA360F8BD6E
:1030F00018462A46FEF77CFBE368E4E72DE9F04139
:103100000446154683682669934238BF856840693E
:103110000F46361AB54206D22A46FEF769FB6369A6
:103120002B4463610DE012D93246A5EB0608FEF789
:103130005FFB4246B919E068FEF75AFBE268424479
:103140006261A36828465B1BA360BDE8F0812A4644
:10315000FEF74EFBE368E4E710B50024C361029B71
:103160000A44006040608460C16081614161026125
:10317000036210BD08B582694369934201D1826838
:1031800082B98268013282605A1C426119704269B8
:1031900003699A4201D3C3684361002100F05EFADB
:1031A000002008BD4FF0FF3008BD000070B520239F
:1031B00004460E4683F31188A568A5B1A368A269E9
:1031C000013BA360531CA36115782269934224BF7D
:1031D000E368A361E3690BB120469847002383F3BA
:1031E0001188284670BD3146204600F027FA002895
:1031F000E2DA85F3118870BD2DE9F74F05460F46D9
:1032000090469A46D0F81C90202686F311884FF0FD
:10321000000B144664B1224639462846FFF740FFAA
:10322000034668B95146284600F008FA0028F1D054
:10323000002383F31188A8EB040003B0BDE8F08FEE
:10324000B9F1000F03D001902846C847019B8BF3CA
:103250001188E41A1F4486F31188DBE7C361009BE1
:10326000C160816141611144006040608260016120
:1032700003627047F8B504460E461746202383F3D1
:103280001188A568A5B1A368013BA36063695A1CB6
:1032900062611E70236962699A4224BFE3686361B8
:1032A000E3690BB120469847002080F31188F8BDF0
:1032B0003946204600F0C2F90028E2DA85F3118889
:1032C000F8BD00008369426910B59A4201D1826855
:1032D0007AB98268013282605A1C82611C78036963
:1032E0009A4201D3C3688361002100F0B7F92046F8
:1032F00010BD4FF0FF3010BD2DE9F74F05460F46CA
:1033000090469A46D0F81C90202686F311884FF0FC
:10331000000B144664B1224639462846FFF7EEFEFC
:10332000034668B95146284600F088F90028F1D0D4
:10333000002383F31188A8EB040003B0BDE8F08FED
:10334000B9F1000F03D001902846C847019B8BF3C9
:103350001188E41A1F4486F31188DBE7026843688A
:103360001143016003B11847704700001430FFF7A4
:1033700043BF00004FF0FF331430FFF73DBF0000A4
:103380003830FFF7B9BF00004FF0FF333830FFF798
:10339000B3BF00001430FFF709BF00004FF0FF314A
:1033A0001430FFF703BF00003830FFF763BF0000A1
:1033B0004FF0FF323830FFF75DBF0000002070474C
:1033C000FFF7B2BD0E4B37B5036000234360836047
:1033D000C3600123044615460374202200900B4667
:1033E00000F15C011430FFF7B7FE00942B46202259
:1033F00004F17C0104F13800FFF730FF03B030BD69
:10340000B048000838B5C36904460D461BB904210D
:103410000844FFF7A3FF294604F11400FFF7AAFEB2
:10342000002806DA201D4FF48061BDE83840FFF720
:1034300095BF38BD0022024B1B605B609A607047ED
:10344000E0240020002382680374054B1B68996800
:103450009142FBD25A680360426010605860704726
:10346000E024002008B5202383F31188037C032B7C
:1034700005D0042B0DD02BB983F3118808BD002291
:1034800043691A604FF0FF334361FFF7DBFF00230E
:10349000F2E790E80C001A6002685360F2E700005F
:1034A000002382680374054B1B6899689142FBD81E
:1034B0005A6803604260106058607047E024002042
:1034C000054B196908741868026853601A6018611E
:1034D00001230374FDF7D2BAE024002030B54B1C61
:1034E00087B005460A4C10D023690A4A01A800F0AB
:1034F000DDF82846FFF7E4FF049B13B101A800F0B4
:10350000EFF82369586907B030BDFFF7D9FFF8E736
:10351000E02400206534000838B50C4D41612B696A
:1035200081689A680446914203D8BDE83840FFF7A5
:1035300089BF1846FFF786FF01232C6101462374DB
:103540002046BDE83840FDF799BA00BFE0240020CE
:10355000044B1A681B6990689B68984294BF0020CE
:1035600001207047E024002010B5084C2368206932
:103570001A6854602260012223611A74FFF790FFD9
:1035800001462069BDE81040FDF778BAE02400202C
:1035900008B5FFF7DDFF18B1BDE80840FFF7E4BF4D
:1035A00008BD00008260022202740022427470474B
:1035B0008368A3F13C0243F80C2C026943F83C2CCD
:1035C000426943F8382C074A43F81C2CC268A3F11F
:1035D000180043F8102C022203F8082C002203F8EC
:1035E000072C70478D0A000810B5202383F311883B
:1035F000FFF7DEFF00210446FFF78EFF002383F371
:103600001188204610BD0000024B1B6958610F2035
:10361000FFF756BFE0240020202383F31188FFF733
:10362000F3BF000008B50146202383F3118808206A
:10363000FFF754FF002383F3118808BD49B1064BFF
:1036400042681B6918605A60136043600420FFF7EA
:1036500045BF4FF0FF307047E024002003689842D8
:1036600006D01A680260506059611846FFF7EABE3A
:103670007047000038B504460D462068844200D1EA
:1036800038BD036823605C604561FFF7DBFEF4E74B
:10369000054B03F114025A619A614FF0FF32DA616F
:1036A00000221A62704700BFE024002010B5C260FB
:1036B0000A4A036153699C68A1420CD85C680360A4
:1036C00044602060586081609868411A99604FF0AA
:1036D000FF33D36110BD091B1B68ECE7E024002019
:1036E000036881689A680A449A60426813600368B4
:1036F0005A6000234FF0FF32C360014BDA6170471C
:10370000E024002000207047FEE700007047000022
:103710004FF0FF3070470000BFF34F8F024AD3686D
:10372000DB07FCD4704700BF0020024008B5074B00
:103730001B7853B9FFF7F0FF054B1A69120641BF1A
:10374000044A5A6002F188325A6008BD30250020D0
:10375000002002402301674508B5054B1B7833B9AB
:10376000FFF7DAFF034A136943F08003136108BDD2
:1037700030250020002002407F289ABF00F500304D
:1037800080020020704700004FF480607047000006
:10379000802070477F2808B50BD8FFF7EDFF00F5B4
:1037A00080630268013204D104308342F9D10120E0
:1037B00008BD002008BD00007F2810B504461CD8B5
:1037C000FFF7AAFFFFF7B2FFF3220D4BDA600222E8
:1037D0001A61FFF7D1FF58611A6942F040021A617D
:1037E000FFF79AFF4FF4806100F0E0F8FFF7B4FFB5
:1037F0002046BDE81040FFF7CDBF002010BD00BF40
:10380000002002402DE9F84312F00103144606D0CF
:1038100040F236221F4B1A600020BDE8F88385185D
:103820001D4A954204D940F23B211A4A1160F3E740
:10383000FFF77CFFFFF770FF4FF00109DFF86880AA
:10384000451A012C05EB01060F4604D8FFF784FF4B
:103850000120BDE8F883C8F8109031F8023B3380AE
:10386000FFF75AFF0020C8F8100033883A889BB24F
:103870009A420DD040F25222064B1A60074B1E604E
:10388000074B1C60074B1F60FFF766FFBDE8F8831E
:10389000023CD6E72C250020FFFF01082025002050
:1038A000282500202425002000200240084908B5D2
:1038B0000B7828B153B9FFF739FF01230B7008BD0E
:1038C00023B1BDE808400870FFF746BF08BD00BF40
:1038D0003025002038B500F02DF94FF47A730C49EB
:1038E0000C4A0C6A116803FB04F38B420A49D1E9C4
:1038F000004504D2003445F10105C1E90045E41852
:1039000045F10005136000F01FF92046294638BD37
:10391000E0240020342500203825002008B5FFF7DA
:10392000D9FF4FF47A720023FCF7B0FE08BD00BF48
:1039300010B5094C0439013AD2B2FF2A00D110BDAA
:1039400053089800043054F8233000599BB243EADE
:10395000004341F8043FEEE7046C004030B50748EF
:10396000013AD2B2FF2A00D130BD0D88540840F888
:103970002450A3004C8804331C50F1E7046C004031
:1039800007B5012201A90020FFF7D2FF019803B07B
:103990005DF804FB07B502A941F8040D01220020DF
:1039A000FFF7DCFF03B05DF804FB00007047000088
:1039B000034B1B689B0042BF0122024B1A707047E9
:1039C0002410024040250020014B1878704700BFAA
:1039D00040250020EFF30983203383F30988002377
:1039E00083F311887047000010B5202383F31188FA
:1039F0000D4B5B6813F4006312D0EFF309844FF0B2
:103A0000807344F8043CA4F1200383F30988FFF792
:103A10009FFD18B1054B44F8083C10BD044BFAE774
:103A200083F3118810BD00BF00ED00E09D0A00087F
:103A3000A00A000870470000FEE70000084A094B92
:103A400009498B4204D30021084A934205D37047A9
:103A500052F8040F43F8040BF3E743F8041BF4E7B0
:103A6000F4490008FC250020FC250020FC2500204E
:103A7000FEE7000010B5174CFFF7DCFCFFF708FE6F
:103A8000802215492046FFF78DFD012344F8180CCC
:103A90000374124B124AD96821F4E0610904090C3D
:103AA0000A431049DA60CA6842F08072CA600E495F
:103AB0000A6842F001020A601022DA77202283F8B5
:103AC0002220002383F3118862B6BDE81040074826
:103AD000FFF78ABD08250020D848000800ED00E067
:103AE0000003FA05F0ED00E0001000E0E0480008F7
:103AF000F8B50F4C226A01322262224652F8141F96
:103B00009142154606D020268B68013B8B60636985
:103B10009A6802B1F8BD1968DF68DA604D606161CA
:103B200082F311881869B84786F31188EFE700BF60
:103B3000E0240020EFF3118020B9EFF30583202269
:103B400082F311887047000010B558B9EFF305846F
:103B5000C4F3080414B180F3118810BDFFF718FDF9
:103B600084F3118810BD000000F030B808B500F0F3
:103B700063F9FFF77FFFBDE80840FFF719BF0000BA
:103B8000704700004FF0FF310E4B1A6919611A6936
:103B900000221A611869D868D960D968DA60DA68D1
:103BA000DA6942F08052DA61DA69DA6942F0006279
:103BB000DA61054ADB69136843F48073136000F02F
:103BC0001BB900BF0010024000700040194B1A687A
:103BD00042F001021A601A689007FCD51A6802F0D8
:103BE000F9021A6000225A605A6812F00C0FFBD1D9
:103BF0001A6842F480321A601A689103FCD55A6838
:103C000042F4E8125A601A6842F080721A601A6828
:103C10009201FCD51221084A5A60084A11605A687C
:103C200042F002025A605A6802F00C02082AFAD1E5
:103C3000704700BF0010024000641D0000200240D9
:103C4000084A08B5536911680B4003F0010353613A
:103C500023B1054A13680BB150689847BDE8084086
:103C6000FFF7C2BE0004014010230020084A08B537
:103C7000536911680B4003F00203536123B1054AF5
:103C800093680BB1D0689847BDE80840FFF7ACBE19
:103C90000004014010230020084A08B55369116848
:103CA0000B4003F00403536123B1054A13690BB1C0
:103CB00050699847BDE80840FFF796BE00040140F0
:103CC00010230020084A08B5536911680B4003F01F
:103CD0000803536123B1054A93690BB1D069984732
:103CE000BDE80840FFF780BE00040140102300201B
:103CF000084A08B5536911680B4003F0100353617B
:103D000023B1054A136A0BB1506A9847BDE80840D1
:103D1000FFF76ABE0004014010230020174B10B5C6
:103D20005C691A68144004F478725A61A30604D5D9
:103D3000134A936A0BB1D06A9847600604D5104ABB
:103D4000136B0BB1506B9847210604D50C4A936B4B
:103D50000BB1D06B9847E20504D5094A136C0BB13F
:103D6000506C9847A30504D5054A936C0BB1D06CF1
:103D70009847BDE81040FFF737BE00BF0004014080
:103D8000102300201A4B10B55C691A68144004F423
:103D90007C425A61620504D5164A136D0BB1506D11
:103DA0009847230504D5134A936D0BB1D06D9847FE
:103DB000E00404D50F4A136E0BB1506E9847A1046E
:103DC00004D50C4A936E0BB1D06E9847620404D5AB
:103DD000084A136F0BB1506F9847230404D5054A66
:103DE000936F0BB1D06F9847BDE81040FFF7FCBD53
:103DF0000004014010230020062108B50846FFF703
:103E0000B3F806210720FFF7AFF806210820FFF7D7
:103E1000ABF806210920FFF7A7F806210A20FFF7D3
:103E2000A3F806211720FFF79FF8BDE808400621F8
:103E30002820FFF799B8000008B5FFF7A3FE064851
:103E4000FEF780FFFFF7AEF8FFF7BAFAFFF798FE2C
:103E5000BDE8084000F002B80049000800F00EB8C4
:103E600008B5202383F31188FFF742FE002383F374
:103E70001188BDE80840FFF7B7BD0000054B064AB2
:103E800008215A6000229A6007220B201A60FFF76F
:103E900081B800BF10E000E03F1901001FB51C46CB
:103EA000094B05461B68D86852B1084B8DE80A00DB
:103EB00002922B4622460649FDF7B8FC00F042F874
:103EC000044B1A46F2E700BF141100203C490008D9
:103ED000494900083940000810B5013902449042B0
:103EE00001D1002010BD10F8013B11F8014FA34291
:103EF000F5D0181B10BD00002DE9F8430746884691
:103F000091461E468BB10D46A8EB0500B54207EB66
:103F1000000402D20020BDE8F8833246494620461C
:103F2000FFF7DAFF18B1013DEEE7BDE8F883204660
:103F3000BDE8F883034611F8012B03F8012B002A92
:103F4000F9D1704708B5062000F02CF80120FFF7E2
:103F5000DBFB00001F2938B504460D4604D91623A3
:103F600003604FF0FF3038BD426C12B152F821307F
:103F70004BB9204600F030F82A4601462046BDE8FD
:103F8000384000F017B8012B0AD0591C03D1162372
:103F90000360012038BD0024284642F82540984798
:103FA000002038BD024B01461868FFF7D3BF00BFA1
:103FB0001411002038B50023064C0546084611466A
:103FC0002360FFF7A5FB431C02D1236803B12B60DC
:103FD00038BD00BFF8250020FFF794BB40A2E4F1F4
:103FE000646891064E6F20617070207369670A00E3
:103FF000426164206677206C656E67746820257561
:104000000A0042616420617070204352432030787E
:10401000253038783A307825303878203078253097
:1040200038783A3078253038780A00476F6F642046
:104030006669726D776172650A000000726563657A
:10404000697665645F756E697175655F69645F6CDB
:10405000656E203C2055415643414E5F50524F54AF
:104060004F434F4C5F44594E414D49435F4E4F447F
:10407000455F49445F414C4C4F434154494F4E5F6B
:10408000554E495155455F49445F4D41585F4C4538
:104090004E475448002E2E2F2E2E2F546F6F6C73C8
:1040A0002F41505F426F6F746C6F616465722F6354
:1040B000616E2E63707000616C6C6F636174656417
:1040C0005F6E6F64655F6964203C3D20313237006C
:1040D0006F72672E6172647570696C6F742E617097
:1040E0005F70657269706800766F69642068616EE0
:1040F000646C655F616C6C6F636174696F6E5F7235
:104100006573706F6E73652843616E617264496E8A
:104110007374616E63652A2C2043616E6172645210
:10412000785472616E736665722A2900000000007F
:10413000963007772C610EEEBA51099919C46D07B4
:104140008FF46A7035A563E9A395649E3288DB0E0F
:10415000A4B8DC791EE9D5E088D9D2972B4CB609F2
:10416000BD7CB17E072DB8E7911DBF906410B71DCF
:10417000F220B06A4871B9F3DE41BE847DD4DA1A08
:10418000EBE4DD6D51B5D4F4C785D38356986C1339
:10419000C0A86B647AF962FDECC9658A4F5C0114B2
:1041A000D96C0663633D0FFAF50D088DC8206E3B90
:1041B0005E10694CE44160D5727167A2D1E4033CA2
:1041C00047D4044BFD850DD26BB50AA5FAA8B535C9
:1041D0006C98B242D6C9BBDB40F9BCACE36CD832B8
:1041E000755CDF45CF0DD6DC593DD1ABAC30D9265F
:1041F0003A00DE518051D7C81661D0BFB5F4B42162
:1042000023C4B3569995BACF0FA5BDB89EB802285E
:104210000888055FB2D90CC624E90BB1877C6F2FE3
:10422000114C6858AB1D61C13D2D66B69041DC76DE
:104230000671DB01BC20D2982A10D5EF8985B171B7
:104240001FB5B606A5E4BF9F33D4B8E8A2C9077866
:1042500034F9000F8EA8099618980EE1BB0D6A7FFD
:104260002D3D6D08976C6491015C63E6F4516B6BB6
:1042700062616C1CD83065854E0062F2ED95066C6B
:104280007BA5011BC1F4088257C40FF5C6D9B065E0
:1042900050E9B712EAB8BE8B7C88B9FCDF1DDD623D
:1042A000492DDA15F37CD38C654CD4FB5861B24DA3
:1042B000CE51B53A7400BCA3E230BBD441A5DF4A6D
:1042C000D795D83D6DC4D1A4FBF4D6D36AE9694330
:1042D000FCD96E34468867ADD0B860DA732D0444DB
:1042E000E51D03335F4C0AAAC97C0DDD3C71055006
:1042F000AA41022710100BBE86200CC925B56857AD
:10430000B3856F2009D466B99FE461CE0EF9DE5EF5
:1043100098C9D9292298D0B0B4A8D7C7173DB359A6
:10432000810DB42E3B5CBDB7AD6CBAC02083B8ED37
:10433000B6B3BF9A0CE2B6039AD2B1743947D5EA44
:10434000AF77D29D1526DB048316DC73120B63E373
:10435000843B64943E6A6D0DA85A6A7A0BCF0EE4D2
:104360009DFF099327AE000AB19E077D44930FF08D
:10437000D2A3088768F2011EFEC206695D5762F784
:10438000CB67658071366C19E7066B6E761BD4FEC1
:10439000E02BD3895A7ADA10CC4ADD676FDFB9F99E
:1043A000F9EFBE8E43BEB717D58EB060E8A3D6D660
:1043B0007E93D1A1C4C2D83852F2DF4FF167BBD18E
:1043C0006757BCA6DD06B53F4B36B248DA2B0DD891
:1043D0004C1B0AAFF64A0336607A0441C3EF60DF34
:1043E00055DF67A8EF8E6E3179BE69468CB361CB1D
:1043F0001A8366BCA0D26F2536E2685295770CCC42
:1044000003470BBBB91602222F260555BE3BBAC582
:10441000280BBDB2925AB42B046AB35CA7FFD7C273
:1044200031CFD0B58B9ED92C1DAEDE5BB0C2649B64
:1044300026F263EC9CA36A750A936D02A906099C97
:104440003F360EEB8567077213570005824ABF950A
:10445000147AB8E2AE2BB17B381BB60C9B8ED2928D
:104460000DBED5E5B7EFDC7C21DFDB0BD4D2D386E4
:1044700042E2D4F1F8B3DD686E83DA1FCD16BE8157
:104480005B26B9F6E177B06F7747B718E65A088828
:10449000706A0FFFCA3B06665C0B0111FF9E658FB9
:1044A00069AE62F8D3FF6B6145CF6C1678E20AA063
:1044B000EED20DD75483044EC2B30339612667A7E9
:1044C000F71660D04D476949DB776E3E4A6AD1AE38
:1044D000DC5AD6D9660BDF40F03BD83753AEBCA9C7
:1044E000C59EBBDE7FCFB247E9FFB5301CF2BDBD34
:1044F0008AC2BACA3093B353A6A3B4240536D0BA3D
:104500009306D7CD2957DE54BF67D9232E7A66B3D9
:10451000B84A61C4021B685D942B6F2A37BE0BB486
:10452000A18E0CC31BDF055A8DEF022D63616E61F6
:104530007264496E6974000063616E6172645365F0
:10454000744C6F63616C4E6F6465494400000000F9
:1045500063616E61726448616E646C655278467224
:10456000616D650063616E6172644465636F64656B
:104570005363616C6172000063616E617264456EC9
:10458000636F64655363616C61720000696E63728E
:10459000656D656E745472616E7366657249440030
:1045A000656E717565756554784672616D657300E9
:1045B00070757368547851756575650070726570B3
:1045C000617265466F724E6578745472616E73667F
:1045D00065720000636F707942697441727261792B
:1045E00000000000646573636174746572547261E5
:1045F0006E736665725061796C6F616400000000D3
:1046000066726565426C6F636B0000006269745F7F
:104610006C656E677468203E20300072656D61695C
:104620006E696E675F62697473203E203000696E48
:104630007075745F6269745F6F6666736574203E3F
:104640003D20626C6F636B5F6269745F6F66667357
:10465000657400626C6F636B5F656E645F62697442
:104660005F6F6666736574203E20626C6F636B5F7C
:104670006269745F6F66667365740072656D616907
:104680006E696E675F6269745F6C656E67746820DF
:104690003C3D2072656D61696E696E675F62697429
:1046A0007300696E7075745F6269745F6F666673BC
:1046B0006574203C3D207472616E736665722D3E98
:1046C0007061796C6F61645F6C656E202A203800C0
:1046D0006F75747075745F6269745F6F6666736519
:1046E00074203C3D2036340072656D61696E696EE0
:1046F000675F6269745F6C656E677468203D3D201A
:10470000300028726573756C74203E203029202695
:10471000262028726573756C74203C3D2036342940
:104720002026262028726573756C74203C3D20621B
:1047300069745F6C656E67746829000064657374E2
:10474000696E6174696F6E20213D202828766F693B
:1047500064202A2930290076616C756520213D206E
:104760002828766F6964202A293029006F666673CD
:1047700065745F77697468696E5F626C6F636B20E4
:104780003C2028333255202D205F5F6275696C74A0
:10479000696E5F6F66667365746F66202843616E2D
:1047A000617264427566666572426C6F636B2C2041
:1047B00064617461292900006F75745F696E7320EC
:1047C000213D202828766F6964202A29302900009D
:1047D0007372635F6C656E203E20305500000000F0
:1047E0002863616E5F696420262030783146464632
:1047F000464646465529203D3D2063616E5F69640B
:1048000000000000616C6C6F6361746F722D3E7309
:104810007461746973746963732E63757272656E03
:10482000745F75736167655F626C6F636B73203E65
:10483000203000007472616E736665725F69642077
:10484000213D202828766F6964202A29302900001C
:1048500073746174652D3E6275666665725F626C25
:104860006F636B73203D3D202828766F6964202A92
:10487000293029002E2E2F2E2E2F6D6F64756C651A
:10488000732F6C696263616E6172642F63616E6124
:1048900072642E63006974656D2D3E6672616D658C
:1048A0002E646174615F6C656E203E2030000000F4
:1048B000000000008933000875330008B133000898
:1048C0009D330008A93300089533000881330008A0
:1048D0006D330008BD3300086D61696E0000000093
:1048E000F848000848250020F825002001000000B5
:1048F000713A00080000000069646C650000000067
:104900000C1E0000887B8188B85789880000000051
:10491000888888848888888800000000888888883B
:104920008888888800000000888888888888888827
:104930000000000088888888888888882C20667510
:104940006E6374696F6E3A20006173736572746987
:104950006F6E2022257322206661696C65643A209F
:1049600066696C6520222573222C206C696E652097
:104970002564257325730A0044BDFF7F01000000F4
:10498000FFFFFFFF6400000000000000FE2A01009E
:10499000D2040000181100200000000000000000F8
:1049A0000000000000000000000000000000000007
:1049B00000000000000000000000000000000000F7
:1049C00000000000000000000000000000000000E7
:1049D00000000000000000000000000000000000D7
:1049E00000000000000000000000000000000000C7
:0849F0000000000000000000BF
:00000001FF
