:020000040800F2
:1000000000040020E5010008290F00082D0F00085A
:10001000810F00082D0F0008550F0008E7010008A8
:10002000E7010008E7010008E7010008D9270008F8
:10003000E7010008E7010008E7010008E701000800
:10004000E7010008E7010008E7010008E7010008F0
:10005000E7010008E70100082939000855390008C0
:1000600081390008AD390008D9390008E7010008D6
:10007000E7010008E7010008E7010008E7010008C0
:10008000E7010008E7010008E7010008E7010008B0
:10009000E7010008E7010008E7010008053A000849
:1000A000E7010008E7010008E7010008E701000890
:1000B00045370008E7010008E7010008E7010008EC
:1000C000E7010008E7010008E7010008E701000870
:1000D000E7010008091100081D110008E7010008E8
:1000E0006D3A0008E7010008E7010008E701000891
:1000F000E7010008E7010008E7010008E701000840
:10010000E7010008E7010008E7010008E70100082F
:10011000E701000831110008E7010008E7010008C5
:10012000E7010008E7010008E7010008E70100080F
:10013000E7010008E7010008E7010008E7010008FF
:10014000E7010008E7010008E7010008C52E0008E4
:10015000E7010008E7010008E7010008E7010008DF
:10016000E7010008E7010008E7010008E7010008CF
:10017000E7010008E7010008E7010008E7010008BF
:10018000E7010008E7010008E7010008E7010008AF
:10019000E7010008E7010008E7010008E70100089F
:1001A000E7010008E7010008E7010008E70100088F
:1001B000E7010008E7010008E7010008E70100087F
:1001C000E7010008E7010008E7010008E70100086F
:1001D000E7010008E7010008E7010008E70100085F
:1001E000090F000802E000F000F8FEE772B6394897
:1001F00080F30888384880F3098838484EF608515B
:10020000CEF20001086040F20000CCF200004EF691
:100210003471CEF200010860BFF34F8FBFF36F8FD0
:1002200040F20000C0F2F0004EF68851CEF200011C
:100230000860BFF34F8FBFF36F8F4FF00000E1EE08
:10024000100A4EF63C71CEF200010860062080F3E1
:100250001488BFF36F8F02F0FDFA03F009FA4FF034
:1002600055301F491B4A91423CBF41F8040BFAE745
:100270001C49194A91423CBF41F8040BFAE71A495C
:100280001A4A1B4B9A423EBF51F8040B42F8040B2A
:10029000F8E700201749184A91423CBF41F8040B87
:1002A000FAE702F0DBFA03F03FFA144C144DAC42CB
:1002B00003DA54F8041B8847F9E700F03FF8114CC3
:1002C000114DAC4203DA54F8041B8847F9E702F0F9
:1002D000C3BA000000040020002400200000000831
:1002E0000000002000040020D03E00080024002070
:1002F000282400202824002078410020E001000864
:10030000E4010008E4010008E40100082DE9F04FD1
:100310002DED108AC1F80CD0C3689D46BDEC108A43
:10032000BDE8F08F002383F311882846A047002002
:1003300001F0DCFE01F08CFE00DFFEE71A4B6FF0EF
:10034000780270B500241A700F225C709C70DC700B
:100350001C715C719C71DC711C725C729A72DC7233
:1003600002F010FA064602F031FA054650B90F4B7A
:100370009E4217D001339E4241F2883412BF054697
:1003800000240125002002F007FA0DB100F0B4F8B6
:1003900000F05CFD00F03EFC204600F00BF900F0A0
:1003A000ABF8F9E70446EDE728240020010007B088
:1003B00008B500F0ADFBA0F120035842584108BD3C
:1003C00007B5054B02211B88ADF8043001A800F0E9
:1003D0000BFC03B05DF804FB543B0008064991F8A0
:1003E000243033B100230822086A81F8243000F059
:1003F00033BC0120704700BF482400202DE9F84F8E
:10040000234C94F824300546884617468BBB2E466D
:10041000DFF87C90002F38D094F824A0BAF1000FB8
:1004200005D12022FF214846266200F0FDFCCAF1DA
:100430000805BD4228BF3D465FFA85FBAD00414639
:100440002A4604EB8A0000F0C5FC94F82430A7EBA0
:100450000B079B445FFA8BFBBBF1080F2E44A844AB
:10046000FFB284F824B0D5D1FFF7B8FF0028D1D16E
:1004700008E0266A06EB8306B042C9D0FFF7AEFF5C
:100480000028C4D10020BDE8F88F0120BDE8F88F16
:100490004824002010B5202383F311881248C36834
:1004A0000BB101F0A9FE0023104A0F484FF47A71F6
:1004B00001F066FE002383F311880D4C236813B10D
:1004C0002368013B2360636813B16368013B636089
:1004D000084B1B7833B9636823B9022000F070FC25
:1004E0003223636010BD00BF34240020950400084F
:1004F000782900207024002010B5254B254953F899
:10050000042F013200D110BD8B42F8D1224C234B75
:1005100022689A423AD9224B9B6803F1006303F5A3
:1005200080339A4232D2002000F08EFB1D4B022015
:10053000187000F03BFC1C4B1A6C00221A64196EF8
:100540001A66196E596C5A64596E5A665A6E5A690F
:1005500042F080025A615A6922F080025A615A6957
:100560001A6942F000521A611A6922F000521A61A7
:100570001B6972B60D4A0E4B13601B68226820215E
:1005800081F311889D4683F30888104710BD00BF92
:10059000FCFF00081C00010804000108FFFF000820
:1005A00028240020702400200038024008ED00E0DC
:1005B000000001082DE9F04F97B0B54C00902022C3
:1005C000FF210EA8A66800F02FFCB24A1378A346BC
:1005D000A3B9B1480121C3601170202383F31188AE
:1005E000C3680BB101F008FE0023AC4AAA484FF4DF
:1005F0007A7101F0C5FD002383F31188009BA84A9E
:1006000003B11360A749009F00230B705360994604
:100610001C461D469846DFF888A2012000F0C6FB64
:10062000002F00F03A82DAF80030002B40F03582DB
:1006300017B0BDE8F08F0220FFF7BAFE002840F0A7
:100640002382009BB9F1000F08BF1F46964B1B8801
:10065000ADF82430022109A800F0C6FADBE74FF418
:100660007A7000F055FA031E0193EADB0220FFF7CF
:100670009FFE82460028E4D0019B581E042800F209
:100680000582DFE800F0030E1114170016A80523F9
:1006900040F8343D042100F0A7FA54464FF000081A
:1006A00055E004217A48F6E704218048F3E7042165
:1006B0007F48F0E71C24204600F0C8FA0434099073
:1006C000042109A800F090FA2C2CF4D1E5E7002DC4
:1006D000B7D0002CB5D00220FFF76AFE05460028EF
:1006E00000F0D78101206F4C00F0AEFA022020709C
:1006F00000F05CFB4FF000095FFA89FA504600F009
:10070000B3FA074658B1504600F0BEFA09F10109A4
:100710000028F1D12C46A9460027664B97E7012314
:100720000220237000F038FB3E46DBF808309E4282
:1007300006D2304600F08AFA0130EBD10436F4E7F5
:10074000574B002626705E60A9462C46374600F0BF
:1007500073FB15B1002C18BF0027FFF731FE5AE7D5
:10076000002D3FF46EAF002C3FF46BAF4D4B0220D9
:10077000187000F01BFB322000F0CAF9B0F1000A3B
:10078000C0F287811AF0030540F08381DBF808206E
:1007900006EB0A03934200F27C81BAF5807F00F2F7
:1007A0007881454B019355450DDA4FF47A7000F08E
:1007B000AFF90290029A002AC0F26B81019B029A63
:1007C000EA540135EEE7C820FFF7F2FD05460028A0
:1007D00000F05F811F2E11D8C6F12004544528BFB8
:1007E00054460EAB26F0030022463349184400F06D
:1007F000F1FA2246FF21304800F016FB4FEAAA0A20
:100800005FFA8AF22C493046FFF7F8FD04460028CB
:1008100000F0418106EB8A06054698E70220FFF7C3
:10082000C7FD00283FF40DAFFFF7D8FD00283FF4C7
:1008300008AF00229246DBF808309A425AD21F2AAB
:100840001ED80E9B01331BD022F0030316A90B44C4
:1008500053F8203C0993194843688BB3174800218B
:100860000DF1240E11F80E3083EA0A03DBB20131D8
:1008700050F82330042983EA1A2AF3D10432DAE744
:100880001046019200F0E2F9019A0990E3E700BFF7
:10089000282400207425002034240020950400081A
:1008A0007829002070240020563B00082C240020CA
:1008B00030240020583B00087424002078250020B4
:1008C00019464FF0080E11F0010F4FEA51011FBFFA
:1008D00081F06D4181F4380181F4034181F0200100
:1008E000BEF1010EEFD140F823100133B3F5807F44
:1008F000E6D1B3E716A8042140F84CAD00F074F936
:1009000025E716A8002340F8343D642100F038F9AB
:1009100000287FF496AE0220FFF74AFD00283FF43E
:1009200090AE099800F0C2F916AB43F8480D0421C7
:100930001846E3E716A8002340F8343D642100F090
:100940001FF900287FF47DAE0220FFF731FD00285B
:100950003FF477AE099800F0B7F916AB43F8440DB1
:10096000E5E70220FFF724FD00283FF46AAE00F01F
:10097000B1F916AB43F8400DD9E70220FFF718FD97
:1009800000283FF45EAE09A9142000F0A9F98246C0
:1009900016A8042140F83CAD00F026F9514609A8FC
:1009A000ACE7322000F0B4F8B0F1000AFFF649AE2F
:1009B0001AF0030F7FF445AEDBF808200AEB0803BA
:1009C00093423FF63EAE0220FFF7F2FC00283FF4D0
:1009D00038AE2AF0030AC244C2453FF4B8AE4046DE
:1009E00000F034F90421089008A800F0FDF808F19F
:1009F0000408F1E74FF47A70FFF7DAFC00283FF4BF
:100A000020AEFFF7EBFC00283FF487AE0E9B0133CE
:100A10000CD008220EA90020FFF7F0FC00283FF4BC
:100A20007CAE2022FF210EA800F0FEF9FFF7C8FCE3
:100A3000364801F061FBFBE5002D3FF402AE002CCF
:100A40003FF4FFAD16A8002340F8343D642100F0C8
:100A500097F8824600287FF4F4AD0220FFF7A8FC47
:100A600000283FF4EEAD0190FFF7AAFC41F2883078
:100A700001F042FB099800F027FA00F0DDF9019B34
:100A800057461C461D46C6E5054660E64FF0000881
:100A9000D7E52546D5E52C463FE6002000F038F89E
:100AA0000290029B002BFFF6BBAD012000F074F911
:100AB000029B213B122B3FF6B0AD01A252F823F06E
:100AC000370600085F060008CF0600081B0600086E
:100AD0001B0600081B06000861070008A3090008A0
:100AE0001D0800080309000835090008630900080B
:100AF0001B0600087B0900081B060008F509000812
:100B00004F0700081B060008390A0008A0860100EC
:100B10002DE9F34702AE00244FF47A7506F8014D33
:100B2000144FDFF85880454397F900305A1C5FFA9C
:100B300084F901D0A34212D158F82400036801229D
:100B4000D3F820A031462B46D047012807D10A4BC5
:100B50009DF8070083F8009002B0BDE8F0870134EB
:100B6000042CE1D14FF4FA7001F0C6FA4FF0FF30D7
:100B7000F2E700BF0024002098290020983B0008DD
:100B80002DE9F0474FF47A75144FDFF85880064688
:100B90004D43002497F900305A1C5FFA84F901D0C4
:100BA000A34210D158F8240003680422D3F820A0EF
:100BB00031462B46D047042805D1094B83F80090D5
:100BC0000020BDE8F0870134042CE3D14FF4FA7023
:100BD00001F092FA4FF0FF30BDE8F08700240020CA
:100BE00098290020983B000830B4074B1A78074B2F
:100BF00053F822402368DD69054B0A46AC4601469E
:100C0000204630BC604700BF98290020983B000870
:100C1000A086010070B501F0B9FC094C094E2070A6
:100C2000002530682378834208D901F0A9FC336895
:100C300005440133B5F5803F3360F2D370BD00BF8A
:100C4000992900208029002001F04EBD00F10060AC
:100C500000F580300068704700F10060920000F5F8
:100C6000803001F0D9BC0000054B1A68054B1B7899
:100C70009B1A834202D9104401F082BC00207047C5
:100C8000802900209929002038B5074D044628689E
:100C9000204401F07DFC28B928682044BDE8384094
:100CA00001F08EBC38BD00BF8029002010F0030386
:100CB00008D1B0F5007F05D800F10050A0F508403C
:100CC0000068704700207047014BC058704700BF54
:100CD000107AFF1F014B1868704700BF002004E026
:100CE00070B52A4B1C68C4F30B03240C63B140F2AB
:100CF0001342934231D040F2194293422FD040F236
:100D0000214293422DD10323214A0C2505FB0323C5
:100D10005D6893F9082042F201039C4224D0B4F5A7
:100D2000805F23D041F201039C4221D041F20303B2
:100D30009C421FD041F207039C4208BF3122441E4F
:100D40000C44013D0B46A3421ED215F9016F581CFD
:100D500096B1034600F8016CF5E70123D4E70223BE
:100D6000D2E73F220B4DD6E73322E3E74122E1E70A
:100D70005A22E4E75922E2E72C2584421D7001D96A
:100D8000981C5A70401A70BD1846FBE7002004E01A
:100D9000683B00085C3B0008022802BF024B4FF092
:100DA00080629A61704700BF00080240022802BFBB
:100DB000024B4FF480629A61704700BF0008024006
:100DC000022801BF024A536983F48063536170476C
:100DD0000008024010B50023934203D0CC5CC454F9
:100DE0000133F9E710BD000030B5441E14F9010FBE
:100DF0000B4660B193F90050854201F1010106D123
:100E00001AB993F90020801A30BD013AEEE7002AA2
:100E1000F7D1104630BD000002460346981A13F978
:100E2000011B0029FAD1704702440346934202D0C5
:100E300003F8011BFAE77047024B1A78024B1A704D
:100E4000704700BF9829002000240020F8B5184CF6
:100E50001848194D194E174F00F096FC21461548B9
:100E600000F0BEFC24681648626DD2F8043843F0E6
:100E70000203C2F8043801F03FF92046114900F09E
:100E8000BBFD626DD2F8043823F00203C2F80438C7
:100E90004FF4E1332B60002456F82400B84202D00E
:100EA000294600F0CFFB0134042CF5D1F8BD00BF7A
:100EB000803C0008A837002084290020983B0008C7
:100EC00040420F00A83C000838B50B4B1A780B4B7A
:100ED00053F822400A4B9C4205460CD0094B002196
:100EE00018461422FFF7A0FF056001462046BDE822
:100EF000384000F0A7BB38BD98290020983B000877
:100F0000A83700208429002010B5054C14220021A8
:100F10002046FFF789FF01236370024B636010BD19
:100F20009C2900200A080240FEE7000000B59BB0A3
:100F3000EFF3098168226846FFF74CFFEFF3058362
:100F4000034B9A6B9A6A9A6A9A6A9A6A9B6AFEE754
:100F500000ED00E000B59BB0EFF309816822684620
:100F6000FFF738FFEFF30583044B9A6B9A6A9A6A8E
:100F70009A6A9A6A9A6A9B6AFEE700BF00ED00E0EF
:100F800000B59BB0EFF3098168226846FFF722FFA6
:100F9000EFF30583034B5A6B9A6A9A6A9A6A9A6AC4
:100FA0009B6AFEE700ED00E0002304491A465A5010
:100FB000C8180833802B4260F9D17047B02900204F
:100FC000026843681143016003B11847704700008D
:100FD000024AD36843F0C003D36070470010014059
:100FE000024AD36843F0C003D36070470044004016
:100FF000024AD36843F0C003D360704700500040FA
:101000002DE9F041D0F85C64F7683368DA050546ED
:101010009CB20DD5202383F311884FF40071043066
:10102000FFF7CEFF6FF480733360002383F31188E2
:10103000202383F3118805F1040814F02F0333D122
:1010400083F31188380615D5210613D5202383F3A1
:10105000118805F1380000F053FA002846DA08211B
:10106000281DFFF7ADFF4FF67F733B40F360002371
:1010700083F311887A060ED563060CD5202383F3FB
:101080001188EA6C2B6D9A4202D12B6C002B2FD168
:10109000002383F31188D5F86424D368002B31D062
:1010A0001069BDE8F0411847230713D014F0080F6A
:1010B0000CBF00218021E00748BF41F02001A207BA
:1010C00048BF41F04001630748BF41F4807140468A
:1010D000FFF776FFA406736805D595F860142846D7
:1010E000194000F0BDFA3468A4B2A6E77060BEE70C
:1010F00027F040073F041021281D3F0CFFF760FF39
:10110000F760C5E7BDE8F08108B50348FFF778FF51
:10111000BDE8084001F070BB302A002008B5034844
:10112000FFF76EFFBDE8084001F066BB982E002077
:1011300008B50348FFF764FFBDE8084001F05CBB59
:101140000033002010B50E4C0E4A2046002100F05E
:1011500057FA0D4BC4F85C340C4C0D4A2046002164
:1011600000F04EFA0B4BC4F85C340B4C0B4A0021D8
:10117000204600F045FA0A4BC4F85C3410BD00BFAD
:10118000302A0020D10F000800100140982E0020C6
:10119000E10F00080044004000330020F10F000878
:1011A0000050004038B5394D037C002918BF0D466A
:1011B000012B0446C0F8645410D1354B984242D1FB
:1011C000344B5A6C42F010025A645A6E42F01002CC
:1011D0005A665B6E0B21252000F06AF82E4BD4F87E
:1011E0005C249A422B6802D02C498A424BD12C496C
:1011F00001EB5301B1FBF3F3A988080442BF23F0CC
:10120000070003F0070343EA40039360EB8843F0D1
:1012100040039BB213612B8943F001039BB25361DE
:1012200041F4045343F02C03D36001F4A051002394
:101230001360B1F5806F136853680CBF7F23FF23E1
:1012400084F8603438BD174B98420CD1114B1A6C9E
:1012500042F400321A641A6E42F400321A661B6EAF
:101260000B212620B8E7104B9842B7D1094B1A6CD6
:1012700042F480121A641A6E42F480121A661B6ECF
:101280000B213520A8E70949B2E700BFC83B000899
:10129000302A0020003802400010014000140140B4
:1012A00000BD0105982E00200033002080DE800262
:1012B00000F1604300F01F02400903F5614309019A
:1012C0008000C9B200F1604083F8001300F561406E
:1012D00001239340C0F8803103607047F8B515468C
:1012E00082680669AA420B46816938BF8568761A0A
:1012F000B542044607D218462A46FFF76BFDA3699C
:101300002B44A3610DE011D932461846FFF762FD68
:10131000AF1B3A46E1683044FFF75CFDE2683A44AF
:10132000A261A3685B1BA3602846F8BD18462A4645
:10133000FFF750FDE368E4E783682DE9F0410446D8
:1013400093421546266938BF85684069361AB5420A
:101350000F4606D22A46FFF73DFD63692B446361C1
:101360000DE012D93246A5EB0608FFF733FD4246E1
:10137000B919E068FFF72EFDE26842446261A36894
:101380005B1BA3602846BDE8F0812A46FFF722FDDB
:10139000E368E4E710B50A440024C361029B0060DF
:1013A00040608460C160816141610261036210BD7F
:1013B00008B582694369934201D1826882B9826823
:1013C000013282605A1C42611970426903699A4273
:1013D00001D3C3684361002100F0AAFE002008BDCC
:1013E0004FF0FF3008BD000070B5202304460E46C4
:1013F00083F31188A568A5B1A368A269013BA36026
:10140000531CA36115782269934224BFE368A3614A
:10141000E3690BB120469847002383F311882846DF
:1014200070BD3146204600F073FE0028E2DA85F3F5
:10143000118870BD2DE9F74F05460F4690469A4634
:10144000D0F81C90202686F311884FF0000B14462C
:1014500064B1224639462846FFF740FF034668B983
:101460005146284600F054FE0028F1D0002383F3B3
:101470001188A8EB040003B0BDE8F08FB9F1000FAC
:1014800003D001902846C847019B8BF31188E41ACA
:101490001F4486F31188DBE7C16081614161C3614C
:1014A0001144009B006040608260016103627047EC
:1014B000F8B504460E461746202383F31188A56825
:1014C000A5B1A368013BA36063695A1C62611E70E9
:1014D000236962699A4224BFE3686361E3690BB1DF
:1014E00020469847002080F31188F8BD39462046F1
:1014F00000F00EFE0028E2DA85F31188F8BD000046
:10150000836942699A4210B501D182687AB98268CA
:10151000013282605A1C82611C7803699A4201D3AD
:10152000C3688361002100F003FE204610BD4FF028
:10153000FF3010BD2DE9F74F05460F4690469A46FD
:10154000D0F81C90202686F311884FF0000B14462B
:1015500064B1224639462846FFF7EEFE034668B9D5
:101560005146284600F0D4FD0028F1D0002383F333
:101570001188A8EB040003B0BDE8F08FB9F1000FAB
:1015800003D001902846C847019B8BF31188E41AC9
:101590001F4486F31188DBE702684368114301604A
:1015A00003B11847704700001430FFF743BF000035
:1015B0004FF0FF331430FFF73DBF00003830FFF726
:1015C000B9BF00004FF0FF333830FFF7B3BF000062
:1015D0001430FFF709BF00004FF0FF311430FFF760
:1015E00003BF00003830FFF763BF00004FF0FF3249
:1015F0003830FFF75DBF000000207047FFF7A2BD45
:1016000037B50F4B0360002343608360C360012341
:1016100004460374154600900B464FF4007200F127
:101620005C011430FFF7B6FE00942B464FF40072B5
:1016300004F5177104F13800FFF72EFF03B030BD39
:10164000DC3B000810B52023044683F31188FFF724
:10165000A9FD02232374002383F3118810BD000029
:1016600038B5C36904460D461BB904210844FFF789
:1016700093FF294604F11400FFF79AFE002806DACA
:10168000201D4FF48061BDE83840FFF785BF38BDAD
:10169000026843681143016003B1184770470000B6
:1016A00013B5446BD4F894341A681178042915D111
:1016B000217C022912D11979128901238B4013420E
:1016C0000CD101A904F14C0001F04CFED4F8944473
:1016D000019B21790246206800F0DAF902B010BDC2
:1016E000143001F0CFBD00004FF0FF33143001F093
:1016F000C9BD00004C3001F0A1BE00004FF0FF3327
:101700004C3001F09BBE0000143001F09DBD000084
:101710004FF0FF31143001F097BD00004C3001F064
:101720006DBE00004FF0FF324C3001F067BE00008C
:10173000D0F8942438B5136819780429054601D0E7
:10174000012038BD017C0229FAD112795C8901207F
:1017500090400440F4D105F1140001F02FFD024641
:101760000028EDD0D5F894544FF480732868697937
:1017700000F07CF9204638BD406BFFF7D9BF000070
:1017800000207047704700007FB5124B03600023B4
:1017900043608360C360012502260F4B0574044635
:1017A0000290019300F18402294600964FF4807361
:1017B000143001F0DFFC094B0193029400964FF4C2
:1017C000807304F52372294604F14C0001F0A6FD54
:1017D00004B070BD043C000879170008A116000889
:1017E0000B68202282F311880A7903EB8202906150
:1017F0004A79093243F822008A7912B103EB820355
:10180000986102230374C0F89414002383F31188B1
:101810007047000038B5037F044613B190F8543088
:10182000ABB9201D01250221FFF732FF04F114009E
:1018300025776FF0010100F087FC84F8545004F123
:101840004C006FF00101BDE8384000F07DBC38BDB0
:1018500010B5012104460430FFF71AFF0023237757
:1018600084F8543010BD000038B50446002514300B
:1018700001F098FC04F14C00257701F067FD201D74
:1018800084F854500121FFF703FF2046BDE838409B
:10189000FFF74EBF90F8443003F06003202B19D1BE
:1018A00090F84520212A0AD0222A4FF000030ED0BA
:1018B000202A0FD1084A82630722C26304E0064B44
:1018C00083630723C363002303640120704783639A
:1018D000C363F9E70020704701240020D0F8943456
:1018E00037B51A681178042904461AD1017C0229F7
:1018F00017D11979128901238B40134211D100F1BC
:101900004C05284601F0E2FD58B101A9284601F036
:1019100029FDD4F89444019B21790246206800F007
:10192000B7F803B030BD000000EB8103F7B59C6948
:1019300005460E46F4B1202383F3118805EB860794
:10194000201D0821FFF7A4FEFB685B691B684C346F
:1019500013B1204601F014FD01A9204601F002FD5B
:10196000024648B1019B3146284600F091F8002319
:1019700083F3118803B0F0BDFB685A691268002A2E
:10198000F5D01B8A013B1340F1D105F14402EAE78F
:10199000093138B550F82140DCB1202383F3118898
:1019A000D4F894241368527903EB8203DB689B69B3
:1019B0005D6845B104216018FFF76AFE294604F10D
:1019C000140001F005FC2046FFF7B2FE002383F36C
:1019D000118838BD7047000000F0C6BF01230370B6
:1019E00000234360C36183620362C3624362036393
:1019F000038143817047000038B50446202383F3F8
:101A0000118800254160C56005614561856100F070
:101A1000BBFF0223237085F3118838BD70B500EB3E
:101A2000810305465069DA600E46144618B110224B
:101A30000021FFF7F9F9A06918B110220021FFF782
:101A4000F3F931462846BDE8704001F067B8000060
:101A5000028902F001020281428902F00102428100
:101A6000002202614261826101F0ECB8F0B400EB47
:101A700081044789E4680125A4698D403D4345817F
:101A800023600023A2606360F0BC01F007B900008E
:101A9000F0B400EB81040789E468012564698D4096
:101AA0003D43058123600023A2606360F0BC01F028
:101AB00081B9000070B50223002504460370A0F828
:101AC0004C5080F84E5080F84F5005814581C560DC
:101AD00005614561856180F8345000F0BBFF6368A3
:101AE0001B6823B129462046BDE87040184770BDE9
:101AF000436802781B6880F85020052202700BB101
:101B00000421184770470000436890F850201B6874
:101B100002700BB1052118477047000090F834306F
:101B200070B5044613B1002380F8343004F1440248
:101B3000204601F0A9F863689B6863BB94F84450A1
:101B400015F0600615D194F8453005F07F0545EA9B
:101B5000032540F202339D4200F00E815BD8022D36
:101B600000F0DC803FD8002D00F08780012D00F0D0
:101B7000CF800021204601F0DFFA0021204601F04D
:101B8000D1FA63681B6813B10621204698470623E3
:101B900084F8343070BD204698470028CED094F8A1
:101BA0004B2094F84A3043EA0223E26B934238BF59
:101BB000E36394F94430E56B002B4FF0200380F28F
:101BC000FD80002D00F0EC80092284F8342083F39E
:101BD00011880021E36BA26B2046FFF759FF002319
:101BE00083F3118870BDB5F5817F00F0B180B5F544
:101BF000407F49D0B5F5807FBBD194F84630012BAA
:101C0000B7D1B4F84C3023F00203A4F84C30A663EB
:101C1000E6632664C3E740F201639D421ED8B5F532
:101C2000C06F3BD2B5F5A06FA3D1B4F84430B3F583
:101C3000A06F0ED194F8463084F84E30204600F064
:101C400061FF63681B6813B1012120469847032395
:101C500023700023A363E3632364A0E7B5F5106F4B
:101C600032D040F602439D4252D0B5F5006F80D18C
:101C700004F14F03A363012324E004F14C03A363A5
:101C80000223E36325648AE794F84630012B7FF44E
:101C900070AFB4F84C3043F00203B6E794F8492033
:101CA000616894F848304D6894F8471043EA02237D
:101CB000204694F84620A84700283FF45AAF4368CE
:101CC000A3630368E363A4E72378042B10D12023E4
:101CD00083F311882046FFF7BBFE86F31188636803
:101CE00084F84F601B68032121700BB12046984790
:101CF00094F84630002BACD084F84F300423237086
:101D000063681B68002BA4D0022120469847A0E7F7
:101D1000374BA3630223E36300239DE794F8481045
:101D200011F0800F204601F00F010ED000F09EFF51
:101D3000012806D002287FF41CAF2E4BA363E0637A
:101D400067E72D4BA363E56363E700F081FFEFE7EF
:101D500094F84630002B7FF40CAF94F8483013F021
:101D60000F013FF476AF1A06204602D501F0F8F9CC
:101D70006FE701F0EBF96CE794F84630002B7FF445
:101D8000F8AE94F8483013F00F013FF462AF1B0631
:101D9000204602D501F0D0F95BE701F0C3F958E71E
:101DA000142284F8342083F311882B462A462946CE
:101DB0002046FFF75BFE85F3118870BD5DB11522EB
:101DC00084F8342083F311880021E36BA26B204652
:101DD000FFF74CFE03E70B2284F8342083F31188CD
:101DE0002B462A4629462046FFF752FEE3E700BF6E
:101DF000343C00082C3C0008303C000838B590F812
:101E000034300446152B29D8DFE803F03E28282873
:101E100028283E28280B2939282828282828282837
:101E20003E3E90F84B1090F84A20C36B42EA0122E4
:101E30009A4214D9C268128AB3FBF2F502FB153537
:101E40006DB9202383F311882B462A462946FFF7D4
:101E50001FFE85F311880A2384F8343038BD14231B
:101E600084F83430202383F3118800231A4619465E
:101E70002046FFF7FBFD002383F3118838BD036C78
:101E800003B198470023E7E7002101F055F900214D
:101E9000204601F047F963681B6813B1062120460C
:101EA00098470623D8E7000090F83420152A38B563
:101EB000044622D80123934040F6416213421DD1CB
:101EC00013F480150FD19B0217D50B2380F8343003
:101ED000202383F311882B462A462946FFF7D8FD95
:101EE00085F3118838BDC3689B695B682BB9036CA7
:101EF00003B19847002384F8343038BD002101F045
:101F00001BF90021204601F00DF963681B6813B12D
:101F10000621204698470623EDE70000024B0022E9
:101F20001B605B609A607047683700200023037471
:101F30008268054B1B6899689142FBD25A6803601E
:101F400042601060586070476837002008B5202351
:101F500083F31188037C032B05D0042B0DD02BB900
:101F600083F3118808BD436900221A604FF0FF33E4
:101F70004361FFF7DBFF0023F2E790E80C001A60F3
:101F800002685360F2E70000002303748268054B87
:101F90001B6899689142FBD85A68036042601060E0
:101FA0005860704768370020054B19690874186835
:101FB00002681A605360186101230374FEF7A6B922
:101FC0006837002030B54B1C87B005460A4C10D04E
:101FD00023690A4A01A800F0D3F82846FFF7E4FF76
:101FE000049B13B101A800F007F92369586907B0F1
:101FF00030BDFFF7D9FFF8E7683700204D1F000814
:1020000038B50C4D41612B6981689A68914204464C
:1020100003D8BDE83840FFF789BF1846FFF786FFB1
:1020200001232C61014623742046BDE83840FEF7A9
:102030006DB900BF68370020044B1A681B699068AF
:102040009B68984294BF00200120704768370020A9
:1020500010B5084C236820691A6822605460012278
:1020600023611A74FFF790FF01462069BDE8104014
:10207000FEF74CB968370020826002220274002209
:10208000427470478368A3F17C0243F80C2C026908
:1020900043F83C2C426943F8382C074A43F81C2C7F
:1020A000C26843F8102C022203F8082C002203F81F
:1020B000072CA3F1180070472503000810B5202352
:1020C00083F31188FFF7DEFF00210446FFF798FF36
:1020D000002383F31188204610BD0000024B1B69CA
:1020E00058610F20FFF760BF68370020202383F37B
:1020F0001188FFF7F3BF000008B50146202383F3E2
:1021000011880820FFF75EFF002383F3118808BDC4
:1021100049B1064B42681B6918605A6013604360FE
:102120000420FFF74FBF4FF0FF30704768370020A3
:102130000368984206D01A680260506059611846D8
:10214000FFF7F4BE7047000038B504460D4620681E
:10215000844200D138BD036823605C604561FFF7AD
:10216000E5FEF4E7054B03F114025A619A614FF062
:10217000FF32DA6100221A62704700BF6837002020
:10218000F8B503614FF08043C2605C6A194B1A4690
:10219000022952F8145F38BF0221954206461F46B5
:1021A0000AD1586198611C62056045608160081918
:1021B000BDE8F84001F0ACB9186AAB68241A0C19F4
:1021C00002D3E41A2D6804E09C4202D2204401F0BC
:1021D000ADF9AB689C42F4D86B68736035601E60E3
:1021E0006E60B460A9684FF0FF33091BA960FB6102
:1021F000F8BD00BF6837002010B41B4C234653F8CD
:10220000141F814210D0416802680A600268516060
:102210009A424FF00001C16003D0936881680B447B
:1022200093605DF8044B70470A68626100209A422F
:102230005360C86003D15DF8044B01F071B9936835
:102240008868034493604FF08042206A526A121AF1
:102250009342E6D9991A012998BF931C18445DF856
:10226000044B01F063B900BF6837002000207047BD
:10227000FEE70000704700004FF0FF30704700009D
:10228000022906D0032906D00129064818BF0020DC
:10229000704705487047032A9ABF044800EBC20004
:1022A00000207047043D0008B83C000808240020C6
:1022B00070B59AB001AD064608462946144600F0AE
:1022C00095F82846FEF7A8FDC0B2431C5B0086E8DF
:1022D0001800237003236370002302341946DAB216
:1022E000904204F1020401D81AB070BDEA5C04F80F
:1022F000022C04F8011C0133F1E7000008B520238B
:1023000083F311880348FFF7E9FA002383F3118868
:1023100008BD00BFA837002010B50446052916D80F
:10232000DFE801F016150316161D202383F311882C
:102330000E4A0121FFF772FB20460D4A0221FFF7EA
:102340006DFB0C48FFF790FA002383F3118810BD52
:10235000202383F311880748FFF75CFAF4E7202372
:1023600083F311880348FFF773FAEDE7383C000860
:102370005C3C0008A837002038B50C4D0C4C0D49CA
:102380002A4604F10800FFF793FF05F1CA0204F1A1
:1023900010000949FFF78CFF05F5CA7204F1180017
:1023A0000649BDE83840FFF783BF00BF703C0020FE
:1023B00008240020883C0008923C00089D3C00084E
:1023C00070B5044608460D46FEF726FDC6B2204607
:1023D000013403780BB9184670BD32462946FEF722
:1023E00003FD0028F3D1012070BD00002DE9F84F56
:1023F00005460C46FEF710FD2B49C6B22846FFF7EE
:10240000DFFF08B10536F6B228492846FFF7D8FFA6
:1024100008B11036F6B2632E0DD8DFF88C80DFF8E5
:102420008C90234FDFF890A0DFF890B02E7846B95B
:102430002670BDE8F88F29462046BDE8F84F01F028
:1024400081BB252E2CD1072241462846FEF7CCFC25
:1024500058B9DBF800302360DBF804306360DBF848
:102460000830A36007350C34E0E7082249462846C7
:10247000FEF7BAFCA0B90F4BA21C13F8011F090903
:102480005345C95D02F8021C197801F00F0102F1F1
:102490000202C95D02F8031CEFD118340835C5E704
:1024A000267001350134C1E7243D00089D3C000839
:1024B000393D00080F7AFF1F1B7AFF1F2C3D0008D3
:1024C000BFF34F8F024AD368DB03FCD4704700BFD1
:1024D000003C024008B5094B1B7873B9FFF7F0FFC9
:1024E000074B1A69002ABFBF064A5A6002F18832B8
:1024F0005A601A6822F480621A6008BDCE3E00203D
:10250000003C02402301674508B50B4B1B7893B98B
:10251000FFF7D6FF094B1A6942F000421A611A68A8
:1025200042F480521A601A6822F480521A601A68C3
:1025300042F480621A6008BDCE3E0020003C02409A
:102540000B2870B513D80B4A0B4C137863B90B4E9C
:102550004FF0006144F8231056F8235001330C2B40
:102560002944F7D10123137054F8200070BD0020D6
:1025700070BD00BF003F0020D03E00204C3D000851
:10258000014B53F8200070474C3D00080C20704769
:102590000B2810B5044601D9002010BDFFF7D0FF6D
:1025A000064B53F824301844C21A0BB9012010BD51
:1025B00012680132F0D1043BF6E700BF4C3D000841
:1025C0000B2810B5044621D8FFF77AFFFFF782FFEA
:1025D0000F4AF323D360C300DBB243F4007343F02C
:1025E00002031361136943F480331361FFF768FF3B
:1025F000FFF7A6FF074B53F8241000F0D9F8FFF7B8
:1026000083FF2046BDE81040FFF7C2BF002010BD89
:10261000003C02404C3D00082DE9F84312F0010354
:10262000154640D18218B2F1016F3CD22C4B1B6889
:1026300013F0010337D02B4CFFF74CFFF323E3607B
:10264000FFF73EFF40F20127032D01D9830713D086
:10265000244C0F46401A40F20118EB1B0B44012B8F
:1026600000EB0706236924D823F001032361FFF759
:102670004BFF0120BDE8F883236923F440732361F5
:1026800023693B43236151F8046B0660BFF34F8F0E
:10269000FFF716FF03689E4208D0236923F0010369
:1026A0002361FFF731FF0020BDE8F883043D0430CB
:1026B000CAE723F440732361236943EA08032361D3
:1026C000B94637F8023B3380BFF34F8FFFF7F8FE70
:1026D0003688B9F80030B6B2B342BED0DDE700BFED
:1026E00000380240003C0240084908B50B7828B188
:1026F00053B9FFF7EFFE01230B7008BD23B1BDE80E
:1027000008400870FFF700BF08BD00BFCE3E0020A4
:1027100010B50244064B0439D2B2904200D110BD2C
:10272000441C00B253F8200041F8040FE0B2F4E773
:1027300050280040104B30B51C6F240407D41C6F88
:1027400044F400741C671C6F44F400441C670B4C79
:10275000236843F4807323600244094B0439D2B2E6
:10276000904200D130BD441C00B251F8045F43F8E0
:102770002050E0B2F4E700BF003802400070004093
:102780005028004007B5012201A90020FFF7C0FF33
:10279000019803B05DF804FB07B502A9012241F8D6
:1027A000040D0020FFF7C6FF03B05DF804FB000036
:1027B00070470000034B1B689B0042BF024B012285
:1027C0001A70704774380240013F0020014B18789E
:1027D000704700BF013F0020064A536823F0010301
:1027E0005360EFF30983683383F30988002383F38D
:1027F0001188704730EF00E010B5202383F3118873
:10280000104B5B6813F4006318D0F1EE103AEFF34D
:1028100009844FF0807344F84C3C0B4BDB6844F860
:10282000083CA4F1680383F30988FFF705FC18B19D
:10283000064B44F8503C10BD054BFAE783F3118872
:1028400010BD00BF00ED00E030EF00E035030008F0
:102850003803000870470000FEE70000084A094BF3
:1028600009498B4204D3094A0021934205D370479A
:1028700052F8040F43F8040BF3E743F8041BF4E7A2
:10288000F43E000878410020784100207841002083
:10289000836D30B500229D68446D11464FF0FF30C6
:1028A00004EB421301329542C3F80019C3F8101922
:1028B000C3F80809C3F8001BC3F8101BC3F8080BC2
:1028C000EED24FF00113C4F81C3830BD890141F03D
:1028D0002001016103699B06FCD4122000F0AEBE0A
:1028E000204B03EB80022DE9F047D2F80CE05D6D40
:1028F000DEF81420461CD2F800C005EB063605EBC6
:102900004018516861450BD3D5F83428012303FAE8
:1029100000F022EA0000C5F834081846BDE8F08748
:10292000BEF81040ACEB0103A34228BF2346D8F801
:102930001849A4B2B3EB840F10D894681F46A4F1D1
:10294000040959F804AFC6F800A0042F01D9043FC8
:10295000F7E71C440B4494605360D2E70020BDE8C5
:10296000F08700BF043F002010B5054C2046FFF75C
:1029700035F84FF0A0436365024BA36510BD00BF5F
:10298000043F0020A03D00080378012B70B50546E8
:1029900050D12A4B446D98421BD1294B5A6B42F0BF
:1029A00080025A635A6D42F080025A655A6D5A6924
:1029B00042F080025A615A6922F080025A610E2167
:1029C00043205B69FEF774FC1E4BE3601E4BC4F8AA
:1029D00000380023C4F8003EC02323606E6D4FF41E
:1029E0000413A3633369002BFCDA012333610C2049
:1029F00000F024FE3369DB07FCD4122000F01EFE39
:102A00003369002BFCDA0026A6602846FFF740FF5A
:102A10006B68C4F81068DB68C4F81468C4F81C68F4
:102A20004BB90A4BA3614FF0FF336361A36843F0D6
:102A30000103A36070BD064BF4E700BF043F002014
:102A4000003802404014004003002002003C30C027
:102A5000083C30C0F8B5446D054600212046FFF71C
:102A600035FFA96D00234FF001128F68C4F8343888
:102A70004FF00066C4F81C284FF0FF3004EB4312FF
:102A800001339F42C2F80069C2F8006BC2F808091E
:102A9000C2F8080BF2D20B686A6DEB656362102313
:102AA0001361166916F01006FBD1122000F0C6FD66
:102AB000D4F8003823F4FE63C4F80038A36943F463
:102AC000402343F01003A3610923C4F81038C4F86D
:102AD00014380A4BEB604FF0C043C4F8103B084B6E
:102AE000C4F8003BC4F81069C4F80039EB6D03F179
:102AF000100243F48013EA65A362F8BD7C3D000830
:102B000040800010426D90F84E10D2F8003823F447
:102B1000FE6343EA0113C2F8003870472DE9F04123
:102B20000EB200EB86080D46D8F80C100F6807F0BF
:102B30000303022B50D0032B50D03D4A3D4F012BB5
:102B400018BF1746446D4FEA451E04EB0E030022E2
:102B5000C3F8102B8A6905F1100C002A40D04A8A6C
:102B600005F158035B013A43E2500123D4F81C28D5
:102B700003FA0CF31343A6444A69C4F81C38002333
:102B8000CEF8103905F13F03002A39D00A8A898B23
:102B90009208012988BF4A43C16D04EB830356188C
:102BA00041EA0242C66529465A602046FFF78EFE7A
:102BB000D8F80C301B8A43EA85531F4305F14803BC
:102BC0005B01E7500123D4F81C2803FA05F51543EF
:102BD000C4F81C58BDE8F081174FB3E7174FB1E7B1
:102BE00004EB4613D3F8002B22F40042C3F8002B69
:102BF000D4F81C28012303FA0CF322EA0303BAE7F2
:102C000004EB83030E4A5A6004EB4616294620461D
:102C1000FFF75CFED6F8003923F40043C6F800390C
:102C2000D4F81C38012202FA05F523EA0505CFE79E
:102C300000800010008004100080081000800C103C
:102C400000040002826D1268C265FFF721BE000019
:102C50005831436D49015B5813F4004004D013F41C
:102C6000001F14BF01200220704700004831436D4F
:102C700049015B5813F4004004D013F4001F14BF43
:102C8000012002207047000000EB8101CB68196A27
:102C90000B6813604B6853607047000000EB8103C2
:102CA00030B5DD68AA691368D36019B9402B84BFB9
:102CB000402313606B8A1468426D1C44013CB4FBD2
:102CC000F3F46343033323F0030302EB411043EABD
:102CD000C44343F0C043C0F8103B2B6803F0030328
:102CE000012B09B20ED1D2F8083802EB411013F4CF
:102CF000807FD0F8003B14BF43F0805343F0005373
:102D0000C0F8003B02EB4112D2F8003B43F0044311
:102D1000C2F8003B30BD00002DE9F041244D6E6D3E
:102D200006EB40130446D3F8087BC3F8087B38074A
:102D30000AD5D6F81438190706D505EB84032146C1
:102D4000DB6828465B689847FA072FD5D6F8143811
:102D5000DB072BD505EB8403D968CCB98B69488A8E
:102D60005E68B6FBF0F200FB12628AB91868DA6896
:102D700090420DD2121A83E81400202383F31188A5
:102D80000B482146FFF78AFF84F31188BDE8F081E4
:102D9000012303FA04F26B8923EA02036B81CB68F7
:102DA00023B121460248BDE8F0411847BDE8F08153
:102DB000043F002000EB810370B5DD68436D6C6952
:102DC0002668E6604A0156BB1A444FF40020C2F858
:102DD00010092A6802F00302012A0AB20ED1D3F8C0
:102DE000080803EB421410F4807FD4F8000914BFE4
:102DF00040F0805040F00050C4F8000903EB42124C
:102E0000D2F8000940F00440C2F80009D3F83408B1
:102E1000012202FA01F10143C3F8341870BD19B957
:102E2000402E84BF4020206020682E8A841940F004
:102E30000050013C1A44B4FBF6F440EAC440C6E733
:102E4000F8B504461E48456D05EB4413D3F80869F0
:102E5000C3F80869F10717D5D5F81038DA0713D584
:102E600000EB8403D9684B691F68DA68974218D26F
:102E7000D21B00271A605F60202383F3118821464C
:102E8000FFF798FF87F31188330617D5D5F8342854
:102E90000123A340134211D02046BDE8F840FFF7BC
:102EA0001FBD012303FA04F2038923EA020303810D
:102EB0008B68002BE8D021469847E5E7F8BD00BFB6
:102EC000043F002096482DE9F84F456D6E69AB69C7
:102ED0001E4016F4805F6E61044605D0FEF7EAFDE1
:102EE000BDE8F84FFFF788BC002E12DAD5F8003E97
:102EF0008B489B071EBFD5F8003E23F00303C5F89F
:102F0000003ED5F8043823F00103C5F80438FEF775
:102F1000FBFD370502D58248FEF7EAFDB0040CD56B
:102F2000D5F8083813F0060FEB6823F470530CBF84
:102F300043F4105343F4A053EB60310704D56368A6
:102F4000DB680BB176489847F2025AD4B3020CD52D
:102F5000D4F85480DFF8C8A100274FF00109A36D11
:102F60009B68F9B28B4280F08780F70619D5616DB6
:102F70000A6AC2F30A1702F00F0302F4F012B2F564
:102F8000802F00F0A180B2F5402F0AD104EB83031B
:102F900001F58051DB68186A00231A469F4240F011
:102FA00087803003D5F8184813D5E10302D50020F7
:102FB000FFF7B2FEA20302D50120FFF7ADFE6303C7
:102FC00002D50220FFF7A8FE270302D50320FFF752
:102FD000A3FE750384D5E00702D50020FFF730FF7C
:102FE000A10702D50120FFF72BFF620702D50220BF
:102FF000FFF726FF23077FF573AF0320FFF720FFBE
:103000006EE7D4F85480DFF818A100274FF00109CB
:10301000A36D9B685FFA87FB5B4597D308EB4B1367
:10302000D3F8002902F44022B2F5802F22D1D3F840
:103030000029002A1EDAD3F8002942F09042C3F892
:103040000029D3F80029002AFBDB5946606DFFF701
:103050003DFC228909FA0BF322EA0303238104EBE6
:103060008B03DB689B6813B1594650469847584616
:10307000FFF736FC0137CBE708EB4112D2F8003BF3
:1030800003F44023B3F5802F10D1D2F8003B002B7E
:103090000CDA628909FA01F322EA0303638104EB83
:1030A0008103DB68DB680BB150469847013756E770
:1030B0009C0708BF0A68072B98BF027003F1010341
:1030C0009CBF120A013069E7023304EB830201F569
:1030D0008051526890690268D0F808C04068A2EB3D
:1030E000000E0022104697420AD104EB8304636865
:1030F0009B699A683A449A605A6817445F6050E73F
:1031000012F0030F08BF0868964588BF8CF80000CE
:1031100002F1010284BF000A0CF1010CE3E700BFD9
:10312000043F0020436D03EB4111D1F8003B43F411
:103130000013C1F8003B7047436D03EB4111D1F818
:10314000003943F40013C1F800397047436D03EBB5
:103150004111D1F8003B23F40013C1F8003B704744
:10316000436D03EB4111D1F8003923F40013C1F88A
:103170000039704730B5039C0172043304FB03250A
:10318000C361049B03630021059B00604060C16034
:10319000426102618561046242628162C16243638D
:1031A00030BD00000022416A41610161C26082625B
:1031B000C2626FF00101FEF7C7BF000003694269F8
:1031C000934203D1C2680AB100207047181D7047AE
:1031D00003691960C2680132C260C269134482691E
:1031E0000361934224BF436A03610021FEF7A0BF3D
:1031F00038B504460D46E3683BB16269131D126899
:10320000A3621344E362002038BD237A33B9294610
:103210002046FEF77DFF0028EDDA38BD6FF0010093
:10322000FBE70000C368C269013BC3604369134404
:1032300082694361934224BF436A436100238362EE
:10324000036B03B11847704770B52023044683F31E
:103250001188866A3EB9FFF7CBFF054618B186F3A1
:103260001188284670BDA36AE26A13F8015BA36265
:10327000934202D32046FFF7D5FF002383F3118842
:10328000EFE700002DE9F84F04460E4690469946B8
:10329000202787F311880025AA46D4F828B0BBF16F
:1032A000000F09D149462046FFF7A2FF20B18BF35A
:1032B00011882846BDE8F88FA16AE36AA8EB050BE0
:1032C0005B1A9B4528BF9B46BBF1400F1BD9334679
:1032D00001F1400251F8040B43F8040B9142F9D17B
:1032E000A36A40334036A3624035A26AE36A9A4239
:1032F00002D32046FFF796FF8AF311884545D8D2BE
:1033000087F31188C9E730465A46FDF763FDA36A83
:103310005B445E44A3625D44E7E7000010B5029C95
:103320000172043303FB0421C36100238362C3627F
:10333000039B0363049B00604060C46042610261C0
:10334000816104624262436310BD0000026AC26090
:10335000426A4261026100228262C2626FF0010130
:10336000FEF7F2BE436902699A4203D1C2680AB10C
:1033700000207047184650F8043B0B60704700006F
:10338000C368C2690133C3604369134482694361FE
:10339000934224BF436A43610021FEF7C9BE000087
:1033A00038B504460D46E3683BB123691A1DA26295
:1033B000E2691344E362002038BD237A33B9294619
:1033C0002046FEF7A5FE0028EDDA38BD6FF00100BB
:1033D000FBE7000003691960C268013AC260C26974
:1033E000134482690361934224BF436A036100234B
:1033F0008362036B03B118477047000070B5202348
:1034000004460E4683F31188856A35B91146FFF7E5
:10341000C7FF10B185F3118870BDA36A1E70A36A3F
:10342000E26A01339342A36204D3E169204604397E
:10343000FFF7D0FF002080F3118870BD2DE9F84F11
:1034400004460D4691469A464FF0200888F31188AD
:103450000026B346A76A4FB951462046FFF7A0FFA2
:1034600020B187F311883046BDE8F88FA06AE76A7B
:10347000A9EB06033F1A9F4228BF1F46402F1BD9C6
:1034800005F1400355F8042B40F8042B9D42F9D177
:10349000A36A4033A3624036A26AE36A9A4204D325
:1034A000E16920460439FFF795FF8BF311884E45FB
:1034B000D9D288F31188CDE729463A46FDF78AFC30
:1034C000A36A3B443D44A3623E44E5E70269436985
:1034D0009A4203D1C3681BB9184670470023FBE723
:1034E000836A002BF8D0043B9B1AF5D01360C368A5
:1034F000013BC360C3691A44836902619A4224BFD5
:10350000436A0361002383620123E5E700F02EB9DB
:103510004FF08043002258631A610222DA6070473C
:103520004FF080430022DA60704700004FF0804384
:1035300058637047FEE7000010B5174CFEF7EEFC2D
:10354000FEF710FE802215492046FEF795FD012367
:1035500044F8180C0374124B124AD96821F4E06144
:103560000904090C0A431049DA60CA6842F0807203
:10357000CA600E490A6842F001020A601022DA7736
:10358000202283F82220002383F3118862B60848A2
:10359000BDE81040FEF792BD90370020AC3D00081A
:1035A00000ED00E00003FA05F0ED00E0001000E09F
:1035B000B43D00082DE9F84F1F4C4FF00008656935
:1035C00004F11407C1464FF08043266A5B6AAA687B
:1035D0009E1B96421DD34FF0200AAA68236AD5F895
:1035E0000CB0134423622B68BB425F60A6EB02065B
:1035F0006361C5F80C8001D1FFF792FF89F3118850
:103600002869D8478AF311886569AB689E42E4D27D
:10361000D9E76269BA420CD0916823628E1B96602A
:10362000A86802282CBF1818981CBDE8F84FFFF7AF
:103630007DBFBDE8F88F00BF68370020034B596895
:103640005A68521A9042FBD8704700BF001000E041
:103650004B6843608B688360CB68C3600B694361D0
:103660004B6903628B6943620B680360704700001B
:1036700008B5224B22481A6940F2FF110A431A6129
:103680001A6922F4FF7222F001021A611A691A6B98
:103690000A431A631A6D0A431A651A4A1B6D1146CA
:1036A000FFF7D6FF184802F11C01FFF7D1FF1748BA
:1036B00002F13801FFF7CCFF154802F15401FFF782
:1036C000C7FF144802F17001FFF7C2FF124802F170
:1036D0008C01FFF7BDFF114802F1A801FFF7B8FF09
:1036E0000F4802F1C401FFF7B3FF0E4802F1E001F9
:1036F000FFF7AEFFBDE8084000F0A2B80038024076
:1037000000000240D43D00080004024000080240CE
:10371000000C024000100240001402400018024059
:10372000001C02400020024008B500F0F9F9FFF744
:1037300003FFFFF73FF8BDE80840FEF71DBE00009D
:10374000704700004FF0804310B51A69920708D502
:1037500000241C61202383F31188FFF72BFF84F3DF
:103760001188BDE81040FFF747B80000104B1A6CF5
:1037700042F001021A641A6E42F001021A660D4A02
:103780001B6E936843F0010393604FF08043532214
:103790009A624FF0FF32DA6200229A615A63DA606D
:1037A0005A6001225A6108211A601C20FDF780BD71
:1037B00000380240002004E01F4B1A696FEAC25231
:1037C0006FEAD2521A611A69C2F308021A614FF005
:1037D000FF301A695A69586100215A6959615A695A
:1037E0001A6A62F080521A621A6A02F080521A62F1
:1037F0001A6A5A6A58625A6A59625A6A1A6C42F0CC
:1038000080521A641A6E42F080521A661A6E0B4A7F
:10381000106840F480701060186F00F44070B0F5CC
:10382000007F1EBF4FF4803018671967536823F478
:103830000073536000F054B900380240007000403B
:10384000304B4FF080521A642F4A4FF440411160C0
:103850001A6842F001021A601A689207FCD59A6849
:1038600022F003029A60274B19469A6812F00C0264
:10387000FBD1186800F0F90018609A601A6842F4E9
:1038800080321A600B689B03FCD54B6F43F0010339
:103890004B671C4B5A6F9007FCD51C4A5A601A683C
:1038A00042F080721A60184A53685904FCD5154BCF
:1038B0001A689201FCD5164A9A60164B1A68164B84
:1038C0009A42164B1BD1164A1168164A914216D1DC
:1038D00040F205121A600B4B9A6842F002029A609D
:1038E0009A6802F00C02082AFAD15A6C42F480421B
:1038F0005A645A6E42F480425A665B6E704740F2D8
:103900000572E7E7003802400070004008544007A5
:1039100000948838002004E011640020003C02403C
:1039200000ED00E041C20F41084A08B55369116833
:103930000B4003F00103536123B1054A13680BB137
:1039400050689847BDE80840FEF756BF003C01406C
:10395000B0290020084A08B5536911680B4003F0EC
:103960000203536123B1054A93680BB1D0689847AD
:10397000BDE80840FEF740BF003C0140B0290020F0
:10398000084A08B5536911680B4003F004035361FA
:1039900023B1054A13690BB150699847BDE8084047
:1039A000FEF72ABF003C0140B0290020084A08B5B4
:1039B000536911680B4003F00803536123B1054AB2
:1039C00093690BB1D0699847BDE80840FEF714BF72
:1039D000003C0140B0290020084A08B5536911682D
:1039E0000B4003F01003536123B1054A136A0BB176
:1039F000506A9847BDE80840FEF7FEBE003C014013
:103A0000B0290020174B10B55C691A68144004F403
:103A100078725A61A30604D5134A936A0BB1D06A2F
:103A20009847600604D5104A136B0BB1506B98474A
:103A3000210604D50C4A936B0BB1D06B9847E20575
:103A400004D5094A136C0BB1506C9847A30504D5F3
:103A5000054A936C0BB1D06C9847BDE81040FEF757
:103A6000CBBE00BF003C0140B02900201A4B10B56E
:103A70005C691A68144004F47C425A61620504D5FA
:103A8000164A136D0BB1506D9847230504D5134AA0
:103A9000936D0BB1D06D9847E00404D50F4A136EB7
:103AA0000BB1506E9847A10404D50C4A936E0BB12C
:103AB000D06E9847620404D5084A136F0BB1506F5B
:103AC0009847230404D5054A936F0BB1D06F9847EC
:103AD000BDE81040FEF790BE003C0140B029002038
:103AE000062108B50846FDF7E3FB06210720FDF790
:103AF000DFFB06210820FDF7DBFB06210920FDF78F
:103B0000D7FB06210A20FDF7D3FB06211720FDF77E
:103B1000CFFB06212820BDE80840FDF7C9BB000007
:103B200008B5FFF749FEFDF73FFAFDF767FDFDF722
:103B300053FFFDF727FEFFF703FEBDE80840FFF740
:103B4000E5BC0000034611F8012B03F8012B002A05
:103B5000F9D17047121012131211000053544D3353
:103B600032463F3F3F000000000000005C3B000881
:103B70003F00000013040000A83B00083F000000C5
:103B800019040000B23B00083F00000021040000BF
:103B9000BC3B00083F000000A8370020302A00206E
:103BA000982E00200033002053544D3332463430D9
:103BB000780053544D3332463432780053544D33E9
:103BC0003246343436585800009600000000000099
:103BD00000000000000000000000000000000000E5
:103BE000C5150008B1150008ED150008D915000825
:103BF000E5150008D1150008BD150008A915000835
:103C0000F915000800000000FD160008E91600087C
:103C100025170008111700081D17000809170008CC
:103C2000F5160008E11600088117000800000000E2
:103C30000100000000000000020000000000000081
:103C4000291900089119000840004000403C00205C
:103C5000503C0020020000000000000003000000B3
:103C600000000000D519000800000000100000004E
:103C7000603C002000000000010000000000000087
:103C8000043F0020010102004172647550696C6FAD
:103C9000740025424F415244252D424C0025534586
:103CA0005249414C250000001923000881220008D8
:103CB00095180008FD22000843000000C03C0008E1
:103CC00009024300020100C032090400000102029F
:103CD0000100052400100105240100010424020252
:103CE0000524060001070582030800FF09040100FE
:103CF000020A0000000705010240000007058102DA
:103D000040000000120000000C3D000812011001EC
:103D1000020000408304405700020102030100003A
:103D20000403090425424F41524425004633354CD3
:103D3000696768746E696E670030313233343536C6
:103D400037383941424344454600000000400000F6
:103D500000400000004000000040000000000100A2
:103D6000000002000000020000000200000002004B
:103D7000000002000000020000000200000000003D
:103D80001D1B0008FD1D0008A91E00084000400082
:103D9000643F0020643F002001000000743F0020C9
:103DA0008000000040010000030000006D61696EAA
:103DB00000000000CC3D0008803F0020784100203A
:103DC00001000000353500080000000069646C65E2
:103DD00000000000A000A80200000000AAAAAAAAF1
:103DE00050001400FFFF00000077000070A70A00D9
:103DF0000000000000000000AAAAAAAA000000001B
:103E0000FFFF0000000000000000000000001002A2
:103E100000000000AAAAAAAA00000001FFFB0000FF
:103E2000000000000000080020000000000000006A
:103E3000AAAAAAAA10000000FFFF000000080000C4
:103E4000000000000000000000000000AAAAAAAACA
:103E500000000000FFFF0000000000000000000064
:103E60000000000000000000AAAAAAAA00000000AA
:103E7000FFFF000000000000000000000000000044
:103E800000000000AAAAAAAA00000000FFFF00008C
:103E90000000000000000000000000000000000022
:103EA0000A00000000000000030000000000000005
:103EB0000000000000000000000000000000000002
:103EC00000000000000000000000000000000000F2
:103ED000FF0096000000000804000000203D0008DC
:103EE00000000000000000000000000000000000D2
:083EF0000000000000000000CA
:00000001FF
