:020000040800F2
:100000000004012001020008E10E0008E50E0008CE
:10001000390F0008E50E00080D0F00080302000864
:10002000030200080302000803020008E130000890
:10003000030200080302000803020008030200088C
:10004000030200080302000803020008030200087C
:1000500003020008030200083D330008693300086A
:1000600095330008C1330008ED330008030200088F
:10007000030200080302000803020008030200084C
:10008000030200080302000803020008030200083C
:1000900003020008030200080302000819340008E4
:1000A000030200080302000803020008030200081C
:1000B000613100080302000803020008030200087F
:1000C00003020008030200080302000803020008FC
:1000D00003020008030200080302000803020008EC
:1000E000813400080302000803020008030200082C
:1000F00003020008030200080302000803020008CC
:1001000003020008030200080302000803020008BB
:1001100003020008030200080302000803020008AB
:10012000030200080302000803020008030200089B
:10013000030200080302000803020008030200088B
:10014000030200080302000803020008E127000878
:10015000030200080302000803020008030200086B
:10016000030200080302000803020008030200085B
:10017000030200080302000803020008030200084B
:10018000030200080302000803020008030200083B
:10019000030200080302000803020008030200082B
:1001A000030200080302000803020008030200081B
:1001B000030200080302000803020008030200080B
:1001C00003020008030200080302000803020008FB
:1001D00003020008030200080302000803020008EB
:1001E00003020008030200080302000803020008DB
:1001F00003020008030200080302000803020008CB
:1002000002E000F000F8FEE772B6394880F3088893
:10021000384880F3098838484EF60851CEF200017C
:10022000086040F20000CCF200004EF63471CEF2CD
:1002300000010860BFF34F8FBFF36F8F40F20000E3
:10024000C0F2F0004EF68851CEF200010860BFF314
:100250004F8FBFF36F8F4FF00000E1EE100A4EF6A4
:100260003C71CEF200010860062080F31488BFF3D1
:100270006F8F01F039FF02F0BBFE4FF055301F4980
:100280001B4A91423CBF41F8040BFAE71C49194A4A
:1002900091423CBF41F8040BFAE71A491A4A1B4B3A
:1002A0009A423EBF51F8040B42F8040BF8E70020D5
:1002B0001749184A91423CBF41F8040BFAE701F094
:1002C00057FF02F0FFFE144C144DAC4203DA54F811
:1002D000041B8847F9E700F03FF8114C114DAC4280
:1002E00003DA54F8041B8847F9E701F03FBF000028
:1002F000000401200024012000000008000001206B
:100300000004012088380008002401205024012026
:100310005024012048340120000200080002000897
:1003200000020008000200082DE9F04F2DED108AB0
:10033000C1F80CD0D0F80CD0BDEC108ABDE8F08F1D
:10034000002383F311882846A047002001F054FBC6
:1003500001F000FB00DFFEE71B4B7B2270B51A703B
:100360006FF07F0200245A720E225C709C70DC7069
:100370001C715C719C71DC711C729A72DC7201F0F0
:1003800079FE064601F0AAFE054650B90F4B9E4283
:1003900017D001339E4241F2883412BF0546002433
:1003A0000125002001F070FE0DB100F0B7F800F05B
:1003B0006BFD00F063FC204600F052F900F0AEF84F
:1003C000F9E70446EDE700BF50240120010007B023
:1003D00008B500F0F5FBA0F120035842584108BDD4
:1003E00007B5054B02211B88ADF8043001A800F0C9
:1003F00035FC03B05DF804FB64350008064991F84C
:10040000243033B100230822086A81F8243000F038
:1004100059BC0120704700BF702401202DE9F84F1E
:10042000234C94F824300546884617468BBB2E464D
:10043000DFF87C90002F38D094F824A0BAF1000F98
:1004400005D12022FF214846266200F00BFDCAF1AB
:100450000805BD4228BF3D465FFA85FBAD00414619
:100460002A4604EB8A0000F0D3FC94F82430A7EB72
:100470000B079B445FFA8BFBBBF1080F2E44A8448B
:10048000FFB284F824B0D5D1FFF7B8FF0028D1D14E
:1004900008E0266A06EB8306B042C9D0FFF7AEFF3C
:1004A0000028C4D10020BDE8F88F0120BDE8F88FF6
:1004B0007024012010B572B6202383F3118862B630
:1004C0001248C3680BB101F01FFB0023104A0F480C
:1004D0004FF47A7101F0DCFA002383F311880D4C9C
:1004E000236813B12368013B2360636813B1636819
:1004F000013B6360084B1B7833B9636823B9022062
:1005000000F07CFC3223636010BD00BF5C2401203E
:10051000B5040008A0290120982401202DE9F0410C
:10052000454B464953F8042F013201D1BDE8F08113
:100530008B42F7D1424C434B22689A427AD9424BC4
:100540009B6803F1006303F5C0339A4272D2002026
:1005500000F0B0FB3D4B0220187000F047FC3C4B14
:100560001A6C00221A64196E1A66196E596C5A6454
:10057000596E5A66596E596941F08001596159693D
:1005800021F0800159615969196941F000511961DF
:10059000196921F0005119611B6972B62D492E4B62
:1005A0000B601D682468BFF34F8FBFF36F8F2B4B19
:1005B000C3F88420BFF34F8F5A6922F480325A6106
:1005C000BFF34F8FD3F88020C2F3C906C2F34E3277
:1005D0005201B70743F6E07E02EA0E08384631467C
:1005E000013948EA000CB1F1FF3FC3F874C200F1D1
:1005F0004040F5D1203A12F1200FEDD1BFF34F8FDB
:10060000BFF36F8FBFF34F8FBFF36F8F5A6922F421
:1006100000325A610022C3F85022BFF34F8FBFF35C
:100620006F8F72B6202383F3118862B6AD4685F3CF
:1006300008882047BDE8F081FC7F01081C80010884
:1006400004800108FF7F0108502401209824012024
:100650000038024008ED00E00080010800ED00E0F5
:100660002DE9F04F97B0B64C00902022FF210EA844
:10067000A66800F0F7FBB34A1378A346B3B9B248B3
:1006800001211170C36072B6202383F3118862B612
:10069000C3680BB101F038FA0023AC4AAA484FF402
:1006A0007A7101F0F5F9002383F31188009BA84AC1
:1006B00003B11360A749009F00230B705360994654
:1006C0001C461D469846DFF888A2012000F08EFBEC
:1006D000002F00F03A82DAF80030002B40F035822B
:1006E00017B0BDE8F08F0220FFF772FE002840F03F
:1006F0002382009BB9F1000F08BF1F46964B1B8851
:10070000ADF82430022109A800F0A8FADBE74FF485
:100710007A7000F055FA031E0193EADB0220FFF71E
:1007200057FE82460028E4D0019B581E042800F2A0
:100730000582DFE800F0030E1114170016A8052348
:1007400040F8343D042100F089FA54464FF0000887
:1007500055E004217A48F6E704218048F3E70421B4
:100760007F48F0E71C24204600F0A6FA04340990E4
:10077000042109A800F072FA2C2CF4D1E5E7002D31
:10078000B7D0002CB5D00220FFF722FE0546002886
:1007900000F0D78101206F4C00F08CFA022020700D
:1007A00000F024FB4FF000095FFA89FA504600F090
:1007B00091FA074658B1504600F09CFA09F1010938
:1007C0000028F1D12C46A9460027664B97E7012364
:1007D0000220237000F000FB3E46DBF808309E420A
:1007E00006D2304600F068FA0130EBD10436F4E767
:1007F000574B002626705E60A9462C46374600F00F
:1008000039FB15B1002C18BF0027FFF7E9FD5AE7A7
:10081000002D3FF46EAF002C3FF46BAF4D4B022028
:10082000187000F0E3FA322000F0CAF9B0F1000AC3
:10083000C0F287811AF0030540F08381DBF80820BD
:1008400006EB0A03934200F27C81BAF5807F00F246
:100850007881454B019355450DDA4FF47A7000F0DD
:10086000AFF90290029A002AC0F26B81019B029AB2
:10087000EA540135EEE7C820FFF7AAFD0546002837
:1008800000F05F811F2E11D8C6F12004544528BF07
:1008900054460EAB26F0030022463349184400F0BC
:1008A000B7FA2246FF21304800F0DCFA4FEAAA0AE4
:1008B0005FFA8AF22C493046FFF7B0FD0446002863
:1008C00000F0418106EB8A06054698E70220FFF713
:1008D0007FFD00283FF40DAFFFF790FD00283FF4A7
:1008E00008AF00229246DBF808309A425AD21F2AFB
:1008F0001ED80E9B01331BD022F0030316A90B4414
:1009000053F8203C0993194843688BB317480021DA
:100910000DF1240E11F80E3083EA0A03DBB2013127
:1009200050F82330042983EA1A2AF3D10432DAE793
:100930001046019200F0C0F9019A0990E3E700BF68
:10094000502401209C2501205C240120B5040008CE
:10095000A029012098240120663500085424012094
:1009600058240120683500089C240120A02501207E
:1009700019464FF0080E11F0010F4FEA51011FBF49
:1009800081F06D4181F4380181F4034181F020014F
:10099000BEF1010EEFD140F823100133B3F5807F93
:1009A000E6D1B3E716A8042140F84CAD00F056F9A3
:1009B00025E716A8002340F8343D642100F02AF909
:1009C00000287FF496AE0220FFF702FD00283FF4D6
:1009D00090AE099800F0A0F916AB43F8480D042139
:1009E0001846E3E716A8002340F8343D642100F0E0
:1009F00011F900287FF47DAE0220FFF7E9FC002802
:100A00003FF477AE099800F095F916AB43F8440D22
:100A1000E5E70220FFF7DCFC00283FF46AAE00F0B7
:100A20008FF916AB43F8400DD9E70220FFF7D0FC51
:100A300000283FF45EAE09A9142000F087F9824631
:100A400016A8042140F83CAD00F008F9514609A869
:100A5000ACE7322000F0B4F8B0F1000AFFF649AE7E
:100A60001AF0030F7FF445AEDBF808200AEB080309
:100A700093423FF63EAE0220FFF7AAFC00283FF467
:100A800038AE2AF0030AC244C2453FF4B8AE40462D
:100A900000F012F90421089008A800F0DFF808F12E
:100AA0000408F1E74FF47A70FFF792FC00283FF456
:100AB00020AEFFF7A3FC00283FF487AE0E9B013366
:100AC0000CD008220EA90020FFF7A8FC00283FF454
:100AD0007CAE2022FF210EA800F0C4F9FFF780FCB5
:100AE000364800F091FFFBE5002D3FF402AE002CEC
:100AF0003FF4FFAD16A8002340F8343D642100F018
:100B000089F8824600287FF4F4AD0220FFF760FCEC
:100B100000283FF4EEAD0190FFF762FC41F288300F
:100B200000F072FF099800F0D9F900F0A3F9019BD9
:100B300057461C461D46C6E5054660E64FF00008D0
:100B4000D7E52546D5E52C463FE6002000F038F8ED
:100B50000290029B002BFFF6BBAD012000F03CF998
:100B6000029B213B122B3FF6B0AD01A252F823F0BD
:100B7000E70600080F0700087F070008CB060008FB
:100B8000CB060008CB06000811080008530A00082D
:100B9000CD080008B3090008E5090008130A000899
:100BA000CB0600082B0A0008CB060008A50A00089F
:100BB000FF070008CB060008E90A0008A08601002C
:100BC00037B5114B1A780132D2B20024012A0146FE
:100BD0008DF8074011D80D4803681D6A4FF47A73E9
:100BE0004B4301220DF10701A847012805D1084B0D
:100BF0009DF807001C7003B030BD4FF4FA7000F090
:100C000003FF4FF0FF30F6E700240120702A012097
:100C1000AC29012038B50E4B1A780132D2B2012A24
:100C200005460ED80B4803681C6A4FF47A734B4391
:100C300004222946A047042803D1074B002018703E
:100C400038BD4FF4FA7000F0DFFE4FF0FF3038BDD2
:100C500000240120702A0120AC29012030B4054C69
:100C60002368DD69044B0A46AC460146204630BC89
:100C7000604700BF702A0120A0860100F8B501F08E
:100C8000FDF8094C094E0A4F207000253068237882
:100C9000834207D901F0ECF8336805440133BD42C3
:100CA0003360F3D9F8BD00BFAD290120A829012088
:100CB000FF7F010001F090B900F1006000F5C03045
:100CC0000068704700F10060920000F5C03001F04C
:100CD0001BB90000054B1A68054B1B789B1A834211
:100CE00002D9104401F0C4B800207047A82901209F
:100CF000AD29012038B5074D04462868204401F08D
:100D0000BFF828B928682044BDE8384001F0D0B8C1
:100D100038BD00BFA829012010F0030308D1B0F5A9
:100D2000806F05D800F10050A0F571200068704771
:100D300000207047014BC058704700BF20F4F01FDF
:100D4000014B1868704700BF002004E0F0B5204B4D
:100D50001E68204B1F885D6893F90840C6F30B029C
:100D6000BA424FEA164622D09F89BA4221D01F8B41
:100D7000BA4206D102220C2404FB02335D6893F9C7
:100D80000840B6F5805F16D041F201039E4208BFCD
:100D90005A24421E0A44013D0B46934215D215F9CE
:100DA000016F581C4EB1034600F8016CF5E70022B4
:100DB000E1E70122DFE74124EBE72C2582421D70A9
:100DC00001D9981C5C70401AF0BD1846FBE700BFC3
:100DD000002004E004240120022802BF024B4FF44B
:100DE00080229A61704700BF00000240022802BFC3
:100DF000014B04229A61704700000240022801BFA3
:100E0000024A536983F004035361704700000240B3
:100E100010B50023934203D0CC5CC4540133F9E7EE
:100E200010BD000030B5441E14F9010F0B4660B12F
:100E300093F90050854201F1010106D11AB993F9E5
:100E40000020801A30BD013AEEE7002AF7D11046A3
:100E500030BD000002460346981A13F9011B002911
:100E6000FAD1704702440346934202D003F8011BB3
:100E7000FAE77047024B1A78024B1A70704700BFAE
:100E8000AC2901200024012038B5104D104C284613
:100E900000F0F4F82146284600F01CF924680D48BB
:100EA000E26ED2F8043843F00203C2F8043800F0CE
:100EB000ABFD0949204600F021FAE26ED2F8043871
:100EC00023F00203C2F8043838BD00BF702A0120A5
:100ED0001436000840420F003C36000870470000FE
:100EE000FEE7000000B59BB0EFF309816822684679
:100EF000FFF78EFFEFF30583034B9A6B9A6A9A6AAA
:100F00009A6A9A6A9B6AFEE700ED00E000B59BB022
:100F1000EFF3098168226846FFF77AFFEFF3058354
:100F2000044B9A6B9A6A9A6A9A6A9A6A9A6A9B6A54
:100F3000FEE700BF00ED00E000B59BB0EFF30981D4
:100F400068226846FFF764FFEFF30583034B5A6B93
:100F50009A6A9A6A9A6A9A6A9B6AFEE700ED00E0CA
:100F6000002304491A465A50C8180833802B42609F
:100F7000F9D17047B029012072B6202383F311887C
:100F800062B67047026843681143016003B11847B5
:100F90007047000013B5446BD4F894341A68117884
:100FA000042915D1217C022912D119791289012332
:100FB0008B4013420CD101A904F14C0001F08CFECE
:100FC000D4F89444019B21790246206800F0E6F9A8
:100FD00002B010BD143001F011BE00004FF0FF331D
:100FE000143001F00BBE00004C3001F0E1BE0000F7
:100FF0004FF0FF334C3001F0DBBE0000143001F045
:10100000E1BD00004FF0FF31143001F0DBBD000006
:101010004C3001F0ADBE00004FF0FF324C3001F01B
:10102000A7BE0000D0F8942438B5136819780429B5
:10103000054601D0012038BD017C0229FAD1127980
:101040005C89012090400440F4D105F1140001F0C6
:1010500073FD02460028EDD0D5F894544FF4807308
:101060002868697900F088F9204638BD406BFFF7A1
:10107000D9BF000000207047704700007FB5124BB9
:101080000360002343608360C360012502260F4B89
:10109000057404460290019300F1840229460096EB
:1010A0004FF48073143001F023FD094B0193029437
:1010B00000964FF4807304F52372294604F14C0026
:1010C00001F0E6FD04B070BD983500086D10000811
:1010D000950F000808B50A68FFF74EFF0B7902EB81
:1010E000830318624B790D3342F823008B7913B1D7
:1010F00002EB8302106202230374C0F894140023ED
:1011000083F3118808BD000038B5037F044613B18E
:1011100090F85430ABB9201D01250221FFF732FFB2
:1011200004F1140025776FF0010100F095FC84F8BC
:10113000545004F14C006FF00101BDE8384000F05C
:101140008BBC38BD10B5012104460430FFF71AFFEF
:101150000023237784F8543010BD000038B50446CE
:101160000025143001F0DCFC04F14C00257701F07F
:10117000A7FD201D84F854500121FFF703FF2046EE
:10118000BDE83840FFF74EBF90F85C3003F06003D5
:10119000202B19D190F85D20212A0AD0222A4FF065
:1011A00000030ED0202A0FD1084A026507224265AB
:1011B00004E0064B03650723436500238365012094
:1011C000704703654365F9E7002070472824012034
:1011D000D0F8943437B51A681178042904461AD126
:1011E000017C022917D11979128901238B401342FE
:1011F00011D100F14C05284601F020FE58B101A99B
:10120000284601F069FDD4F89444019B21790246F7
:10121000206800F0C3F803B030BD000000EB81038C
:10122000F7B51C6A05460E46ECB105EB8607FFF7DD
:10123000A3FE201D0821FFF7A5FEFB685B691B6864
:101240004C3413B1204601F055FD01A9204601F0B0
:1012500043FD024648B1019B3146284600F09EF806
:10126000002383F3118803B0F0BDFB685A6912684C
:10127000002AF5D01B8A013B1340F1D105F15C0235
:10128000EAE700000D3138B550F82140D4B1FFF73E
:1012900073FED4F894241368527903EB8203DB685D
:1012A0009B695D6845B104216018FFF76BFE294614
:1012B00004F1140001F04AFC2046FFF7B3FE0023BE
:1012C00083F3118838BD00007047000072B62023F8
:1012D00083F3118862B6704700F0D0BF012303701A
:1012E0000023436000F1240200F1380142F8043B7E
:1012F0008A421361FAD103814381704738B50446AD
:10130000FFF7E4FF00254160C56005614561856127
:10131000C561056200F0C2FF0223237085F31188C6
:1013200038BD000070B500EB810305465069DA60F6
:101330000E46144618B110220021FFF793FDA06954
:1013400018B110220021FFF78DFD31462846BDE877
:10135000704001F06DB80000028902F001020281C4
:10136000428902F0010242810022026142618261EF
:10137000C261026201F0F0B8F0B400EB8104478969
:10138000E4680125A4698D403D4345812360002325
:10139000A2606360F0BC01F00BB90000F0B400EB98
:1013A00081040789E468012564698D403D43058116
:1013B00023600023A2606360F0BC01F087B90000E5
:1013C00070B50223002504460370A0F8645080F82D
:1013D000665080F8675005814581C56005614561AB
:1013E0008561C561056280F84C5000F0BDFF6368FF
:1013F0001B6823B129462046BDE87040184770BDE0
:10140000436802781B6880F86820052202700BB1DF
:101410000421184770470000436890F868201B6853
:1014200002700BB1052118477047000090F84C304E
:1014300070B5044613B1002380F84C3004F15C020F
:10144000204601F0ABF863689B6863BB94F85C507E
:1014500015F0600615D194F85D3005F07F0545EA7A
:10146000032540F202339D4200F00B8159D8022D32
:1014700000F0D9803DD8002D00F08580012D00F0CE
:10148000CC800021204601F0F9FA0021204601F02D
:10149000EBFA63681B6813B10621204698470623C0
:1014A00084F84C3070BD204698470028CED094F880
:1014B000632094F8623043EA0223626D934238BF9E
:1014C000636594F95C30656D002B80F2FC80002D23
:1014D00000F0EB80092384F84C30FFF7F7FE636DD2
:1014E000226D00212046FFF759FF002383F3118866
:1014F00070BDB5F5817F00F0B080B5F5407F49D073
:10150000B5F5807FBDD194F85E30012BB9D1B4F828
:10151000643023F00203A4F8643026656665A6658E
:10152000C5E740F201639D421ED8B5F5C06F3BD2BE
:10153000B5F5A06FA5D1B4F85C30B3F5A06F0ED1AE
:1015400094F85E3084F86630204600F065FF6368EA
:101550001B6813B101212046984703232370002301
:1015600023656365A365A2E7B5F5106F32D040F639
:1015700002439D4251D0B5F5006F82D104F167035B
:101580002365012324E004F16403236502236365DA
:10159000A5658CE794F85E30012B7FF472AFB4F848
:1015A000643043F00203B6E794F86120616894F870
:1015B00060304D6894F85F1043EA0223204694F8A7
:1015C0005E20A84700283FF45CAF436823650368AA
:1015D0006365A4E72378042B0FD1FFF777FE20463D
:1015E000FFF7BAFE86F31188636884F867601B68AA
:1015F000032121700BB12046984794F85E30002BF0
:10160000ADD084F867300423237063681B68002B17
:10161000A5D0022120469847A1E7374B2365022336
:10162000636500239EE794F8601011F0800F204658
:1016300001F00F010ED000F0A3FF012806D0022810
:101640007FF41FAF2D4B2365606568E72C4B236546
:10165000656564E700F086FFEFE794F85E30002BE5
:101660007FF40FAF94F8603013F00F013FF477AFC1
:101670001A06204602D501F015FA70E701F008FAC3
:101680006DE794F85E30002B7FF4FBAE94F8603089
:1016900013F00F013FF463AF1B06204602D501F0A3
:1016A000EDF95CE701F0E0F959E7142384F84C30D8
:1016B000FFF70CFE2B462A4629462046FFF75CFE24
:1016C00085F3118870BD5DB1152384F84C30FFF7A8
:1016D000FDFD636D226D00212046FFF74DFE04E7FE
:1016E0000B2384F84C30FFF7F1FD2B462A462946A0
:1016F0002046FFF753FEE3E7C8350008C035000871
:10170000C435000838B590F84C300446152B28D85D
:10171000DFE803F03C27272727273C27270B28371C
:1017200027272727272727273C3C90F8631090F886
:101730006220436D42EA01229A4213D9C268128A9A
:10174000B3FBF2F502FB153565B9FFF7BFFD2B467C
:101750002A462946FFF722FE85F311880A2384F8DA
:101760004C3038BD142384F84C30FFF7AFFD002314
:101770001A4619462046FFF7FFFD002383F3118820
:1017800038BD836D03B198470023E8E7002101F0DD
:1017900075F90021204601F067F963681B6813B1F1
:1017A0000621204698470623D9E7000090F84C20F0
:1017B000152A38B5044621D80123934040F64162EA
:1017C00013421CD113F480150ED19B0216D50B23A6
:1017D00080F84C30FFF77AFD2B462A462946FFF762
:1017E000DDFD85F3118838BDC3689B695B682BB943
:1017F000836D03B19847002384F84C3038BD002135
:1018000001F03CF90021204601F02EF963681B68C5
:1018100013B10621204698470623EDE7024B00222C
:101820001B605B609A607047302A012000230374BC
:101830008268054B1B6899689142FBD25A68036025
:101840004260106058607047302A012008B572B6B7
:10185000202383F3118862B6037C032B05D0042B6D
:101860000DD02BB983F3118808BD436900221A609B
:101870004FF0FF334361FFF7D9FF0023F2E790E811
:101880000C001A6002685360F2E700000023037442
:101890008268054B1B6899689142FBD85A680360BF
:1018A0004260106058607047302A0120054B19696A
:1018B0000874186802681A60536018610123037481
:1018C000FEF732BD302A012030B54B1C87B00546EB
:1018D0000A4C10D023690A4A01A800F0D9F828461A
:1018E000FFF7E4FF049B13B101A800F00DF9236991
:1018F000586907B030BDFFF7D9FFF8E7302A01205B
:101900004D18000838B50C4D41612B6981689A6803
:101910009142044603D8BDE83840FFF787BF184618
:10192000FFF784FF01232C61014623742046BDE8A4
:101930003840FEF7F9BC00BF302A0120044B1A687A
:101940001B6990689B68984294BF002001207047F3
:10195000302A012010B5084C236820691A682260DB
:101960005460012223611A74FFF790FF0146206939
:10197000BDE81040FEF7D8BC302A012072B6202303
:1019800083F3118862B670478260022202740022DB
:10199000427470478368A3F17C0243F80C2C0269FF
:1019A00043F83C2C426943F8382C074A43F81C2C76
:1019B000C26843F8102C022203F8082C002203F816
:1019C000072CA3F1180070474103000810B5FFF77A
:1019D000D5FFFFF7DFFF00210446FFF793FF002349
:1019E00083F31188204610BD024B1B6958610F20FC
:1019F000FFF75CBF302A012008B5FFF7BFFFBDE845
:101A00000840FFF7F1BF000008B50146FFF7B6FF39
:101A10000820FFF759FF002383F3118808BD000059
:101A200049B1064B42681B6918605A6013604360F5
:101A30000420FFF749BF4FF0FF307047302A0120E4
:101A40000368984206D01A680260506059611846CF
:101A5000FFF7ECBE7047000038B504460D4620681D
:101A6000844200D138BD036823605C604561FFF7A4
:101A7000DDFEF4E7054B03F114025A619A614FF061
:101A8000FF32DA6100221A62704700BF302A01205B
:101A9000F8B503614FF08043C2605C6A194B1A4687
:101AA000022952F8145F38BF0221954206461F46AC
:101AB0000AD1586198611C6205604560816008190F
:101AC000BDE8F84001F0DCB9186AAB68241A0C19BB
:101AD00002D3E41A2D6804E09C4202D2204401F0B3
:101AE000DDF9AB689C42F4D86B68736035601E60AA
:101AF0006E60B460A9684FF0FF33091BA960FB61F9
:101B0000F8BD00BF302A012010B41B4C234653F807
:101B1000141F814210D0416802680A600268516057
:101B20009A424FF00001C16003D0936881680B4472
:101B300093605DF8044B70470A68626100209A4226
:101B40005360C86003D15DF8044B01F0A1B99368FC
:101B50008868034493604FF08042206A526A121AE8
:101B60009342E6D9991A012998BF931C18445DF84D
:101B7000044B01F093B900BF302A012000207047C8
:101B8000FEE70000704700004FF0FF307047000094
:101B900072B6202383F3118862B67047022906D0FB
:101BA000032906D00129064818BF002070470548C0
:101BB0007047032A9ABF044800EBC2000020704718
:101BC000983600084C3600083024012070B59AB0D1
:101BD00001AD064608462946144600F091F828460D
:101BE000FFF738F9C0B2431C5B0086E81800237089
:101BF00003236370002302341946DAB2904204F1E1
:101C0000020401D81AB070BDEA5C04F8022C04F892
:101C1000011C0133F1E7000008B5FFF7B9FF0348E5
:101C2000FFF7D6FA002383F3118808BD702A01203C
:101C300010B50446052915D8DFE801F01514031581
:101C4000151BFFF7A5FF0E4A0121FFF76BFB20468E
:101C50000C4A0221FFF766FB0B48FFF77FFA0023CF
:101C600083F3118810BDFFF793FF0748FFF74CFA85
:101C7000F5E7FFF78DFF0448FFF764FAEFE700BFD1
:101C8000CC350008F0350008702A012038B50C4D1D
:101C90000C4C0D492A4604F10800FFF797FF05F1A7
:101CA000CA0204F110000949FFF790FF05F5CA7256
:101CB00004F118000649BDE83840FFF787BF00BFB0
:101CC000382F0120302401201C3600082636000859
:101CD0003136000870B5044608460D46FFF7BAF8DD
:101CE000C6B22046013403780BB9184670BD32469F
:101CF0002946FFF797F80028F3D1012070BD0000B6
:101D00002DE9F84F05460C46FFF7A4F82A49C6B25C
:101D10002846FFF7DFFF08B10136F6B2274928460B
:101D2000FFF7D8FF08B11036F6B2632E0DD8DFF8F2
:101D30008890DFF888A0224FDFF88CB0DFF88C8025
:101D40002E7846B92670BDE8F88F29462046BDE8B2
:101D5000F84F01F0FFBB252E29D10722494628461E
:101D6000FFF760F840B9D8F800302360D8F80430A5
:101D7000636007350834E3E7082251462846FFF739
:101D800051F8A0B90F4BA21C13F8011F09095B45BC
:101D9000C95D02F8021C197801F00F0102F102027C
:101DA000C95D02F8031CEFD118340835C8E7267066
:101DB00001350134C4E700BFB836000831360008E9
:101DC000C93600081FF4F01F2BF4F01FC0360008BE
:101DD000BFF34F8F024AD368DB03FCD4704700BFC8
:101DE000003C024008B5074B1B7853B9FFF7F0FFE2
:101DF000054B1A69002ABFBF044A5A6002F18832B3
:101E00005A6008BD96310120003C0240230167451D
:101E100008B5054B1B7833B9FFF7DAFF034A13699E
:101E200043F00043136108BD96310120003C02409D
:101E3000072870B513D80B4A0B4C137863B90B4EB7
:101E40004FF0006144F8231056F823500133082B5B
:101E50002944F7D10123137054F8200070BD0020ED
:101E600070BD00BFB831012098310120DC36000878
:101E7000014B53F820007047DC36000808207047FB
:101E8000072810B5044601D9002010BDFFF7D0FF88
:101E9000064B53F824301844C21A0BB9012010BD68
:101EA00012680132F0D1043BF6E700BFDC360008CF
:101EB000072810B5044621D8FFF78AFFFFF792FFE5
:101EC0000F4AF323D360C300DBB243F4007343F043
:101ED00002031361136943F480331361FFF778FF42
:101EE000FFF7A6FF074B53F8241000F0D9F8FFF7CF
:101EF0008FFF2046BDE81040FFF7C2BF002010BD95
:101F0000003C0240DC3600082DE9F84312F00103E2
:101F1000154640D18218B2F1016F3CD22C4B1B68A0
:101F200013F0010337D02B4CFFF75CFFF323E36082
:101F3000FFF74EFF40F20127032D01D9830713D08D
:101F4000244C0F46401A40F20118EB1B0B44012BA6
:101F500000EB0706236924D823F001032361FFF770
:101F600057FF0120BDE8F883236923F44073236100
:101F700023693B43236151F8046B0660BFF34F8F25
:101F8000FFF726FF03689E4208D0236923F0010370
:101F90002361FFF73DFF0020BDE8F883043D0430D6
:101FA000CAE723F440732361236943EA08032361EA
:101FB000B94637F8023B3380BFF34F8FFFF708FF76
:101FC0003688B9F80030B6B2B342BED0DDE700BF04
:101FD00000380240003C0240084908B50B7828B19F
:101FE00053B9FFF7FFFE01230B7008BD23B1BDE815
:101FF00008400870FFF70CBF08BD00BF96310120F4
:1020000010B50244064B0439D2B2904200D110BD43
:10201000441C00B253F8200041F8040FE0B2F4E78A
:1020200050280040104B30B51C6F240407D41C6F9F
:1020300044F400741C671C6F44F400441C670B4C90
:10204000236843F4807323600244094B0439D2B2FD
:10205000904200D130BD441C00B251F8045F43F8F7
:102060002050E0B2F4E700BF0038024000700040AA
:102070005028004007B5012201A90020FFF7C0FF4A
:10208000019803B05DF804FB07B502A9012241F8ED
:10209000040D0020FFF7C6FF03B05DF804FB00004D
:1020A0000144BFF34F8F064B884204D3BFF34F8FD9
:1020B000BFF36F8F7047C3F85C022030F4E700BFB6
:1020C00000ED00E0034B1B689B0042BF024B012266
:1020D0001A70704774380240B9310120014B1878EA
:1020E000704700BFB9310120F0B5BFF34F8FBFF388
:1020F0006F8F1D4B0021C3F85012BFF34F8FBFF3FA
:102100006F8F5A6942F400325A61BFF34F8FBFF3A9
:102110006F8FC3F88410BFF34F8FD3F88020C2F3C2
:10212000C904C2F34E325201A50743F6E07602EA33
:10213000060E284621464EEA00070139C3F86072B0
:102140004F1C00F14040F6D1203A12F1200FEED1A1
:10215000BFF34F8F5A6942F480325A61BFF34F8FF9
:10216000BFF36F8FF0BD00BF00ED00E0FEE70000A1
:10217000084A094B09498B4204D3094A002193427A
:1021800005D3704752F8040F43F8040BF3E743F804
:10219000041BF4E7D43800084834012048340120F7
:1021A00048340120036F30B500229D68C46E11468B
:1021B0004FF0FF3004EB421301329542C3F800198F
:1021C000C3F81019C3F80809C3F8001BC3F8101BA3
:1021D000C3F8080BEED24FF00113C4F81C3830BD21
:1021E000890141F02001016103699B06FCD41220A2
:1021F00000F0E4BE204B03EB80022DE9F047D2F85B
:102200000CE0DD6EDEF81420461CD2F800C005EBB1
:10221000063605EB4018516861450BD3D5F83428D4
:10222000012303FA00F022EA0000C5F8340818463A
:10223000BDE8F087BEF81040ACEB0103A34228BF15
:102240002346D8F81849A4B2B3EB840F10D8946889
:102250001F46A4F1040959F804AFC6F800A0042FE2
:1022600001D9043FF7E71C440B4494605360D2E764
:102270000020BDE8F08700BFBC31012010B5054C3F
:102280002046FFF72BF84FF0A043E366024B23678D
:1022900010BD00BFBC310120203700080378012B9E
:1022A00070B5054650D12A4BC46E98421BD1294BBC
:1022B0005A6B42F080025A635A6D42F080025A65AE
:1022C0005A6D5A6942F080025A615A6922F08002BE
:1022D0005A610E2143205B6900F0EEFB1E4BE36068
:1022E0001E4BC4F800380023C4F8003EC02323600E
:1022F000EE6E4FF40413A3633369002BFCDA012361
:1023000033610C2000F05AFE3369DB07FCD4122045
:1023100000F054FE3369002BFCDA0026A660284644
:10232000FFF740FF6B68C4F81068DB68C4F81468F6
:10233000C4F81C684BB90A4BA3614FF0FF336361CB
:10234000A36843F00103A36070BD064BF4E700BF30
:10235000BC3101200038024040140040030020023C
:10236000003C30C0083C30C0F8B5C46E05460021C2
:102370002046FFF735FF296F00234FF001128F68C9
:10238000C4F834384FF00066C4F81C284FF0FF3012
:1023900004EB431201339F42C2F80069C2F8006B9C
:1023A000C2F80809C2F8080BF2D20B68EA6E6B6734
:1023B000636210231361166916F01006FBD1122018
:1023C00000F0FCFDD4F8003823F4FE63C4F80038B4
:1023D000A36943F4402343F01003A3610923C4F825
:1023E0001038C4F814380A4BEB604FF0C043C4F8FF
:1023F000103B084BC4F8003BC4F81069C4F800391E
:102400006B6F03F1100243F480136A67A362F8BD97
:10241000FC36000840800010C26E90F86610D2F8BA
:10242000003823F4FE6343EA0113C2F80038704712
:102430002DE9F0410EB200EB86080D46D8F80C10DD
:102440000F6807F00303022B50D0032B50D03D4AF6
:102450003D4F012B18BF1746C46E4FEA451E04EBD3
:102460000E030022C3F8102B8A6905F1100C002A14
:1024700040D04A8A05F158035B013A43E2500123F8
:10248000D4F81C2803FA0CF31343A6444A69C4F891
:102490001C380023CEF8103905F13F03002A39D04B
:1024A0000A8A898B9208012988BF4A43416F04EB4D
:1024B0008303561841EA0242466729465A6020467D
:1024C000FFF78EFED8F80C301B8A43EA85531F4372
:1024D00005F148035B01E7500123D4F81C2803FAF7
:1024E00005F51543C4F81C58BDE8F081174FB3E754
:1024F000174FB1E704EB4613D3F8002B22F4004248
:10250000C3F8002BD4F81C28012303FA0CF322EAA9
:102510000303BAE704EB83030E4A5A6004EB461642
:1025200029462046FFF75CFED6F8003923F4004325
:10253000C6F80039D4F81C38012202FA05F523EA5E
:102540000505CFE70080001000800410008008100F
:1025500000800C1000040002026F12684267FFF74F
:1025600021BE00005831C36E49015B5813F400408E
:1025700004D013F4001F14BF012002207047000094
:102580004831C36E49015B5813F4004004D013F482
:10259000001F14BF012002207047000000EB8101E2
:1025A000CB68196A0B6813604B6853607047000072
:1025B00000EB810330B5DD68AA691368D36019B9EF
:1025C000402B84BF402313606B8A1468C26E1C4486
:1025D000013CB4FBF3F46343033323F0030302EB46
:1025E000411043EAC44343F0C043C0F8103B2B689A
:1025F00003F00303012B09B20ED1D2F8083802EB25
:10260000411013F4807FD0F8003B14BF43F0805397
:1026100043F00053C0F8003B02EB4112D2F8003BFC
:1026200043F00443C2F8003B30BD00002DE9F04107
:10263000254DEE6E06EB40130446D3F8087BC3F835
:10264000087B38070AD5D6F81438190706D505EBE4
:1026500084032146DB6828465B689847FA0731D532
:10266000D6F81438DB072DD505EB8403D968DCB91F
:102670008B69488A5E68B6FBF0F200FB12629AB979
:102680001868DA6890420FD2121A83E8140072B602
:10269000202383F3118862B60B482146FFF788FF99
:1026A00084F31188BDE8F081012303FA04F26B89F9
:1026B00023EA02036B81CB6823B121460248BDE8BF
:1026C000F0411847BDE8F081BC31012000EB8103E7
:1026D00070B5DD68C36E6C692668E6604A0156BB5A
:1026E0001A444FF40020C2F810092A6802F00302CD
:1026F000012A0AB20ED1D3F8080803EB421410F4F1
:10270000807FD4F8000914BF40F0805040F00050A2
:10271000C4F8000903EB4212D2F8000940F004406B
:10272000C2F80009D3F83408012202FA01F101438A
:10273000C3F8341870BD19B9402E84BF4020206002
:1027400020682E8A841940F00050013C1A44B4FBE2
:10275000F6F440EAC440C6E7F8B504461F48C56E23
:1027600005EB4413D3F80869C3F80869F10719D5D4
:10277000D5F81038DA0715D500EB8403D9684B6912
:102780001F68DA6897421AD2D21B00271A605F606E
:1027900072B6202383F3118862B62146FFF796FFB5
:1027A00087F31188330617D5D5F834280123A340C1
:1027B000134211D02046BDE8F840FFF71BBD0123AE
:1027C00003FA04F2038923EA020303818B68002BD6
:1027D000E8D021469847E5E7F8BD00BFBC310120AD
:1027E000A0482DE9F84FC56E6E69AB691E4016F41E
:1027F000805F6E61044605D0FEF7E2FDBDE8F84F4C
:1028000000F07EBC002E12DAD5F8003E95489B07FA
:102810001EBFD5F8003E23F00303C5F8003ED5F8EF
:10282000043823F00103C5F80438FEF7F5FD370539
:1028300002D58C48FEF7E4FDB0040CD5D5F8083875
:1028400013F0060FEB6823F470530CBF43F41053DE
:1028500043F4A053EB60310704D56368DB680BB128
:1028600080489847F2026FD4B3020CD5D4F86C803C
:10287000DFF8F0A100274FF00109236F9B68F9B240
:102880008B4280F09C80F70619D5E16E0A6AC2F38C
:102890000A1702F00F0302F4F012B2F5802F00F0D5
:1028A000B680B2F5402F0AD104EB830301F58051C5
:1028B000DB68186A00231A469F4240F09C8033036D
:1028C000D5F818481DD5E70302D50020FFF7AEFE66
:1028D000A50302D50120FFF7A9FE600302D502205F
:1028E000FFF7A4FE210302D50320FFF79FFEE202BB
:1028F00002D50420FFF79AFEA30202D50520FFF7B8
:1029000095FE77037FF57AAFE60702D50020FFF743
:1029100023FFA50702D50120FFF71EFF600702D5A0
:102920000220FFF719FF210702D50320FFF714FF4C
:10293000E20602D50420FFF70FFFA3067FF55EAF86
:102940000520FFF709FF59E7D4F86C80DFF814A1E0
:1029500000274FF00109236F9B685FFA87FB5B45F7
:1029600082D308EB4B13D3F8002902F44022B2F5CE
:10297000802F22D1D3F80029002A1EDAD3F80029AB
:1029800042F09042C3F80029D3F80029002AFBDB6B
:102990005946E06EFFF724FC228909FA0BF322EA7C
:1029A0000303238104EB8B03DB689B6813B1594657
:1029B000504698475846FFF71DFC0137CBE708EB18
:1029C0004112D2F8003B03F44023B3F5802F10D11D
:1029D000D2F8003B002B0CDA628909FA01F322EAF3
:1029E0000303638104EB8103DB68DB680BB15046B2
:1029F0009847013741E79C0708BF0A68072B98BF33
:102A0000027003F101039CBF120A013054E7023344
:102A100004EB830201F58051526890690268D0F896
:102A200008C04068A2EB000E0022104697420AD16F
:102A300004EB830463689B699A683A449A605A6815
:102A400017445F603BE712F0030F08BF0868964524
:102A500088BF8CF8000002F1010284BF000A0CF16B
:102A6000010CE3E7BC310120C36E03EB4111D1F847
:102A7000003B43F40013C1F8003B7047C36E03EB07
:102A80004111D1F8003943F40013C1F800397047FF
:102A9000C36E03EB4111D1F8003B23F40013C1F8DE
:102AA000003B7047C36E03EB4111D1F8003923F4AA
:102AB0000013C1F80039704700F1604300F01F02B5
:102AC000400903F5614309018000C9B200F160408B
:102AD00083F8001300F5614001239340C0F8803172
:102AE0000360704772B6202383F3118862B6704783
:102AF00030B5039C0172043304FB0325C361049BBE
:102B000003630021059B00604060C1604261026177
:102B10008561046242628162C162436330BD00002C
:102B20000022416A41610161C2608262C2626FF04B
:102B30000101FEF791BF000003694269934203D18E
:102B4000C2680AB100207047181D704703691960F8
:102B5000C2680132C260C269134482690361934250
:102B600024BF436A03610021FEF76ABF38B50446FB
:102B70000D46E3683BB16269131D1268A3621344FA
:102B8000E362002038BD237A33B929462046FEF798
:102B900047FF0028EDDA38BD6FF00100FBE70000C9
:102BA000C368C269013BC3604369134482694361DE
:102BB000934224BF436A436100238362036B03B1E2
:102BC0001847704770B50446FFF78CFF866A3EB918
:102BD000FFF7CCFF054618B186F31188284670BD73
:102BE000A36AE26A13F8015BA362934202D3204610
:102BF000FFF7D6FF002383F31188EFE72DE9F047B5
:102C000004460E4617469846FFF76CFF0025A94676
:102C1000D4F828A0BAF1000F09D141462046FFF7A9
:102C2000A5FF20B18AF311882846BDE8F087A16A84
:102C3000E36AA7EB050A5B1A9A4528BF9A46BAF1E0
:102C4000400F1BD9334601F1400251F8040B43F801
:102C5000040B9142F9D1A36A40334036A362403558
:102C6000A26AE36A9A4202D32046FFF799FF89F3EA
:102C70001188BD42D8D2FFF735FFC9E7304652462A
:102C8000FEF7C6F8A36A53445644A3625544E7E7E7
:102C900010B5029C0172043303FB0421C3610023BD
:102CA0008362C362039B0363049B00604060C46053
:102CB00042610261816104624262436310BD0000AF
:102CC000026AC260426A4261026100228262C2629A
:102CD0006FF00101FEF7C0BE436902699A4203D159
:102CE000C2680AB100207047184650F8043B0B60D8
:102CF00070470000C368C2690133C360436913446D
:102D000082694361934224BF436A43610021FEF715
:102D100097BE000038B504460D46E3683BB1236911
:102D20001A1DA262E2691344E362002038BD237ACF
:102D300033B929462046FEF773FE0028EDDA38BD88
:102D40006FF00100FBE7000003691960C268013AF7
:102D5000C260C269134482690361934224BF436A1B
:102D6000036100238362036B03B1184770470000BF
:102D700070B504460E46FFF7B5FE856A35B91146B3
:102D8000FFF7C8FF10B185F3118870BDA36A1E70EC
:102D9000A36AE26A01339342A36204D3E169204645
:102DA0000439FFF7D1FF002080F3118870BD0000C7
:102DB0002DE9F04704460D4690469946FFF792FEEE
:102DC0000026B246A76A4FB949462046FFF7A2FF40
:102DD00020B187F311883046BDE8F087A06AE76A22
:102DE000A8EB06033F1A9F4228BF1F46402F1BD95E
:102DF00005F1400355F8042B40F8042B9D42F9D10E
:102E0000A36A4033A3624036A26AE36A9A4204D3BB
:102E1000E16920460439FFF797FF8AF31188464598
:102E2000D9D2FFF75FFECDE729463A46FDF7F0FF1E
:102E3000A36A3B443D44A3623E44E5E7026943691B
:102E40009A4203D1C3681BB9184670470023FBE7B9
:102E5000836A002BF8D0043B9B1AF5D01360C3683B
:102E6000013BC360C3691A44836902619A4224BF6B
:102E7000436A0361002383620123E5E700F086B91A
:102E80004FF08043002258631A610222DA607047D3
:102E90004FF080430022DA60704700004FF080431B
:102EA00058637047FEE7000010B5194CFEF7B6FCFA
:102EB000FEF7E0FD802217492046FEF765FD01235D
:102EC00044F8180C0374144B144AD96821F4E061D7
:102ED0000904090C0A431249DA60CA6842F0807298
:102EE000CA60104A1049C2F8B01F116841F00101D0
:102EF00011601022DA77202283F82220002383F346
:102F0000118862B60948BDE81040FEF75FBD00BFFA
:102F1000582A01202C37000800ED00E00003FA05D4
:102F2000F0ED00E0001000E055CEACC534370008ED
:102F30002DE9F84F204C4FF00008656904F11407A3
:102F4000C1464FF08043266A5B6AAA689E1B964280
:102F50001FD34FF0200AAA68236AD5F80CB0134497
:102F600023622B68BB425F60A6EB02066361C5F873
:102F70000C8001D1FFF78CFF89F311882869D847AD
:102F800072B68AF3118862B66569AB689E42E2D276
:102F9000D7E76269BA420CD0916823628E1B9660B3
:102FA000A86802282CBF1818981CBDE8F84FFFF736
:102FB00075BFBDE8F88F00BF302A0120034B596868
:102FC0005A68521A9042FBD8704700BF001000E0C8
:102FD0004B6843608B688360CB68C3600B69436157
:102FE0004B6903628B6943620B68036070470000A2
:102FF00008B5274B27481A6940F2FF710A431A6146
:103000001A6922F4FF6222F007021A611A691A6B28
:103010000A431A631A6D0A431A651F4A1B6D11464B
:10302000FFF7D6FF1D4802F11C01FFF7D1FF1C4836
:1030300002F13801FFF7CCFF1A4802F15401FFF703
:10304000C7FF194802F17001FFF7C2FF174802F1EC
:103050008C01FFF7BDFF164802F1A801FFF7B8FF8A
:10306000144802F1C401FFF7B3FF134802F1E00175
:10307000FFF7AEFF114802F1FC01FFF7A9FF10486E
:1030800002F58C71FFF7A4FFBDE8084000F0E0B83E
:10309000003802400000024054370008000402409B
:1030A00000080240000C02400010024000140240E0
:1030B00000180240001C0240002002400024024090
:1030C0000028024008B500F035FAFFF7EDFEFEF7E4
:1030D000F9FFBDE80840FEF7D9BD000070470000C9
:1030E000064A536823F001035360EFF30983683302
:1030F00083F30988002383F31188704730EF00E0E1
:1031000010B572B6202383F3118862B6104B5B684A
:1031100013F4006318D0F1EE103AEFF309844FF086
:10312000807344F84C3C0B4BDB6844F8083CA4F13A
:10313000680383F30988FEF701FC18B1064B44F8D5
:10314000503C10BD054BFAE783F3118810BD00BF5A
:1031500000ED00E030EF00E05103000854030008E8
:103160004FF0804310B51A6992070AD500241C61FC
:1031700072B6202383F3118862B6FFF7D9FE84F379
:103180001188BDE81040FFF7BBBF0000104B1A6C60
:1031900042F001021A641A6E42F001021A660D4AE8
:1031A0001B6E936843F0010393604FF080436B22E2
:1031B0009A624FF0FF32DA6200229A615A63DA6053
:1031C0005A6001225A6108211A601C20FFF774BC62
:1031D00000380240002004E01B4B1A696FEA42529B
:1031E0006FEA52521A611A69C2F30A021A614FF069
:1031F000FF301A695A69586100215A6959615A6940
:103200001A6A62F080521A621A6A02F080521A62D6
:103210001A6A5A6A58625A6A59625A6A0B4A10689C
:1032200040F480701060186F00F44070B0F5007FBB
:103230001EBF4FF4803018671967536823F400737A
:10324000536000F057B900BF0038024000700040E2
:10325000354B4FF080521A64344A4FF440411160AC
:103260001A6842F001021A601A689207FCD59A683F
:1032700022F003029A602C4B19469A6812F00C0255
:10328000FBD1186800F0F90018609A601A6842F4DF
:1032900080321A600B689B03FCD54B6F43F001032F
:1032A0004B67214B5A6F9007FCD5214A5A601A6828
:1032B00042F080721A601D4B1A4659684904FCD5C9
:1032C000196841F4803119605368D803FCD513683C
:1032D00043F400331360154A53689903FCD5124B2D
:1032E0001A689201FCD5134A9A6040F20112C3F8A1
:1032F0008C200022C3F890200F4A40F20731116061
:103300009A6842F002029A60074B9A6802F00C0237
:10331000082AFAD15A6C42F480425A645A6E42F436
:1033200080425A665B6E7047003802400070004071
:10333000086C400900948838003C0240084A08B5EF
:10334000536911680B4003F00103536123B1054A2F
:1033500013680BB150689847BDE80840FFF7D0BE2E
:10336000003C0140B0290120084A08B553691168A2
:103370000B4003F00203536123B1054A93680BB17C
:10338000D0689847BDE80840FFF7BABE003C01404E
:10339000B0290120084A08B5536911680B4003F0B1
:1033A0000403536123B1054A13690BB1506998476F
:1033B000BDE80840FFF7A4BE003C0140B029012051
:1033C000084A08B5536911680B4003F008035361BC
:1033D00023B1054A93690BB1D0699847BDE808400D
:1033E000FFF78EBE003C0140B0290120084A08B515
:1033F000536911680B4003F01003536123B1054A70
:10340000136A0BB1506A9847BDE80840FFF778BED1
:10341000003C0140B0290120174B10B55C691A68C7
:10342000144004F478725A61A30604D5134A936ACF
:103430000BB1D06A9847600604D5104A136B0BB1E4
:10344000506B9847210604D50C4A936B0BB1D06B97
:103450009847E20504D5094A136C0BB1506C9847A4
:10346000A30504D5054A936C0BB1D06C9847BDE811
:103470001040FFF745BE00BF003C0140B0290120CD
:103480001A4B10B55C691A68144004F47C425A6106
:10349000620504D5164A136D0BB1506D984723058C
:1034A00004D5134A936D0BB1D06D9847E00404D551
:1034B0000F4A136E0BB1506E9847A10404D50C4A05
:1034C000936E0BB1D06E9847620404D5084A136F0F
:1034D0000BB1506F9847230404D5054A936F0BB185
:1034E000D06F9847BDE81040FFF70ABE003C01408E
:1034F000B0290120062108B50846FFF7DDFA0621AC
:103500000720FFF7D9FA06210820FFF7D5FA062190
:103510000920FFF7D1FA06210A20FFF7CDFA06218C
:103520001720FFF7C9FA06212820BDE80840FFF759
:10353000C3BA000008B5FFF74FFEFDF711FDFDF718
:10354000CBFEFDF799FDFFF7C9FDBDE80840FFF789
:1035500095BC0000034611F8012B03F8012B002A4B
:10356000F9D17047121012131211000053544D3349
:1035700032463F3F3F3F3F3F0053544D3332463783
:103580005B347C355D780053544D333246375B36BF
:103590007C375D780000000000000000F10F00089B
:1035A000DD0F0008191000080510000811100008B0
:1035B000FD0F0008E90F0008D50F0008751000087E
:1035C00000000000010000000000000002000000F8
:1035D000000000001D120008851200084000400095
:1035E000082F0120182F0120020000000000000019
:1035F0000300000000000000C912000800000000E5
:1036000010000000282F0120000000000100000031
:1036100000000000BC31012001010200417264750C
:1036200050696C6F740025424F415244252D424C25
:10363000002553455249414C25000000311C00082B
:103640009D1B000889110008191C00084300000098
:103650005436000809024300020100C03209040088
:1036600000010202010005240010010524010001EF
:10367000042402020524060001070582030800FF56
:1036800009040100020A00000007050102400000D1
:10369000070581024000000012000000A03600086B
:1036A0001201100102000040830440570002010291
:1036B000030100000403090425424F415244250040
:1036C0004B616B75746546370030313233343536B3
:1036D000373839414243444546000000008000002D
:1036E0000080000000800000008000000000020058
:1036F00000000400000004000000040000000000BE
:103700002D14000805170008AD1700084000400000
:103710003432012034320120010000004432012003
:103720008000000040010000050000006D61696E2E
:10373000000000004C3700085032012048340120BE
:1037400001000000A52E00080000000069646C65FF
:10375000000000001000802A00000000AAAAAAAA07
:1037600000000000FBFF00000000000000A00A00B5
:103770000000000000000000AAAAAAAA00000000A1
:10378000FFFF00000000000000000000000000003B
:1037900000000000AAAAAAAA00000000FFFF000083
:1037A0000000000000000000000000000000000019
:1037B000AAAAAAAA00000000FFFF00000000000063
:1037C000000000000000000000000000AAAAAAAA51
:1037D00000000000FFFF00000000000000000000EB
:1037E0000000000000000000AAAAAAAA0000000031
:1037F000FFFF0000000000000000000000000000CB
:1038000000000000AAAAAAAA00000000FFFF000012
:1038100000000000000000000000000000000000A8
:103820000A0000000000000003000000000000008B
:103830000000000000000000000000000000000088
:103840000000000000000000000000000000000078
:103850000000000000000000000000000000000068
:103860000000000000000000000000000000000058
:103870000000000000000000000000000000000048
:103880000000000000000000FF0000000000000039
:103890006C3500083F00000049040000793500083D
:1038A0003F00000051040000873500083F00000081
:1038B000009600000000080004000000B436000874
:1038C00000000000000000000000000000000000F8
:0838D0000000000000000000F0
:00000001FF
