:020000040800F2
:1000000000040020E10100085D0F0008610F0008F6
:10001000B50F0008610F0008890F0008E301000810
:10002000E3010008E3010008E3010008412700089C
:10003000E3010008E3010008E3010008E301000810
:10004000E3010008E3010008E3010008E301000800
:10005000E3010008E3010008A9380008D5380008CA
:10006000013900082D39000859390008E30100085A
:10007000E3010008E3010008E3010008E3010008D0
:10008000E3010008E3010008E3010008E3010008C0
:10009000E3010008E3010008E301000885390008D6
:1000A000E3010008E3010008E3010008E3010008A0
:1000B000E3010008E3010008E3010008E301000890
:1000C000E3010008E3010008E3010008E301000880
:1000D000E3010008E30100081D100008E301000827
:1000E000ED390008E3010008E3010008E30100081E
:1000F000E3010008E3010008E3010008E301000850
:10010000E3010008E3010008B9360008E301000834
:10011000E3010008E3010008E3010008E30100082F
:10012000E3010008E3010008E3010008E30100081F
:10013000E3010008E3010008E3010008E30100080F
:10014000E3010008E3010008E30100082D2E000888
:10015000E3010008E3010008E3010008E3010008EF
:10016000E3010008E3010008E3010008E3010008DF
:10017000E3010008E3010008E3010008E3010008CF
:10018000E3010008E3010008E3010008E3010008BF
:10019000E3010008E3010008E3010008E3010008AF
:1001A000E3010008E3010008E3010008E30100089F
:1001B000E3010008E3010008E3010008E30100088F
:1001C000E3010008E3010008E3010008E30100087F
:1001D000E3010008E3010008E3010008E30100086F
:1001E00002E000F000F8FEE772B6394880F30888B4
:1001F000384880F3098838484EF60851CEF200019D
:10020000086040F20000CCF200004EF63471CEF2ED
:1002100000010860BFF34F8FBFF36F8F40F2000003
:10022000C0F2F0004EF68851CEF200010860BFF334
:100230004F8FBFF36F8F4FF00000E1EE100A4EF6C4
:100240003C71CEF200010860062080F31488BFF3F1
:100250006F8F02F0B3FA03F0C5F94FF055301F4924
:100260001B4A91423CBF41F8040BFAE71C49194A6A
:1002700091423CBF41F8040BFAE71A491A4A1B4B5A
:100280009A423EBF51F8040B42F8040BF8E70020F5
:100290001749184A91423CBF41F8040BFAE702F0B3
:1002A00091FA03F0FBF9144C144DAC4203DA54F804
:1002B000041B8847F9E700F03FF8114C114DAC42A0
:1002C00003DA54F8041B8847F9E702F079BA000012
:1002D000000400200024002000000008000000208E
:1002E00000040020883E000800240020282400206C
:1002F00028240020C0380020E0010008E0010008A8
:10030000E0010008E00100082DE9F04F2DED108A12
:10031000C1F80CD0C3689D46BDEC108ABDE8F08FD3
:10032000002383F311882846A047002001F08AFEAD
:1003300001F03AFE00DFFEE770B5204C582300259F
:1003400023706FF03F061F236570A570E57025715F
:100350006571A571E57125726672A372E57200F090
:1003600025FD20B10F2325726672A372E57202F09B
:10037000BDF9044602F0DEF90546D8B9104B9C429F
:100380001AD001339C4218BF054641F2883404BF9D
:1003900001250024002002F0B3F90DB100F0B6F8F9
:1003A00000F088FD00F040FC204600F00DF900F060
:1003B000ADF8F9E70024EDE70446EBE72824002038
:1003C000010007B008B500F0ADFBA0F120035842D2
:1003D000584108BD07B5054B02211B88ADF8043014
:1003E00001A800F00BFC03B05DF804FBD43A000850
:1003F000064991F8243033B100230822086A81F8B5
:10040000243000F033BC0120704700BF4824002096
:100410002DE9F84F234C94F82430054688461746BA
:100420008BBB2E46DFF87C90002F38D094F824A0A8
:10043000BAF1000F05D12022FF214846266200F0C4
:1004400027FDCAF10805BD4228BF3D465FFA85FB7E
:10045000AD0041462A4604EB8A0000F0EFFC94F818
:100460002430A7EB0B079B445FFA8BFBBBF1080F13
:100470002E44A844FFB284F824B0D5D1FFF7B8FFCA
:100480000028D1D108E0266A06EB8306B042C9D025
:10049000FFF7AEFF0028C4D10020BDE8F88F01208F
:1004A000BDE8F88F4824002010B5202383F311887D
:1004B0001248C3680BB101F04BFE0023104A0F48ED
:1004C0004FF47A7101F008FE002383F311880D4C7C
:1004D000236813B12368013B2360636813B1636829
:1004E000013B6360084B1B7833B9636823B9022072
:1004F00000F09AFC3223636010BD00BF342400205A
:10050000A9040008782900207024002010B5254B8C
:10051000254953F8042F013200D110BD8B42F8D188
:10052000224C234B22689A423AD9224B9B6803F112
:10053000006303F580439A4232D2002000F08EFB24
:100540001D4B0220187000F065FC1C4B1A6C002239
:100550001A64196E1A66196E596C5A64596E5A6685
:100560005A6E5A6942F080025A615A6922F080023A
:100570005A615A691A6942F000521A611A6922F0E6
:1005800000521A611B6972B60D4A0E4B13601B684C
:100590002268202181F311889D4683F30888104743
:1005A00010BD00BFFC3F00081C40000804400008CC
:1005B000FF3F00082824002070240020003802405B
:1005C00008ED00E0004000082DE9F04F97B0B54C71
:1005D00000902022FF210EA8A66800F059FCB24A24
:1005E0001378A346A3B9B1480121C3601170202339
:1005F00083F31188C3680BB101F0AAFD0023AC4A54
:10060000AA484FF47A7101F067FD002383F3118843
:10061000009BA84A03B11360A749009F00230B70F9
:10062000536099461C461D469846DFF888A2012073
:1006300000F0F0FB002F00F03A82DAF80030002BD7
:1006400040F0358217B0BDE8F08F0220FFF7BAFE08
:10065000002840F02382009BB9F1000F08BF1F461D
:10066000964B1B88ADF82430022109A800F0C6FA89
:10067000DBE74FF47A7000F055FA031E0193EADBD2
:100680000220FFF79FFE82460028E4D0019B581EFF
:10069000042800F20582DFE800F0030E11141700B1
:1006A00016A8052340F8343D042100F0A7FA54466B
:1006B0004FF0000855E004217A48F6E7042180480D
:1006C000F3E704217F48F0E71C24204600F0C8FA35
:1006D00004340990042109A800F090FA2C2CF4D1DC
:1006E000E5E7002DB7D0002CB5D00220FFF76AFE59
:1006F0000546002800F0D78101206F4C00F0AEFACB
:100700000220207000F086FB4FF000095FFA89FAA2
:10071000504600F0B3FA074658B1504600F0BEFA12
:1007200009F101090028F1D12C46A9460027664BA2
:1007300097E701230220237000F062FB3E46DBF8BE
:1007400008309E4206D2304600F08AFA0130EBD1E2
:100750000436F4E7574B002626705E60A9462C4607
:10076000374600F09DFB15B1002C18BF0027FFF79E
:1007700031FE5AE7002D3FF46EAF002C3FF46BAF13
:100780004D4B0220187000F045FB322000F0CAF9F2
:10079000B0F1000AC0F287811AF0030540F08381AE
:1007A000DBF8082006EB0A03934200F27C81BAF5DD
:1007B000807F00F27881454B019355450DDA4FF467
:1007C0007A7000F0AFF90290029A002AC0F26B81B1
:1007D000019B029AEA540135EEE7C820FFF7F2FDCB
:1007E0000546002800F05F811F2E11D8C6F12004B5
:1007F000544528BF54460EAB26F003002246334929
:10080000184400F01BFB2246FF21304800F040FB5B
:100810004FEAAA0A5FFA8AF22C493046FFF7F8FD40
:100820000446002800F0418106EB8A06054698E759
:100830000220FFF7C7FD00283FF40DAFFFF7D8FDFA
:1008400000283FF408AF00229246DBF808309A42B5
:100850005AD21F2A1ED80E9B01331BD022F003034D
:1008600016A90B4453F8203C0993194843688BB3ED
:10087000174800210DF1240E11F80E3083EA0A0307
:10088000DBB2013150F82330042983EA1A2AF3D16C
:100890000432DAE71046019200F0E2F9019A099079
:1008A000E3E700BF28240020742500203424002022
:1008B000A90400087829002070240020D63A0008F6
:1008C0002C24002030240020D83A00087424002072
:1008D0007825002019464FF0080E11F0010F4FEA5D
:1008E00051011FBF81F06D4181F4380181F4034152
:1008F00081F02001BEF1010EEFD140F82310013349
:10090000B3F5807FE6D1B3E716A8042140F84CADDB
:1009100000F074F925E716A8002340F8343D64215F
:1009200000F038F900287FF496AE0220FFF74AFD68
:1009300000283FF490AE099800F0C2F916AB43F8D6
:10094000480D04211846E3E716A8002340F8343D7B
:10095000642100F01FF900287FF47DAE0220FFF72C
:1009600031FD00283FF477AE099800F0B7F916ABD7
:1009700043F8440DE5E70220FFF724FD00283FF48B
:100980006AAE00F0B1F916AB43F8400DD9E702208A
:10099000FFF718FD00283FF45EAE09A9142000F00F
:1009A000A9F9824616A8042140F83CAD00F026F9CA
:1009B000514609A8ACE7322000F0B4F8B0F1000AC3
:1009C000FFF649AE1AF0030F7FF445AEDBF80820BE
:1009D0000AEB080393423FF63EAE0220FFF7F2FC1B
:1009E00000283FF438AE2AF0030AC244C2453FF45F
:1009F000B8AE404600F034F90421089008A800F091
:100A0000FDF808F10408F1E74FF47A70FFF7DAFC1B
:100A100000283FF420AEFFF7EBFC00283FF487AE40
:100A20000E9B01330CD008220EA90020FFF7F0FC2A
:100A300000283FF47CAE2022FF210EA800F028FA07
:100A4000FFF7C8FC364801F003FBFBE5002D3FF43F
:100A500002AE002C3FF4FFAD16A8002340F8343D51
:100A6000642100F097F8824600287FF4F4AD02205C
:100A7000FFF7A8FC00283FF4EEAD0190FFF7AAFCB9
:100A800041F2883001F0E4FA099800F047FA00F0EA
:100A900007FA019B57461C461D46C6E5054660E61B
:100AA0004FF00008D7E52546D5E52C463FE6002067
:100AB00000F038F80290029B002BFFF6BBAD01203E
:100AC00000F09EF9029B213B122B3FF6B0AD01A234
:100AD00052F823F04B06000873060008E3060008EE
:100AE0002F0600082F0600082F06000875070008CB
:100AF000B70900083108000817090008490900086B
:100B0000770900082F0600088F0900082F06000843
:100B1000090A0008630700082F0600084D0A0008AC
:100B2000A08601002DE9F34702AE00244FF47A7548
:100B300006F8014D144FDFF85880454397F900300F
:100B40005A1C5FFA84F901D0A34212D158F824004C
:100B500003680122D3F820A031462B46D047012854
:100B600007D10A4B9DF8070083F8009002B0BDE85A
:100B7000F0870134022CE1D14FF4FA7001F068FAE9
:100B80004FF0FF30F2E700BF00240020982900203A
:100B90002C3B00082DE9F0474FF47A75144FDFF82D
:100BA000588006464D43002497F900305A1C5FFADE
:100BB00084F901D0A34210D158F82400036804221C
:100BC000D3F820A031462B46D047042805D1094B45
:100BD00083F800900020BDE8F0870134022CE3D1B7
:100BE0004FF4FA7001F034FA4FF0FF30BDE8F087AF
:100BF00000240020982900202C3B000830B4074B2B
:100C00001A78074B53F822402368DD69054B0A46E2
:100C1000AC460146204630BC604700BF9829002002
:100C20002C3B0008A086010070B501F05BFC094C6C
:100C3000094E2070002530682378834208D901F0DE
:100C40004BFC336805440133B5F5804F3360F2D374
:100C500070BD00BF992900208029002001F0F8BC58
:100C600000F1006000F580400068704700F100600E
:100C7000920000F5804001F083BC0000054B1A682B
:100C8000054B1B789B1A834202D9104401F024BC07
:100C900000207047802900209929002038B5074D91
:100CA00004462868204401F01FFC28B92868204425
:100CB000BDE8384001F030BC38BD00BF80290020BD
:100CC00010F0030308D1B0F5007F05D800F1005003
:100CD000A0F508400068704700207047014BC058DD
:100CE000704700BF107AFF1F014B1868704700BFA4
:100CF000002004E070B52A4B1C68C4F30B03240CDD
:100D000063B140F21342934231D040F21942934210
:100D10002FD040F2214293422DD10323214A0C25AA
:100D200005FB03235D6893F9082042F201039C420E
:100D300024D0B4F5805F23D041F201039C4221D03E
:100D400041F203039C421FD041F207039C4208BFBB
:100D50003122441E0C44013D0B46A3421ED215F91C
:100D6000016F581C96B1034600F8016CF5E70123AA
:100D7000D4E70223D2E73F220B4DD6E73322E3E745
:100D80004122E1E75A22E4E75922E2E72C25844296
:100D90001D7001D9981C5A70401A70BD1846FBE7A7
:100DA000002004E0FC3A0008DC3A0008124B5A88A4
:100DB00042F201018A4293B214D0B3F5805F13D09E
:100DC00041F20102934211D041F2030293420FD04B
:100DD00041F2070293420DD10423084A02EB830338
:100DE000D87870470023F8E70123F6E70223F4E7F9
:100DF0000323F2E700207047002004E0E83A0008EF
:100E0000022802BF024B4FF480729A61704700BF04
:100E100000000240022802BF024B4FF080729A612C
:100E2000704700BF00000240022801BF024A536918
:100E300083F48073536170470000024010B50023B3
:100E4000934203D0CC5CC4540133F9E710BD0000D9
:100E500030B5441E14F9010F0B4660B193F90050F0
:100E6000854201F1010106D11AB993F90020801AD7
:100E700030BD013AEEE7002AF7D1104630BD000040
:100E800002460346981A13F9011B0029FAD170474C
:100E900002440346934202D003F8011BFAE770476D
:100EA000024B1A78024B1A70704700BF9829002035
:100EB0000024002038B5134C134D204600F010FCE0
:100EC0002946204600F038FC2D6810486A6D936B67
:100ED00023F40023936301F0BBF80D49284600F08A
:100EE00037FD6A6D0B48936B0B4943F40023936302
:100EF000A0424FF4E1330B6003D0BDE8384000F06E
:100F00004DBB38BDC42E00200C3C000840420F00F1
:100F1000343C00081C2A00208429002038B50B4BE3
:100F20001A780B4B53F822400A4B9C4205460CD0D2
:100F3000094B002118461422FFF7AAFF056001465D
:100F40002046BDE8384000F029BB38BD9829002074
:100F50002C3B0008C42E002084290020FEE700005E
:100F600000B59BB0EFF3098168226846FFF766FF82
:100F7000EFF30583034B9A6B9A6A9A6A9A6A9A6AA4
:100F80009B6AFEE700ED00E000B59BB0EFF309813E
:100F900068226846FFF752FFEFF30583044B9A6B14
:100FA0009A6A9A6A9A6A9A6A9A6A9B6AFEE700BF84
:100FB00000ED00E000B59BB0EFF3098168226846C0
:100FC000FFF73CFFEFF30583034B5A6B9A6A9A6A6B
:100FD0009A6A9A6A9B6AFEE700ED00E000230449E2
:100FE0001A465A50C8180833802B4260F9D170470E
:100FF0009C290020024AD36843F0C003D3607047A5
:1010000000440040044B5A6810439A6858600AB183
:10101000181D1047704700BF1C2A00202DE9F04121
:101020003D4ED6F85C54EF682B68DA059CB20CD5BF
:10103000202383F311884FF40070FFF7E3FF6FF470
:1010400080732B60002383F31188202383F311889E
:10105000DFF8C48014F02F0331D183F311883806F0
:1010600013D5210611D5202383F311882B4800F0D6
:10107000F3F9002844DA0820FFF7C4FF4FF67F7326
:101080003B40EB60002383F311887A060DD563069D
:101090000BD5202383F31188F26C336D9A4201D172
:1010A000336C7BBB002383F31188D6F86424D368A8
:1010B0000BB110699847BDE8F04101F051BB23071F
:1010C00012D014F0080F0CBF00208020E10748BFA9
:1010D00040F02000A20748BF40F04000630748BF2F
:1010E00040F48070FFF78EFFA4066B6805D596F874
:1010F00060144046194000F05FFA2C68A4B2A9E7DA
:101100006860BFE727F040073F0410203F0CFFF75F
:1011100079FFEF60C6E700BF1C2A0020542A002098
:1011200010B5054C054A0021204600F015FA044B85
:10113000C4F85C3410BD00BF1C2A0020F50F000865
:101140000044004038B5294C037C002918BF0C46E8
:10115000012B0546C0F8644410D1254B98420DD1AF
:10116000244B1A6C42F400321A641A6E42F40032B4
:101170001A660B2126201B6E00F046F81E4BD5F890
:101180005C249A42236802D01C498A422BD11C4914
:1011900001EB5301B1FBF3F3A188080442BF23F034
:1011A000070003F0070343EA40039360E38843F03A
:1011B00040039BB21361238943F001039BB2536147
:1011C00041F4045343F02C03D36001F4A0510023F5
:1011D0001360B1F5806F136853680CBF7F23FF2342
:1011E00085F8603438BD0749D2E700BF543B00089A
:1011F0001C2A002000380240001001400014014069
:1012000000BD010580DE800200F1604300F01F0296
:10121000400903F5614309018000C9B200F1604053
:1012200083F8001300F5614001239340C0F880313A
:1012300003607047F8B5154682680669AA420B46F6
:10124000816938BF8568761AB542044607D21846C8
:101250002A46FFF7F3FDA3692B44A3610DE011D9E2
:1012600032461846FFF7EAFDAF1B3A46E1683044C4
:10127000FFF7E4FDE2683A44A261A3685B1BA36048
:101280002846F8BD18462A46FFF7D8FDE368E4E78C
:1012900083682DE9F041044693421546266938BF1C
:1012A00085684069361AB5420F4606D22A46FFF7CE
:1012B000C5FD63692B4463610DE012D93246A5EB8D
:1012C0000608FFF7BBFD4246B919E068FFF7B6FD17
:1012D000E26842446261A3685B1BA3602846BDE8E4
:1012E000F0812A46FFF7AAFDE368E4E710B50A4457
:1012F0000024C361029B006040608460C160816122
:1013000041610261036210BD08B58269436993427D
:1013100001D1826882B98268013282605A1C4261BE
:101320001970426903699A4201D3C368436100217D
:1013300000F0AAFE002008BD4FF0FF3008BD0000FD
:1013400070B5202304460E4683F31188A568A5B125
:10135000A368A269013BA360531CA36115782269AD
:10136000934224BFE368A361E3690BB12046984729
:10137000002383F31188284670BD3146204600F0D3
:1013800073FE0028E2DA85F3118870BD2DE9F74F6E
:1013900005460F4690469A46D0F81C90202686F3C4
:1013A00011884FF0000B144664B122463946284696
:1013B000FFF740FF034668B95146284600F054FE47
:1013C0000028F1D0002383F31188A8EB040003B0B8
:1013D000BDE8F08FB9F1000F03D001902846C8474F
:1013E000019B8BF31188E41A1F4486F31188DBE715
:1013F000C16081614161C3611144009B0060406034
:101400008260016103627047F8B504460E461746D4
:10141000202383F31188A568A5B1A368013BA360CD
:1014200063695A1C62611E70236962699A4224BF13
:10143000E3686361E3690BB120469847002080F3BD
:101440001188F8BD3946204600F00EFE0028E2DA89
:1014500085F31188F8BD0000836942699A4210B58E
:1014600001D182687AB98268013282605A1C826135
:101470001C7803699A4201D3C3688361002100F09C
:1014800003FE204610BD4FF0FF3010BD2DE9F74F91
:1014900005460F4690469A46D0F81C90202686F3C3
:1014A00011884FF0000B144664B122463946284695
:1014B000FFF7EEFE034668B95146284600F0D4FD1A
:1014C0000028F1D0002383F31188A8EB040003B0B7
:1014D000BDE8F08FB9F1000F03D001902846C8474E
:1014E000019B8BF31188E41A1F4486F31188DBE714
:1014F000026843681143016003B118477047000058
:101500001430FFF743BF00004FF0FF331430FFF7F4
:101510003DBF00003830FFF7B9BF00004FF0FF3388
:101520003830FFF7B3BF00001430FFF709BF0000E9
:101530004FF0FF311430FFF703BF00003830FFF7E2
:1015400063BF00004FF0FF323830FFF75DBF00008F
:1015500000207047FFF7E4BD37B50F4B0360002351
:1015600043608360C3600123044603741546009002
:101570000B464FF4007200F15C011430FFF7B6FE29
:1015800000942B464FF4007204F5177104F13800F3
:10159000FFF72EFF03B030BD683B000810B52023D5
:1015A000044683F31188FFF7CDFD02232374002343
:1015B00083F3118810BD000038B5C36904460D4699
:1015C0001BB904210844FFF793FF294604F11400D6
:1015D000FFF79AFE002806DA201D4FF48061BDE86F
:1015E0003840FFF785BF38BD02684368114301608A
:1015F00003B118477047000013B5446BD4F8943416
:101600001A681178042915D1217C022912D119797F
:10161000128901238B4013420CD101A904F14C0023
:1016200001F054FED4F89444019B217902462068CD
:1016300000F0DAF902B010BD143001F0D7BD00009F
:101640004FF0FF33143001F0D1BD00004C3001F0F9
:10165000A9BE00004FF0FF334C3001F0A3BE0000E4
:10166000143001F0A5BD00004FF0FF31143001F03F
:101670009FBD00004C3001F075BE00004FF0FF32FE
:101680004C3001F06FBE0000D0F8942438B51368D8
:1016900019780429054601D0012038BD017C0229B2
:1016A000FAD112795C89012090400440F4D105F10F
:1016B000140001F037FD02460028EDD0D5F894540F
:1016C0004FF480732868697900F07CF9204638BDB2
:1016D000406BFFF7D9BF0000002070477047000043
:1016E0007FB5124B0360002343608360C360012514
:1016F00002260F4B057404460290019300F1840208
:10170000294600964FF48073143001F0E7FC094B32
:101710000193029400964FF4807304F523722946D6
:1017200004F14C0001F0AEFD04B070BD903B000828
:10173000D1160008F91500080B68202282F31188E1
:101740000A7903EB820290614A79093243F8220058
:101750008A7912B103EB8203986102230374C0F803
:101760009414002383F311887047000038B5037F79
:10177000044613B190F85430ABB9201D0125022165
:10178000FFF732FF04F1140025776FF0010100F03C
:1017900087FC84F8545004F14C006FF00101BDE85F
:1017A000384000F07DBC38BD10B50121044604303E
:1017B000FFF71AFF0023237784F8543010BD000090
:1017C00038B504460025143001F0A0FC04F14C00AB
:1017D000257701F06FFD201D84F854500121FFF79B
:1017E00003FF2046BDE83840FFF74EBF90F8443075
:1017F00003F06003202B19D190F84520212A0AD04C
:10180000222A4FF000030ED0202A0FD1084A82630B
:101810000722C26304E0064B83630723C3630023EC
:101820000364012070478363C363F9E700207047B6
:1018300001240020D0F8943437B51A6811780429AF
:1018400004461AD1017C022917D119791289012382
:101850008B40134211D100F14C05284601F0EAFDFE
:1018600058B101A9284601F031FDD4F89444019BF8
:1018700021790246206800F0B7F803B030BD0000BF
:1018800000EB8103F7B59C6905460E46F4B12023B1
:1018900083F3118805EB8607201D0821FFF7A4FEBE
:1018A000FB685B691B684C3413B1204601F01CFDDA
:1018B00001A9204601F00AFD024648B1019B3146CC
:1018C000284600F091F8002383F3118803B0F0BD9F
:1018D000FB685A691268002AF5D01B8A013B134045
:1018E000F1D105F14402EAE7093138B550F8214059
:1018F000DCB1202383F31188D4F89424136852793F
:1019000003EB8203DB689B695D6845B104216018C5
:10191000FFF76AFE294604F1140001F00DFC204691
:10192000FFF7B2FE002383F3118838BD7047000033
:1019300000F0CEBF0123037000234360C3618362C4
:101940000362C36243620363038143817047000003
:1019500038B50446202383F3118800254160C56013
:1019600005614561856100F0C3FF0223237085F3A3
:10197000118838BD70B500EB810305465069DA6007
:101980000E46144618B110220021FFF781FAA06913
:1019900018B110220021FFF77BFA31462846BDE836
:1019A000704001F06FB80000028902F0010202816C
:1019B000428902F001024281002202614261826199
:1019C00001F0F4B8F0B400EB81044789E468012524
:1019D000A4698D403D43458123600023A26063607C
:1019E000F0BC01F00FB90000F0B400EB81040789EE
:1019F000E468012564698D403D430581236000232F
:101A0000A2606360F0BC01F089B9000070B50223E8
:101A1000002504460370A0F84C5080F84E5080F822
:101A20004F5005814581C56005614561856180F83C
:101A3000345000F0C3FF63681B6823B12946204679
:101A4000BDE87040184770BD436802781B6880F895
:101A50005020052202700BB1042118477047000086
:101A6000436890F850201B6802700BB1052118479D
:101A70007047000090F8343070B5044613B100236D
:101A800080F8343004F14402204601F0B1F8636874
:101A90009B6863BB94F8445015F0600615D194F828
:101AA000453005F07F0545EA032540F202339D42AB
:101AB00000F00E815BD8022D00F0DC803FD8002DB5
:101AC00000F08780012D00F0CF800021204601F03A
:101AD000E7FA0021204601F0D9FA63681B6813B1C8
:101AE000062120469847062384F8343070BD2046EE
:101AF00098470028CED094F84B2094F84A3043EA17
:101B00000223E26B934238BFE36394F94430E56B00
:101B1000002B4FF0200380F2FD80002D00F0EC80C0
:101B2000092284F8342083F311880021E36BA26B2F
:101B30002046FFF759FF002383F3118870BDB5F5E8
:101B4000817F00F0B180B5F5407F49D0B5F5807F49
:101B5000BBD194F84630012BB7D1B4F84C3023F008
:101B60000203A4F84C30A663E6632664C3E740F2A0
:101B700001639D421ED8B5F5C06F3BD2B5F5A06F8D
:101B8000A3D1B4F84430B3F5A06F0ED194F8463029
:101B900084F84E30204600F069FF63681B6813B17B
:101BA000012120469847032323700023A363E363A6
:101BB0002364A0E7B5F5106F32D040F602439D4292
:101BC00052D0B5F5006F80D104F14F03A363012318
:101BD00024E004F14C03A3630223E36325648AE752
:101BE00094F84630012B7FF470AFB4F84C3043F0DA
:101BF0000203B6E794F84920616894F848304D68CC
:101C000094F8471043EA0223204694F84620A84758
:101C100000283FF45AAF4368A3630368E363A4E773
:101C20002378042B10D1202383F311882046FFF75B
:101C3000BBFE86F31188636884F84F601B6803213C
:101C400021700BB12046984794F84630002BACD059
:101C500084F84F300423237063681B68002BA4D0E2
:101C6000022120469847A0E7374BA3630223E36392
:101C700000239DE794F8481011F0800F204601F0F2
:101C80000F010ED000F0A6FF012806D002287FF435
:101C90001CAF2E4BA363E06367E72D4BA363E563A3
:101CA00063E700F089FFEFE794F84630002B7FF4FC
:101CB0000CAF94F8483013F00F013FF476AF1A06DA
:101CC000204602D501F000FA6FE701F0F3F96CE766
:101CD00094F84630002B7FF4F8AE94F8483013F0B7
:101CE0000F013FF462AF1B06204602D501F0D8F980
:101CF0005BE701F0CBF958E7142284F8342083F332
:101D000011882B462A4629462046FFF75BFE85F3BD
:101D1000118870BD5DB1152284F8342083F31188D9
:101D20000021E36BA26B2046FFF74CFE03E70B227A
:101D300084F8342083F311882B462A46294620460E
:101D4000FFF752FEE3E700BFC03B0008B83B0008C6
:101D5000BC3B000838B590F834300446152B29D820
:101D6000DFE803F03E28282828283E28280B2939B8
:101D700028282828282828283E3E90F84B1090F83C
:101D80004A20C36B42EA01229A4214D9C268128ADD
:101D9000B3FBF2F502FB15356DB9202383F31188EF
:101DA0002B462A462946FFF71FFE85F311880A2392
:101DB00084F8343038BD142384F83430202383F37E
:101DC000118800231A4619462046FFF7FBFD002321
:101DD00083F3118838BD036C03B198470023E7E70C
:101DE000002101F05DF90021204601F04FF9636800
:101DF0001B6813B10621204698470623D8E7000048
:101E000090F83420152A38B5044622D8012393408F
:101E100040F6416213421DD113F480150FD19B028D
:101E200017D50B2380F83430202383F311882B46F9
:101E30002A462946FFF7D8FD85F3118838BDC368C7
:101E40009B695B682BB9036C03B19847002384F846
:101E5000343038BD002101F023F90021204601F083
:101E600015F963681B6813B10621204698470623BD
:101E7000EDE70000024B00221B605B609A60704738
:101E8000842E0020002303748268054B1B68996828
:101E90009142FBD25A6803604260106058607047FC
:101EA000842E002008B5202383F31188037C032BA4
:101EB00005D0042B0DD02BB983F3118808BD4369DD
:101EC00000221A604FF0FF334361FFF7DBFF00236E
:101ED000F2E790E80C001A6002685360F2E7000035
:101EE000002303748268054B1B6899689142FBD8F4
:101EF0005A6803604260106058607047842E00206A
:101F0000054B19690874186802681A6053601861F3
:101F100001230374FEF7F8B9842E002030B54B1C62
:101F200087B005460A4C10D023690A4A01A800F080
:101F3000D3F82846FFF7E4FF049B13B101A800F093
:101F400007F92369586907B030BDFFF7D9FFF8E7F3
:101F5000842E0020A51E000838B50C4D41612B6968
:101F600081689A689142044603D8BDE83840FFF77B
:101F700089BF1846FFF786FF01232C6101462374B1
:101F80002046BDE83840FEF7BFB900BF842E0020D0
:101F9000044B1A681B6990689B68984294BF0020A4
:101FA00001207047842E002010B5084C236820695A
:101FB0001A6822605460012223611A74FFF790FFAF
:101FC00001462069BDE81040FEF79EB9842E00202E
:101FD0008260022202740022427470478368A3F177
:101FE0007C0243F80C2C026943F83C2C426943F80C
:101FF000382C074A43F81C2CC26843F8102C0222E4
:1020000003F8082C002203F8072CA3F118007047EE
:102010002103000810B5202383F31188FFF7DEFFAA
:1020200000210446FFF798FF002383F31188204620
:1020300010BD0000024B1B6958610F20FFF760BF05
:10204000842E0020202383F31188FFF7F3BF0000C4
:1020500008B50146202383F311880820FFF75EFFAF
:10206000002383F3118808BD49B1064B42681B6900
:1020700018605A60136043600420FFF74FBF4FF0B1
:10208000FF307047842E00200368984206D01A68FB
:102090000260506059611846FFF7F4BE70470000B7
:1020A00038B504460D462068844200D138BD036827
:1020B00023605C604561FFF7E5FEF4E7054B03F143
:1020C00014025A619A614FF0FF32DA6100221A62FB
:1020D000704700BF842E0020F8B503611A4BC26020
:1020E0005C6A1A4B1A46022952F8145F38BF022163
:1020F000954206461F460AD1586198611C620560E8
:10210000456081600819BDE8F84001F0B5B9186A6A
:10211000AB68241A0C1902D3E41A2D6804E09C421F
:1021200002D2204401F0B8F9AB689C42F4D86B6845
:10213000736035601E606E60B460A9684FF0FF3355
:10214000091BA960FB61F8BD000C0040842E002033
:1021500010B41A4C234653F8141F814210D0416822
:1021600002680A60026851609A424FF00001C16043
:1021700003D0936881680B4493605DF8044B70470B
:102180000A68626100209A425360C86003D15DF81A
:10219000044B01F07BB99368886803449360084A54
:1021A000206A526A121A9342E7D9991A012998BFF4
:1021B000931C18445DF8044B01F06EB9842E002086
:1021C000000C004000207047FEE700007047000050
:1021D0004FF0FF3070470000022906D0032906D0D7
:1021E0000129064818BF0020704705487047032A98
:1021F0009ABF044800EBC20000207047903C0008E2
:10220000443C00080824002070B59AB001AD064691
:1022100008462946144600F095F82846FEF730FE99
:10222000C0B2431C5B0086E8180023700323637070
:10223000002302341946DAB2904204F1020401D8B4
:102240001AB070BDEA5C04F8022C04F8011C0133DA
:10225000F1E7000008B5202383F311880348FFF756
:10226000E9FA002383F3118808BD00BFC42E0020C3
:1022700010B50446052916D8DFE801F01615031637
:10228000161D202383F311880E4A0121FFF772FBEC
:1022900020460D4A0221FFF76DFB0C48FFF790FA2C
:1022A000002383F3118810BD202383F3118807488E
:1022B000FFF75CFAF4E7202383F311880348FFF764
:1022C00073FAEDE7C43B0008E83B0008C42E002089
:1022D00038B50C4D0C4C0D492A4604F10800FFF7A7
:1022E00093FF05F1CA0204F110000949FFF78CFFC2
:1022F00005F5CA7204F118000649BDE83840FFF739
:1023000083BF00BF8C33002008240020143C000849
:102310001E3C0008293C000870B5044608460D46DE
:10232000FEF7AEFDC6B22046013403780BB918465D
:1023300070BD32462946FEF78BFD0028F3D10120FF
:1023400070BD00002DE9F84F05460C46FEF798FDDC
:102350002B49C6B22846FFF7DFFF08B10236F6B2B6
:1023600028492846FFF7D8FF08B11036F6B2632E89
:102370000DD8DFF88C80DFF88C90234FDFF890A029
:10238000DFF890B02E7846B92670BDE8F88F294660
:102390002046BDE8F84F01F095BB252E2CD1072231
:1023A00041462846FEF754FD58B9DBF8003023605B
:1023B000DBF8043063609BF808302372073509347A
:1023C000E0E7082249462846FEF742FDA0B90F4B38
:1023D000A21C13F8011F09095345C95D02F8021C2C
:1023E000197801F00F0102F10202C95D02F8031C25
:1023F000EFD118340835C5E7267001350134C1E73F
:10240000B03C0008293C0008C23C00080F7AFF1FBE
:102410001B7AFF1FB83C0008BFF34F8F024AD368F6
:10242000DB03FCD4704700BF003C024008B5094BF9
:102430001B7873B9FFF7F0FF074B1A69002ABFBF7B
:10244000064A5A6002F188325A601A6822F48062A1
:102450001A6008BDEA350020003C024023016745B0
:1024600008B50B4B1B7893B9FFF7D6FF094B1A69D8
:1024700042F000421A611A6842F480521A601A68E7
:1024800022F480521A601A6842F480621A6008BD11
:10249000EA350020003C0240172870B513D80B4ADB
:1024A0000B4C137863B90B4E4FF0006144F82310C6
:1024B00056F823500133182B2944F7D10123137008
:1024C00054F8200070BD002070BD00BF4C360020C5
:1024D000EC350020D43C0008014B53F82000704735
:1024E000D43C000818207047172810B5044601D9BD
:1024F000002010BDFFF7D0FF064B53F824301844DE
:10250000C21A0BB9012010BD12680132F0D1043B90
:10251000F6E700BFD43C0008172810B5044629D8B8
:10252000FFF77AFFFFF782FF1349F323CB600C23F9
:10253000B0FBF3F203FB1200D30143EAC003DBB2AA
:1025400043F4007343F002030B610B6943F48033DF
:102550000B61FFF761FF2046FFF79EFF074B53F823
:10256000241000F0D9F8FFF77BFF2046BDE81040AB
:10257000FFF7BABF002010BD003C0240D43C000869
:102580002DE9F84312F00103154640D18218B2F14B
:10259000026F3CD22C4B1B6813F0010337D02B4C3D
:1025A000FFF744FFF323E360FFF736FF40F2012714
:1025B000032D01D9830713D0244C0F46401A40F253
:1025C0000118EB1B0B44012B00EB0706236924D8F1
:1025D00023F001032361FFF743FF0120BDE8F883E7
:1025E000236923F44073236123693B43236151F83A
:1025F000046B0660BFF34F8FFFF70EFF03689E4228
:1026000008D0236923F001032361FFF729FF00208D
:10261000BDE8F883043D0430CAE723F44073236126
:10262000236943EA08032361B94637F8023B338044
:10263000BFF34F8FFFF7F0FE3688B9F80030B6B21F
:10264000B342BED0DDE700BF00380240003C02408C
:10265000084908B50B7828B153B9FFF7E7FE012305
:102660000B7008BD23B1BDE808400870FFF7F8BE45
:1026700008BD00BFEA35002010B50244064B0439FE
:10268000D2B2904200D110BD441C00B253F82000D9
:1026900041F8040FE0B2F4E750280040104B30B589
:1026A0001C6F240407D41C6F44F400741C671C6F57
:1026B00044F400441C670B4C236843F4807323608C
:1026C0000244094B0439D2B2904200D130BD441CBF
:1026D00000B251F8045F43F82050E0B2F4E700BFC5
:1026E00000380240007000405028004007B5012229
:1026F00001A90020FFF7C0FF019803B05DF804FBBB
:1027000007B502A9012241F8040D0020FFF7C6FF1A
:1027100003B05DF804FB000070470000034B1B682A
:102720009B0042BF024B01221A707047743802406E
:102730004D360020014B1878704700BF4D36002001
:10274000064A536823F001035360EFF309836833AB
:1027500083F30988002383F31188704730EF00E08A
:1027600010B5202383F31188104B5B6813F40063CA
:1027700018D0F1EE103AEFF309844FF0807344F86B
:102780004C3C0B4BDB6844F8083CA4F1680383F332
:102790000988FFF7FDFB18B1064B44F8503C10BD0B
:1027A000054BFAE783F3118810BD00BF00ED00E090
:1027B00030EF00E0310300083403000870470000E8
:1027C000FEE70000084A094B09498B4204D3094A35
:1027D0000021934205D3704752F8040F43F8040BCD
:1027E000F3E743F8041BF4E7AC3E0008C0380020D0
:1027F000C0380020C0380020836D30B500229D68AD
:10280000446D11464FF0FF3004EB42130132954204
:10281000C3F80019C3F81019C3F80809C3F8001B5E
:10282000C3F8101BC3F8080BEED24FF00113C4F825
:102830001C3830BD890141F02001016103699B060C
:10284000FCD4122000F0B4BE204B03EB80022DE933
:10285000F047D2F80CE05D6DDEF81420461CD2F88B
:1028600000C005EB063605EB4018516861450BD3F7
:10287000D5F83428012303FA00F022EA0000C5F855
:1028800034081846BDE8F087BEF81040ACEB0103F1
:10289000A34228BF2346D8F81849A4B2B3EB840F4B
:1028A00010D894681F46A4F1040959F804AFC6F87B
:1028B00000A0042F01D9043FF7E71C440B449460A7
:1028C0005360D2E70020BDE8F08700BF50360020FB
:1028D00010B5054C2046FFF72DF84FF0A043636577
:1028E000024BA36510BD00BF50360020583D0008C4
:1028F0000378012B70B5054650D12A4B446D9842A0
:102900001BD1294B5A6B42F080025A635A6D42F038
:1029100080025A655A6D5A6942F080025A615A69BA
:1029200022F080025A610E2143205B69FEF76CFCA5
:102930001E4BE3601E4BC4F800380023C4F8003E71
:10294000C02323606E6D4FF45023A3633369002BC3
:10295000FCDA012333610C2000F02AFE3369DB0727
:10296000FCD4122000F024FE3369002BFCDA002690
:10297000A6602846FFF740FF6B68C4F81068DB6864
:10298000C4F81468C4F81C684BB90A4BA3614FF033
:10299000FF336361A36843F00103A36070BD064B7E
:1029A000F4E700BF503600200038024040140040D9
:1029B00003002002003C30C0083C30C0F8B5446D34
:1029C000054600212046FFF735FFA96D00234FF093
:1029D00001128F68C4F834384FF00066C4F81C2820
:1029E0004FF0FF3004EB431201339F42C2F80069FD
:1029F000C2F8006BC2F80809C2F8080BF2D20B68E3
:102A00006A6DEB65636210231361166916F0100698
:102A1000FBD1122000F0CCFDD4F8003823F4FE6383
:102A2000C4F80038A36943F4402343F01003A361C2
:102A30000923C4F81038C4F814380A4BEB604FF07F
:102A4000C043C4F8103B084BC4F8003BC4F81069FD
:102A5000C4F80039EB6D03F1100243F48013EA650A
:102A6000A362F8BD343D000840800010426D90F82C
:102A70004E10D2F8003823F4FE6343EA0113C2F883
:102A8000003870472DE9F0410EB200EB86080D4684
:102A9000D8F80C100F6807F00303022B50D0032B5B
:102AA00050D03D4A3D4F012B18BF1746446D4FEAA9
:102AB000451E04EB0E030022C3F8102B8A6905F1B2
:102AC000100C002A40D04A8A05F158035B013A43B2
:102AD000E2500123D4F81C2803FA0CF31343A64454
:102AE0004A69C4F81C380023CEF8103905F13F03B9
:102AF000002A39D00A8A898B9208012988BF4A4363
:102B0000C16D04EB8303561841EA0242C6652946AB
:102B10005A602046FFF78EFED8F80C301B8A43EA35
:102B200085531F4305F148035B01E7500123D4F8A7
:102B30001C2803FA05F51543C4F81C58BDE8F081BC
:102B4000174FB3E7174FB1E704EB4613D3F8002B49
:102B500022F40042C3F8002BD4F81C28012303FA06
:102B60000CF322EA0303BAE704EB83030E4A5A602C
:102B700004EB461629462046FFF75CFED6F80039DE
:102B800023F40043C6F80039D4F81C38012202FAB5
:102B900005F523EA0505CFE700800010008004104A
:102BA0000080081000800C1000040002826D126882
:102BB000C265FFF721BE00005831436D49015B58E3
:102BC00013F4004004D013F4001F14BF01200220AE
:102BD000704700004831436D49015B5813F40040D1
:102BE00004D013F4001F14BF01200220704700001E
:102BF00000EB8101CB68196A0B6813604B68536066
:102C00007047000000EB810330B5DD68AA691368E6
:102C1000D36019B9402B84BF402313606B8A1468BA
:102C2000426D1C44013CB4FBF3F46343033323F0D3
:102C3000030302EB411043EAC44343F0C043C0F82E
:102C4000103B2B6803F00303012B09B20ED1D2F81D
:102C5000083802EB411013F4807FD0F8003B14BF1A
:102C600043F0805343F00053C0F8003B02EB4112A5
:102C7000D2F8003B43F00443C2F8003B30BD0000F3
:102C80002DE9F041244D6E6D06EB40130446D3F858
:102C9000087BC3F8087B38070AD5D6F8143819071B
:102CA00006D505EB84032146DB6828465B68984718
:102CB000FA072FD5D6F81438DB072BD505EB84039C
:102CC000D968CCB98B69488A5E68B6FBF0F200FB24
:102CD00012628AB91868DA6890420DD2121A83E833
:102CE0001400202383F311880B482146FFF78AFF45
:102CF00084F31188BDE8F081012303FA04F26B89A3
:102D000023EA02036B81CB6823B121460248BDE868
:102D1000F0411847BDE8F0815036002000EB8103F8
:102D200070B5DD68436D6C692668E6604A0156BB84
:102D30001A444FF40020C2F810092A6802F0030276
:102D4000012A0AB20ED1D3F8080803EB421410F49A
:102D5000807FD4F8000914BF40F0805040F000504C
:102D6000C4F8000903EB4212D2F8000940F0044015
:102D7000C2F80009D3F83408012202FA01F1014334
:102D8000C3F8341870BD19B9402E84BF40202060AC
:102D900020682E8A841940F00050013C1A44B4FB8C
:102DA000F6F440EAC440C6E7F8B504461E48456D4F
:102DB00005EB4413D3F80869C3F80869F10717D580
:102DC000D5F81038DA0713D500EB8403D9684B69BE
:102DD0001F68DA68974218D2D21B00271A605F601A
:102DE000202383F311882146FFF798FF87F311888A
:102DF000330617D5D5F834280123A340134211D048
:102E00002046BDE8F840FFF71FBD012303FA04F296
:102E1000038923EA020303818B68002BE8D0214653
:102E20009847E5E7F8BD00BF5036002096482DE9E9
:102E3000F84F456D6E69AB691E4016F4805F6E6198
:102E4000044605D0FEF7E2FDBDE8F84FFFF788BC69
:102E5000002E12DAD5F8003E8B489B071EBFD5F82E
:102E6000003E23F00303C5F8003ED5F8043823F0F4
:102E70000103C5F80438FEF7F3FD370502D5824893
:102E8000FEF7E2FDB0040CD5D5F8083813F0060FB4
:102E9000EB6823F470530CBF43F4105343F4A05376
:102EA000EB60310704D56368DB680BB1764898475F
:102EB000F2025AD4B3020CD5D4F85480DFF8C8A17A
:102EC00000274FF00109A36D9B68F9B28B4280F097
:102ED0008780F70619D5616D0A6AC2F30A1702F0F6
:102EE0000F0302F4F012B2F5802F00F0A180B2F5CA
:102EF000402F0AD104EB830301F58051DB68186A87
:102F000000231A469F4240F087803003D5F81848C6
:102F100013D5E10302D50020FFF7B2FEA20302D5CC
:102F20000120FFF7ADFE630302D50220FFF7A8FEE4
:102F3000270302D50320FFF7A3FE750384D5E0071E
:102F400002D50020FFF730FFA10702D50120FFF7CF
:102F50002BFF620702D50220FFF726FF23077FF52C
:102F600073AF0320FFF720FF6EE7D4F85480DFF83B
:102F700018A100274FF00109A36D9B685FFA87FB3A
:102F80005B4597D308EB4B13D3F8002902F440229A
:102F9000B2F5802F22D1D3F80029002A1EDAD3F807
:102FA000002942F09042C3F80029D3F80029002AF2
:102FB000FBDB5946606DFFF73DFC228909FA0BF3F4
:102FC00022EA0303238104EB8B03DB689B6813B1C4
:102FD0005946504698475846FFF736FC0137CBE72D
:102FE00008EB4112D2F8003B03F44023B3F5802FE5
:102FF00010D1D2F8003B002B0CDA628909FA01F3F8
:1030000022EA0303638104EB8103DB68DB680BB115
:1030100050469847013756E79C0708BF0A68072BB8
:1030200098BF027003F101039CBF120A013069E7E7
:10303000023304EB830201F5805152689069026803
:10304000D0F808C04068A2EB000E0022104697425C
:103050000AD104EB830463689B699A683A449A60D6
:103060005A6817445F6050E712F0030F08BF086802
:10307000964588BF8CF8000002F1010284BF000A67
:103080000CF1010CE3E700BF50360020436D03EB69
:103090004111D1F8003B43F40013C1F8003B7047E5
:1030A000436D03EB4111D1F8003943F40013C1F82B
:1030B00000397047436D03EB4111D1F8003B23F415
:1030C0000013C1F8003B7047436D03EB4111D1F889
:1030D000003923F40013C1F80039704730B5039C60
:1030E0000172043304FB0325C361049B03630021C5
:1030F000059B00604060C1604261026185610462BD
:1031000042628162C162436330BD00000022416AB5
:1031100041610161C2608262C2626FF00101FEF72B
:10312000BFBF000003694269934203D1C2680AB17C
:1031300000207047181D704703691960C26801328A
:10314000C260C269134482690361934224BF436A27
:1031500003610021FEF798BF38B504460D46E368C9
:103160003BB16269131D1268A3621344E36200203D
:1031700038BD237A33B929462046FEF775FF00286B
:10318000EDDA38BD6FF00100FBE70000C368C269EB
:10319000013BC3604369134482694361934224BF86
:1031A000436A436100238362036B03B1184770478E
:1031B00070B52023044683F31188866A3EB9FFF771
:1031C000CBFF054618B186F31188284670BDA36A67
:1031D000E26A13F8015BA362934202D32046FFF731
:1031E000D5FF002383F31188EFE700002DE9F84FA6
:1031F00004460E4690469946202787F311880025FD
:10320000AA46D4F828B0BBF1000F09D149462046A0
:10321000FFF7A2FF20B18BF311882846BDE8F88F95
:10322000A16AE36AA8EB050B5B1A9B4528BF9B4686
:10323000BBF1400F1BD9334601F1400251F8040B9A
:1032400043F8040B9142F9D1A36A40334036A3629C
:103250004035A26AE36A9A4202D32046FFF796FFFE
:103260008AF311884545D8D287F31188C9E73046DB
:103270005A46FDF7E3FDA36A5B445E44A3625D44E6
:10328000E7E7000010B5029C0172043303FB042140
:10329000C36100238362C362039B0363049B0060DA
:1032A0004060C460426102618161046242624363C2
:1032B00010BD0000026AC260426A426102610022DF
:1032C0008262C2626FF00101FEF7EABE43690269E1
:1032D0009A4203D1C2680AB100207047184650F8DC
:1032E000043B0B6070470000C368C2690133C360D0
:1032F0004369134482694361934224BF436A436133
:103300000021FEF7C1BE000038B504460D46E36853
:103310003BB123691A1DA262E2691344E3620020F3
:1033200038BD237A33B929462046FEF79DFE002892
:10333000EDDA38BD6FF00100FBE7000003691960AA
:10334000C268013AC260C269134482690361934250
:1033500024BF436A036100238362036B03B11847F0
:103360007047000070B5202304460E4683F3118891
:10337000856A35B91146FFF7C7FF10B185F311888B
:1033800070BDA36A1E70A36AE26A01339342A3620E
:1033900004D3E16920460439FFF7D0FF002080F311
:1033A000118870BD2DE9F84F04460D4691469A46A6
:1033B0004FF0200888F311880026B346A76A4FB95A
:1033C00051462046FFF7A0FF20B187F31188304611
:1033D000BDE8F88FA06AE76AA9EB06033F1A9F428F
:1033E00028BF1F46402F1BD905F1400355F8042B79
:1033F00040F8042B9D42F9D1A36A4033A3624036C2
:10340000A26AE36A9A4204D3E16920460439FFF7CD
:1034100095FF8BF311884E45D9D288F31188CDE7FB
:1034200029463A46FDF70AFDA36A3B443D44A362A0
:103430003E44E5E7026943699A4203D1C3681BB978
:10344000184670470023FBE7836A002BF8D0043B43
:103450009B1AF5D01360C368013BC360C3691A446B
:10346000836902619A4224BF436A03610023836235
:103470000123E5E700F034B9034B002258631A61D9
:103480000222DA60704700BF000C0040014B0022AE
:10349000DA607047000C0040014B5863704700BF72
:1034A000000C0040FEE7000010B5174CFEF7E2FCF0
:1034B000FEF704FE802215492046FEF789FD012310
:1034C00044F8180C0374124B124AD96821F4E061D5
:1034D0000904090C0A431049DA60CA6842F0807294
:1034E000CA600E490A6842F001020A601022DA77C7
:1034F000202283F82220002383F3118862B6084833
:10350000BDE81040FEF786BDAC2E0020643D0008EB
:1035100000ED00E00003FA05F0ED00E0001000E02F
:103520006C3D00082DE9F84F1F4CDFF8809065696D
:1035300004F114074FF00008D9F82430266AAA686D
:103540009E1B96421DD34FF0200AAA68236AD5F825
:103550000CB0134423622B68BB425F60A6EB0206EB
:103560006361C5F80C8001D1FFF790FF88F31188E3
:103570002869D8478AF311886569AB689E42E4D20E
:10358000DAE76269BA420CD0916823628E1B9660BA
:10359000A86802282CBF1818981CBDE8F84FFFF740
:1035A0007BBFBDE8F88F00BF842E0020000C0040D8
:1035B000034B59685A68521A9042FBD8704700BFB3
:1035C000001000E04B6843608B688360CB68C36089
:1035D0000B6943614B6903628B6943620B6803604B
:1035E0007047000008B5224B22481A6940F2FF11CB
:1035F0000A431A611A6922F4FF7222F001021A6169
:103600001A691A6B0A431A631A6D0A431A651A4A31
:103610001B6D1146FFF7D6FF184802F11C01FFF79A
:10362000D1FF174802F13801FFF7CCFF154802F12E
:103630005401FFF7C7FF144802F17001FFF7C2FF02
:10364000124802F18C01FFF7BDFF114802F1A801F9
:10365000FFF7B8FF0F4802F1C401FFF7B3FF0E48B0
:1036600002F1E001FFF7AEFFBDE8084000F0A4B8AA
:1036700000380240000002408C3D00080004024077
:1036800000080240000C02400010024000140240FA
:1036900000180240001C02400020024008B500F063
:1036A000FFF9FFF701FFFFF739F8BDE80840FEF723
:1036B0000FBE000070470000084B1A69920710B552
:1036C00008D500241C61202383F31188FFF72AFF0B
:1036D00084F31188BDE81040FFF742B8000C0040A9
:1036E000104B1A6C42F008021A641A6E42F008027B
:1036F0001A660D4A1B6E936843F0080393600B4BE8
:1037000053229A624FF0FF32DA6200229A615A63C2
:10371000DA605A6001225A6108211A603220FDF7EE
:1037200073BD00BF00380240002004E0000C0040E0
:103730001F4B1A696FEAC2526FEAD2521A611A69B4
:10374000C2F308021A614FF0FF301A695A695861D2
:1037500000215A6959615A691A6A62F080521A62E4
:103760001A6A02F080521A621A6A5A6A58625A6ACF
:1037700059625A6A1A6C42F080521A641A6E42F008
:1037800080521A661A6E0B4A106840F480701060FE
:10379000186F00F44070B0F5007F1EBF4FF480300A
:1037A00018671967536823F40073536000F058B921
:1037B0000038024000700040324B4FF080521A64D3
:1037C000314A4FF4404111601A6842F001021A6018
:1037D0001A689207FCD59A6822F003029A60294B76
:1037E00019469A6812F00C02FBD1186800F0F90033
:1037F00018609A601A6842F480321A600B689B0362
:10380000FCD54B6F43F001034B671E4B5A6F90077B
:10381000FCD51E4A5A601A6842F080721A601A4A31
:1038200053685904FCD5174B1A689201FCD5184A05
:103830009A600322C3F88C20164B1A68164B9A42E2
:10384000164B1BD1164A1168164A914216D140F206
:1038500005121A600B4B9A6842F002029A609A684D
:1038600002F00C02082AFAD15A6C42F480425A64DF
:103870005A6E42F480425A665B6E704740F205729F
:10388000E7E700BF003802400070004008544007DE
:1038900000948838002004E011640020003C0240BD
:1038A00000ED00E041C20F41084A08B553691168B4
:1038B0000B4003F00103536123B1054A13680BB1B8
:1038C00050689847BDE80840FEF74ABF003C0140F9
:1038D0009C290020084A08B5536911680B4003F081
:1038E0000203536123B1054A93680BB1D06898472E
:1038F000BDE80840FEF734BF003C01409C29002091
:10390000084A08B5536911680B4003F0040353617A
:1039100023B1054A13690BB150699847BDE80840C7
:10392000FEF71EBF003C01409C290020084A08B554
:10393000536911680B4003F00803536123B1054A32
:1039400093690BB1D0699847BDE80840FEF708BFFE
:10395000003C01409C290020084A08B553691168C1
:103960000B4003F01003536123B1054A136A0BB1F6
:10397000506A9847BDE80840FEF7F2BE003C01409F
:103980009C290020174B10B55C691A68144004F498
:1039900078725A61A30604D5134A936A0BB1D06AB0
:1039A0009847600604D5104A136B0BB1506B9847CB
:1039B000210604D50C4A936B0BB1D06B9847E205F6
:1039C00004D5094A136C0BB1506C9847A30504D574
:1039D000054A936C0BB1D06C9847BDE81040FEF7D8
:1039E000BFBE00BF003C01409C2900201A4B10B50F
:1039F0005C691A68144004F47C425A61620504D57B
:103A0000164A136D0BB1506D9847230504D5134A20
:103A1000936D0BB1D06D9847E00404D50F4A136E37
:103A20000BB1506E9847A10404D50C4A936E0BB1AC
:103A3000D06E9847620404D5084A136F0BB1506FDB
:103A40009847230404D5054A936F0BB1D06F98476C
:103A5000BDE81040FEF784BE003C01409C290020D8
:103A6000062108B50846FDF7CFFB06210720FDF724
:103A7000CBFB06210820FDF7C7FB06210920FDF737
:103A8000C3FB06210A20FDF7BFFB06211720FDF727
:103A9000BBFB06212820BDE80840FDF7B5BB0000B0
:103AA00008B5FFF745FEFDF799FAFDF753FDFDF761
:103AB0003FFFFDF713FEFFF7FDFDBDE80840FFF7F0
:103AC000D9BC0000034611F8012B03F8012B002A92
:103AD000F9D17047121012131211000053544D33D4
:103AE00032463F3F3F0000000120330000104101FB
:103AF00001105A01031059010710310100000000A4
:103B0000DC3A00083F00000013040000343B0008CA
:103B10003F000000190400003E3B00083F00000089
:103B200021040000483B00083F000000C42E002094
:103B30001C2A002053544D333246343078005354FD
:103B40004D3332463432780053544D333246343498
:103B500036585800009600000000000000000000E9
:103B60000000000000000000000000001D1500081B
:103B70000915000845150008311500083D15000815
:103B80002915000815150008011500085115000831
:103B90000000000055160008411600087D160008B8
:103BA0006916000875160008611600084D16000811
:103BB00039160008D91600080000000001000000B6
:103BC0000000000002000000000000008118000852
:103BD000E9180008400040005C3300206C330020EE
:103BE00002000000000000000300000000000000D0
:103BF0002D19000800000000100000007C33002098
:103C0000000000000100000000000000503600200D
:103C1000010102004172647550696C6F74002542A5
:103C20004F415244252D424C002553455249414CA9
:103C30002500000071220008D9210008ED170008B6
:103C400055220008430000004C3C000809024300D4
:103C5000020100C032090400000102020100052433
:103C600000100105240100010424020205240600BD
:103C700001070582030800FF09040100020A000091
:103C80000007050102400000070581024000000016
:103C900012000000983C00081201100102000040D0
:103CA00083044057000201020301000004030904D9
:103CB00025424F41524425006D696E6470782D761F
:103CC00032003031323334353637383941424344AB
:103CD0004546000000400000004000000040000099
:103CE000004000000000010000000200000002008F
:103CF00000000200000002000000020000000200BC
:103D000000000200004000000040000000400000F1
:103D1000004000000000010000000200000002005E
:103D2000000002000000020000000200000002008B
:103D30000000020000000000751A0008551D000870
:103D4000011E000840004000B0360020B0360020C0
:103D500001000000C036002080000000400100008B
:103D6000030000006D61696E00000000843D0008E2
:103D7000C8360020C038002001000000A53400082B
:103D80000000000069646C65000000000000812AEA
:103D900000000000AAAAAAAA00000000FFFF00007D
:103DA0000000000000A00A00000000000000000069
:103DB000AAAAAAAA00000000FFFF0000000000005D
:103DC000000000000000000000000000AAAAAAAA4B
:103DD00000000000FFFF00000000000000000000E5
:103DE0000028000000000000AAAAAAAA00140000EF
:103DF000FFFF00000000700700000000000000004E
:103E000000000000AAAAAAAA00000000FFFF00000C
:103E100000000000000000000000000000000000A2
:103E2000AAAAAAAA00000000FFFF000000000000EC
:103E3000000000000000000000000000AAAAAAAADA
:103E400000000000FFFF0000000000000000000074
:103E500000000000000000000A0000000000000058
:103E6000030000000000000000000000000000004F
:103E70000000000000000000000000000000000042
:103E80000000000000000000FF0096000000000895
:103E900004000000AC3C000800000000000000002E
:103EA0000000000000000000000000000000000012
:00000001FF
