:020000040800F2
:100000000004022001020008E50F0008E90F0008C3
:100010003D100008E90F0008111000080302000855
:100020000302000803020008030200085128000828
:10003000030200080302000803020008030200088C
:10004000030200080302000803020008030200087C
:100050000302000803020008693A0008953A000804
:10006000C13A0008ED3A0008193B000803020008F5
:10007000030200080302000803020008030200084C
:10008000030200080302000803020008030200083C
:10009000030200080302000803020008453B0008B1
:1000A000030200080302000803020008030200081C
:1000B0008D3800080302000803020008030200084C
:1000C00003020008030200080302000803020008FC
:1000D0000302000803020008B91100080302000827
:1000E000AD3B0008030200080302000803020008F9
:1000F00003020008030200080302000803020008CC
:1001000003020008030200080302000803020008BB
:1001100003020008030200080302000803020008AB
:10012000030200080302000803020008030200089B
:10013000030200080302000803020008030200088B
:10014000030200080302000803020008BD2F000894
:10015000030200080302000803020008030200086B
:10016000030200080302000803020008030200085B
:10017000030200080302000803020008030200084B
:100180000302000803020008CD1100080302000862
:10019000030200080302000803020008030200082B
:1001A000030200080302000803020008030200081B
:1001B000030200080302000803020008030200080B
:1001C00003020008030200080302000803020008FB
:1001D00003020008030200080302000803020008EB
:1001E00003020008030200080302000803020008DB
:1001F00003020008030200080302000803020008CB
:1002000002E000F000F8FEE772B6394880F3088893
:10021000384880F3098838484EF60851CEF200017C
:10022000086040F20000CCF200004EF63471CEF2CD
:1002300000010860BFF34F8FBFF36F8F40F20000E3
:10024000C0F2F0004EF68851CEF200010860BFF314
:100250004F8FBFF36F8F4FF00000E1EE100A4EF6A4
:100260003C71CEF200010860062080F31488BFF3D1
:100270006F8F02F02BFB03F091FA4FF055301F49BE
:100280001B4A91423CBF41F8040BFAE71C49194A4A
:1002900091423CBF41F8040BFAE71A491A4A1B4B3A
:1002A0009A423EBF51F8040B42F8040BF8E70020D5
:1002B0001749184A91423CBF41F8040BFAE702F093
:1002C00049FB03F0D5FA144C144DAC4203DA54F850
:1002D000041B8847F9E700F03FF8114C114DAC4280
:1002E00003DA54F8041B8847F9E702F031BB000039
:1002F0000004022000240220000000080000022068
:100300000004022020400008002402205024022083
:1003100050240220483D022000020008000200088C
:1003200000020008000200082DE9F04F2DED108AB0
:10033000C1F80CD0D0F80CD0BDEC108ABDE8F08F1D
:10034000002383F311882846A047002001F008FF0E
:1003500001F0B8FE00DFFEE770B5204C3223002527
:1003600023706FF07F061F236570A570E5702571FF
:100370006571A571E57125726672A372E57200F070
:1003800051FD20B10F2325726672A372E57202F04F
:1003900025FA044602F056FA0546D8B9104B9C429D
:1003A0001AD001339C4218BF054641F2883404BF7D
:1003B00001250024002002F01BFA0DB100F0B6F870
:1003C00000F0B0FD00F082FC204600F04FF900F094
:1003D000ADF8F9E70024EDE70446EBE750240220EE
:1003E000010007B008B500F0EFFBA0F12003584270
:1003F000584108BD07B5054B02211B88ADF80430F4
:1004000001A800F04DFC03B05DF804FB943C00082B
:10041000064991F8243033B100230822086A81F894
:10042000243000F075BC0120704700BF702402200A
:100430002DE9F84F234C94F824300546884617469A
:100440008BBB2E46DFF87C90002F38D094F824A088
:10045000BAF1000F05D12022FF214846266200F0A4
:100460004FFDCAF10805BD4228BF3D465FFA85FB36
:10047000AD0041462A4604EB8A0000F017FD94F8CF
:100480002430A7EB0B079B445FFA8BFBBBF1080FF3
:100490002E44A844FFB284F824B0D5D1FFF7B8FFAA
:1004A0000028D1D108E0266A06EB8306B042C9D005
:1004B000FFF7AEFF0028C4D10020BDE8F88F01206F
:1004C000BDE8F88F7024022010B5202383F3118833
:1004D0001248C3680BB101F0C9FE0023104A0F484F
:1004E0004FF47A7101F086FE002383F311880D4CDE
:1004F000236813B12368013B2360636813B1636809
:10050000013B6360084B1B7833B9636823B9022051
:1005100000F0BAFC3223636010BD00BF5C240220EF
:10052000C9040008A0290220982402202DE9F041E6
:10053000444B454953F8042F013201D1BDE8F08105
:100540008B42F7D1414C424B22689A4278D9414BB9
:100550009B6803F1006303F500439A4270D20020C8
:1005600000F0CEFB3C4B0220187000F081FC3B4BAE
:100570001A6C00221A64196E1A66196E596C5A6444
:10058000596E5A66596E596941F08001596159692D
:1005900021F0800159615969196941F000511961CF
:1005A000196921F0005119611B6972B62C492D4B54
:1005B0000B601D682468BFF34F8FBFF36F8F2A4B0A
:1005C000C3F88420BFF34F8F5A6922F480325A61F6
:1005D000BFF34F8FD3F88020C2F3C906C2F34E3267
:1005E0005201B70743F6E07E02EA0E08384631466C
:1005F000013948EA000CB1F1FF3FC3F874C200F1C1
:100600004040F5D1203A12F1200FEDD1BFF34F8FCA
:10061000BFF36F8FBFF34F8FBFF36F8F5A6922F411
:1006200000325A610022C3F85022BFF34F8FBFF34C
:100630006F8F202383F31188AD4685F30888204708
:10064000BDE8F081FC7F00081C80000804800008E1
:10065000FF7F000850240220982402200038024026
:1006600008ED00E00080000800ED00E02DE9F04F0B
:1006700097B0B54C00902022FF210EA8A66800F08C
:100680003FFCB24A1378A346A3B9B1480121C36025
:100690001170202383F31188C3680BB101F0E6FDCC
:1006A0000023AC4AAA484FF47A7101F0A3FD00235D
:1006B00083F31188009BA84A03B11360A749009FE8
:1006C00000230B70536099461C461D469846DFF880
:1006D00088A2012000F0CCFB002F00F03A82DAF86B
:1006E0000030002B40F0358217B0BDE8F08F0220BB
:1006F000FFF778FE002840F02382009BB9F1000F3D
:1007000008BF1F46964B1B88ADF82430022109A86C
:1007100000F0C6FADBE74FF47A7000F055FA031EDA
:100720000193EADB0220FFF75DFE82460028E4D059
:10073000019B581E042800F20582DFE800F0030E3A
:100740001114170016A8052340F8343D042100F0C9
:10075000A7FA54464FF0000855E004217A48F6E71E
:1007600004218048F3E704217F48F0E71C24204659
:1007700000F0C8FA04340990042109A800F090FAA6
:100780002C2CF4D1E5E7002DB7D0002CB5D00220F9
:10079000FFF728FE0546002800F0D78101206F4CA6
:1007A00000F0AEFA0220207000F062FB4FF000096A
:1007B0005FFA89FA504600F0B3FA074658B150463E
:1007C00000F0BEFA09F101090028F1D12C46A94632
:1007D0000027664B97E701230220237000F03AFBC5
:1007E0003E46DBF808309E4206D2304600F08AFAD8
:1007F0000130EBD10436F4E7574B002626705E60DB
:10080000A9462C46374600F083FB15B1002C18BFD3
:100810000027FFF7EFFD5AE7002D3FF46EAF002CE5
:100820003FF46BAF4D4B0220187000F021FB3220DB
:1008300000F0CAF9B0F1000AC0F287811AF003058E
:1008400040F08381DBF8082006EB0A03934200F2B4
:100850007C81BAF5807F00F27881454B0193554544
:100860000DDA4FF47A7000F0AFF90290029A002A84
:10087000C0F26B81019B029AEA540135EEE7C82071
:10088000FFF7B0FD0546002800F05F811F2E11D84C
:10089000C6F12004544528BF54460EAB26F0030091
:1008A00022463349184400F001FB2246FF2130481C
:1008B00000F026FB4FEAAA0A5FFA8AF22C4930467A
:1008C000FFF7B6FD0446002800F0418106EB8A06DA
:1008D000054698E70220FFF785FD00283FF40DAF9D
:1008E000FFF796FD00283FF408AF00229246DBF8A0
:1008F00008309A425AD21F2A1ED80E9B01331BD0B1
:1009000022F0030316A90B4453F8203C099319481D
:1009100043688BB3174800210DF1240E11F80E30F7
:1009200083EA0A03DBB2013150F82330042983EA59
:100930001A2AF3D10432DAE71046019200F0E2F904
:10094000019A0990E3E700BF502402209C25022071
:100950005C240220C9040008A02902209824022057
:10096000963C00085424022058240220983C000899
:100970009C240220A025022019464FF0080E11F0F9
:10098000010F4FEA51011FBF81F06D4181F4380121
:1009900081F4034181F02001BEF1010EEFD140F856
:1009A00023100133B3F5807FE6D1B3E716A8042105
:1009B00040F84CAD00F074F925E716A8002340F884
:1009C000343D642100F038F900287FF496AE02200F
:1009D000FFF708FD00283FF490AE099800F0C2F937
:1009E00016AB43F8480D04211846E3E716A8002388
:1009F00040F8343D642100F01FF900287FF47DAEFB
:100A00000220FFF7EFFC00283FF477AE099800F0D2
:100A1000B7F916AB43F8440DE5E70220FFF7E2FC17
:100A200000283FF46AAE00F0B1F916AB43F8400D70
:100A3000D9E70220FFF7D6FC00283FF45EAE09A9F3
:100A4000142000F0A9F9824616A8042140F83CAD14
:100A500000F026F9514609A8ACE7322000F0B4F8BE
:100A6000B0F1000AFFF649AE1AF0030F7FF445AE6D
:100A7000DBF808200AEB080393423FF63EAE022063
:100A8000FFF7B0FC00283FF438AE2AF0030AC24456
:100A9000C2453FF4B8AE404600F034F90421089056
:100AA00008A800F0FDF808F10408F1E74FF47A70A7
:100AB000FFF798FC00283FF420AEFFF7A9FC0028C0
:100AC0003FF487AE0E9B01330CD008220EA9002004
:100AD000FFF7AEFC00283FF47CAE2022FF210EA8D9
:100AE00000F00EFAFFF786FC364801F03FFBFBE50D
:100AF000002D3FF402AE002C3FF4FFAD16A80023FA
:100B000040F8343D642100F097F8824600287FF4D5
:100B1000F4AD0220FFF766FC00283FF4EEAD019033
:100B2000FFF768FC41F2883001F020FB099800F0E3
:100B300039FA00F0EDF9019B57461C461D46C6E503
:100B4000054660E64FF00008D7E52546D5E52C467A
:100B50003FE6002000F038F80290029B002BFFF6E1
:100B6000BBAD012000F076F9029B213B122B3FF632
:100B7000B0AD01A252F823F0EF06000817070008F5
:100B800087070008D3060008D3060008D30600082C
:100B9000190800085B0A0008D5080008BB0900080E
:100BA000ED0900081B0A0008D3060008330A0008F4
:100BB000D3060008AD0A000807080008D30600089D
:100BC000F10A0008A08601002DE9F34702AE0024D7
:100BD0004FF47A7506F8014D144FDFF858804543FD
:100BE00097F900305A1C5FFA84F901D0A34212D160
:100BF00058F8240003680122D3F820A031462B4680
:100C0000D047012807D10A4B9DF8070083F80090D0
:100C100002B0BDE8F0870134032CE1D14FF4FA7043
:100C200001F0A4FA4FF0FF30F2E700BF00240220E9
:100C3000C4290220A43C00082DE9F0474FF47A753E
:100C4000144FDFF8588006464D43002497F90030D2
:100C50005A1C5FFA84F901D0A34210D158F824003D
:100C600003680422D3F820A031462B46D04704283D
:100C700005D1094B83F800900020BDE8F0870134CE
:100C8000032CE3D14FF4FA7001F070FA4FF0FF300B
:100C9000BDE8F08700240220C4290220A43C0008FB
:100CA00030B4074B1A78074B53F822402368DD69AC
:100CB000054B0A46AC460146204630BC604700BFA3
:100CC000C4290220A43C0008A086010070B501F0F0
:100CD00089FC094C094E2070002530682378834236
:100CE00008D901F079FC336805440133B5F5004FAC
:100CF0003360F2D370BD00BFC5290220A8290220AD
:100D000001F01EBD00F1006000F500400068704772
:100D100000F10060920000F5004001F0A9BC000065
:100D2000054B1A68054B1B789B1A834202D9104465
:100D300001F052BC00207047A8290220C5290220DA
:100D400038B5074D04462868204401F04DFC28B909
:100D500028682044BDE8384001F05EBC38BD00BFC3
:100D6000A829022010F0030308D1B0F5806F05D840
:100D700000F10050A0F57120006870470020704716
:100D8000014BC058704700BF20F4F01F014B18689A
:100D9000704700BF002004E0F0B5204B1E68204BD8
:100DA0001F885D6893F90840C6F30B02BA424FEA08
:100DB000164622D09F89BA4221D01F8BBA4206D153
:100DC00002220C2404FB02335D6893F90840B6F557
:100DD000805F16D041F201039E4208BF5A24421E92
:100DE0000A44013D0B46934215D215F9016F581C78
:100DF0004EB1034600F8016CF5E70022E1E701225D
:100E0000DFE74124EBE72C2582421D7001D9981CB5
:100E10005C70401AF0BD1846FBE700BF002004E0FC
:100E200004240220094B5B88B3F5805F09D041F2AE
:100E30000102934207D10122054B03EB8203D878CC
:100E400070470022F8E70020704700BF002004E050
:100E50009C3C0008022804D14FF48002034B9A61A5
:100E600070470128FCD14FF40002F7E70008024068
:100E7000022803D14022034B9A6170470128FCD11C
:100E80008022F8E700080240022805D1064A53698B
:100E900083F04003536170470128FCD1024A536933
:100EA00083F08003F6E700BF0008024010B500237E
:100EB000934203D0CC5CC4540133F9E710BD000069
:100EC00030B5441E14F9010F0B4660B193F9005080
:100ED000854201F1010106D11AB993F90020801A67
:100EE00030BD013AEEE7002AF7D1104630BD0000D0
:100EF00002460346981A13F9011B0029FAD17047DC
:100F000002440346934202D003F8011BFAE77047FC
:100F1000024B1A78024B1A70704700BFC429022096
:100F20000024022038B5184C184D204600F05EFC15
:100F30002946204600F086FC2D681548EA6ED2F856
:100F4000043843F00203C2F8043801F00FF91149E4
:100F5000284600F085FDEA6E0F48D2F804380F49A4
:100F600023F00203C2F80438A0424FF4E1330B60CF
:100F700001D000F099FB0A48A04204D00749BDE81F
:100F8000384000F091BB38BD60330220983D000826
:100F900040420F00C03D0008482A0220AC29022030
:100FA000B42A022038B50B4B1A780B4B53F8224069
:100FB0000A4B9C4205460CD0094B002118461822CA
:100FC000FFF79EFF056001462046BDE8384000F06F
:100FD0006BBB38BDC4290220A43C0008603302204A
:100FE000AC290220FEE7000000B59BB0EFF30981B9
:100FF00068226846FFF75AFFEFF30583034B9A6BAD
:101000009A6A9A6A9A6A9A6A9B6AFEE700ED00E019
:1010100000B59BB0EFF3098168226846FFF746FFF1
:10102000EFF30583044B9A6B9A6A9A6A9A6A9A6AF2
:101030009A6A9B6AFEE700BF00ED00E000B59BB036
:10104000EFF3098168226846FFF730FFEFF305836D
:10105000034B5A6B9A6A9A6A9A6A9A6A9B6AFEE783
:1010600000ED00E0002304491A465A50C81808331E
:10107000802B4260F9D17047C8290220026843687A
:101080001143016003B1184770470000024A13681A
:1010900043F0C0031360704700440040024A1368E5
:1010A00043F0C00313607047007800402DE9F0471B
:1010B000C66D3768F46934620546200719D014F00C
:1010C000080F0CBF00218021E20748BF41F020013A
:1010D000A30748BF41F04001600748BF41F4807159
:1010E000202383F31188281DFFF7C8FF002383F313
:1010F0001188E2050AD5202383F311884FF400718B
:10110000281DFFF7BBFF002383F311884FF0200950
:101110004FF0000A14F0200831D13B0616D54FF0ED
:10112000200905F1380A200610D589F311885046A8
:1011300000F02EFA00282FDA0821281DFFF79EFF65
:1011400027F080033360002383F3118879060DD5DF
:1011500062060BD5202383F31188EA6C2B6D9A422B
:1011600001D12B6CEBB9002383F31188E30620D562
:10117000AA6E1369EBB15069BDE8F047184789F3CF
:101180001188736A95F864102846194000F09AFA9D
:101190008AF31188F469BDE7B06288F31188F469B5
:1011A000C1E71021281D27F04007FFF767FF3760D0
:1011B000D9E7BDE8F087000008B50348FFF776FFE0
:1011C000BDE8084001F054BB482A022008B5034896
:1011D000FFF76CFFBDE8084001F04ABBB42A0220CB
:1011E00037B51F4C1F4D204600F052FA009404F111
:1011F000140000234FF400721B4900F013F94FF460
:101200000072009404F13800184B194900F08CF971
:10121000184BE3652566184C0B21262000F090F84A
:10122000204600F035FA04F11400009400234FF436
:101230000072124900F0F6F804F138000094104BE7
:1012400010494FF4007200F06FF90F4BE3650B216A
:101250005220256603B0BDE8304000F071B800BFF1
:10126000482A022080F93703202B02208D10000825
:10127000202F022000440040B42A0220202D02200A
:101280009D1000082031022000780040284B0029E2
:1012900008BF1946037C8166012B30B50CD1254B64
:1012A000984235D1244B1A6C42F400321A641A6EFB
:1012B00042F400321A661B6E0A68036EC46D03EBBB
:1012C0005203B3FBF2F34A68150442BF23F007054B
:1012D00003F0070343EA4503E3608B6843F04003F0
:1012E0006360CB6843F00103A36042F4967343F05C
:1012F0000103236051054FF0FF33236205D512F03F
:10130000102211D0B2F1805F10D080F8643030BD6F
:101310000A4B9842D0D1084B1A6C42F080421A64B2
:101320001A6E42F08042C5E77F23EEE73F23ECE7E9
:10133000DC3C0008482A022000380240B42A02207F
:1013400000F1604300F01F02400903F56143090109
:101350008000C9B200F1604083F8001300F56140DD
:1013600001239340C0F8803103607047F8B51546FB
:1013700082680669AA420B46816938BF8568761A79
:10138000B542044607D218462A46FFF78FFDA369E7
:101390002B44A3610DE011D932461846FFF786FDB4
:1013A000AF1B3A46E1683044FFF780FDE2683A44FB
:1013B000A261A3685B1BA3602846F8BD18462A46B5
:1013C000FFF774FDE368E4E783682DE9F041044624
:1013D00093421546266938BF85684069361AB5427A
:1013E0000F4606D22A46FFF761FD63692B4463610D
:1013F0000DE012D93246A5EB0608FFF757FD42462D
:10140000B919E068FFF752FDE26842446261A368DF
:101410005B1BA3602846BDE8F0812A46FFF746FD26
:10142000E368E4E710B50A440024C361029B00604E
:1014300040608460C160816141610261036210BDEE
:1014400008B582694369934201D1826882B9826892
:10145000013282605A1C42611970426903699A42E2
:1014600001D3C3684361002100F09CFE002008BD49
:101470004FF0FF3008BD000070B5202304460E4633
:1014800083F31188A568A5B1A368A269013BA36095
:10149000531CA36115782269934224BFE368A361BA
:1014A000E3690BB120469847002383F3118828464F
:1014B00070BD3146204600F065FE0028E2DA85F373
:1014C000118870BD2DE9F74F05460F4690469A46A4
:1014D000D0F81C90202686F311884FF0000B14469C
:1014E00064B1224639462846FFF740FF034668B9F3
:1014F0005146284600F046FE0028F1D0002383F331
:101500001188A8EB040003B0BDE8F08FB9F1000F1B
:1015100003D001902846C847019B8BF31188E41A39
:101520001F4486F31188DBE7C16081614161C361BB
:101530001144009B0060406082600161036270475B
:10154000F8B504460E461746202383F31188A56894
:10155000A5B1A368013BA36063695A1C62611E7058
:10156000236962699A4224BFE3686361E3690BB14E
:1015700020469847002080F31188F8BD3946204660
:1015800000F000FE0028E2DA85F31188F8BD0000C3
:10159000836942699A4210B501D182687AB982683A
:1015A000013282605A1C82611C7803699A4201D31D
:1015B000C3688361002100F0F5FD204610BD4FF0A7
:1015C000FF3010BD2DE9F74F05460F4690469A466D
:1015D000D0F81C90202686F311884FF0000B14469B
:1015E00064B1224639462846FFF7EEFE034668B945
:1015F0005146284600F0C6FD0028F1D0002383F3B1
:101600001188A8EB040003B0BDE8F08FB9F1000F1A
:1016100003D001902846C847019B8BF31188E41A38
:101620001F4486F31188DBE70268436811430160B9
:1016300003B11847704700001430FFF743BF0000A4
:101640004FF0FF331430FFF73DBF00003830FFF795
:10165000B9BF00004FF0FF333830FFF7B3BF0000D1
:101660001430FFF709BF00004FF0FF311430FFF7CF
:1016700003BF00003830FFF763BF00004FF0FF32B8
:101680003830FFF75DBF000000207047FFF7A8BDAE
:10169000044B0360002343608360C3600123037431
:1016A000704700BFF43C000810B52023044683F3C4
:1016B0001188FFF7EBFD02232374002383F31188C5
:1016C00010BD000038B5C36904460D461BB904219E
:1016D0000844FFF7A9FF294604F11400FFF7B0FE04
:1016E000002806DA201D4FF48061BDE83840FFF77E
:1016F0009BBF38BD026843681143016003B11847BE
:101700007047000013B5446BD4F894341A6811780C
:10171000042915D1217C022912D1197912890123BA
:101720008B4013420CD101A904F14C0001F0AAFE38
:10173000D4F89444019B21790246206800F0E0F936
:1017400002B010BD143001F02DBE00004FF0FF3389
:10175000143001F027BE00004C3001F0FFBE000045
:101760004FF0FF334C3001F0F9BE0000143001F0AF
:10177000FBBD00004FF0FF31143001F0F5BD00005B
:101780004C3001F0CBBE00004FF0FF324C3001F086
:10179000C5BE0000D0F8942438B513681978042920
:1017A000054601D0012038BD017C0229FAD1127909
:1017B0005C89012090400440F4D105F1140001F04F
:1017C0008DFD02460028EDD0D5F894544FF4807377
:1017D0002868697900F082F9204638BD406BFFF730
:1017E000D9BF000000207047704700007FB5124B42
:1017F0000360002343608360C360012502260F4B12
:10180000057404460290019300F184022946009673
:101810004FF48073143001F03DFD094B01930294A5
:1018200000964FF4807304F52372294604F14C00AE
:1018300001F004FE04B070BD1C3D0008DD17000877
:10184000051700080B68202282F311880A7903EB40
:10185000820210624A790D3243F822008A7912B16D
:1018600003EB8203186202230374C0F8941400236C
:1018700083F311887047000038B5037F044613B125
:1018800090F85430ABB9201D01250221FFF732FF3B
:1018900004F1140025776FF0010100F08FFC84F84B
:1018A000545004F14C006FF00101BDE8384000F0E5
:1018B00085BC38BD10B5012104460430FFF71AFF7E
:1018C0000023237784F8543010BD000038B5044657
:1018D0000025143001F0F6FC04F14C00257701F0EE
:1018E000C5FD201D84F854500121FFF703FF204659
:1018F000BDE83840FFF74EBF90F85C3003F060035E
:10190000202B19D190F85D20212A0AD0222A4FF0ED
:1019100000030ED0202A0FD1084A02650722426533
:1019200004E0064B0365072343650023836501201C
:10193000704703654365F9E70020704728240220BB
:10194000D0F8943437B51A681178042904461AD1AE
:10195000017C022917D11979128901238B40134286
:1019600011D100F14C05284601F040FE58B101A903
:10197000284601F087FDD4F89444019B2179024662
:10198000206800F0BDF803B030BD000000EB81031B
:10199000F7B51C6A05460E46F4B1202383F311887F
:1019A00005EB8607201D0821FFF7A4FEFB685B6995
:1019B0001B684C3413B1204601F072FD01A920468A
:1019C00001F060FD024648B1019B3146284600F017
:1019D00097F8002383F3118803B0F0BDFB685A69C0
:1019E0001268002AF5D01B8A013B1340F1D105F1A2
:1019F0005C02EAE70D3138B550F82140DCB1202314
:101A000083F31188D4F894241368527903EB82038A
:101A1000DB689B695D6845B104216018FFF76AFEC9
:101A2000294604F1140001F063FC2046FFF7B2FEE2
:101A3000002383F3118838BD7047000001F010B80F
:101A4000012303700023436000F1240200F13801F8
:101A500042F8043B8A421361FAD103814381704703
:101A600038B50446202383F3118800254160C56002
:101A7000056145618561C561056201F001F80223D8
:101A8000237085F3118838BD70B500EB81030546DE
:101A90005069DA600E46144618B110220021FFF793
:101AA0002FFAA06918B110220021FFF729FA314658
:101AB0002846BDE8704001F0ADB80000028902F090
:101AC00001020281428902F0010242810022026188
:101AD00042618261C261026201F030B9F0B400EB90
:101AE00081044789E4680125A4698D403D4345810F
:101AF00023600023A2606360F0BC01F04BB90000DA
:101B0000F0B400EB81040789E468012564698D4025
:101B10003D43058123600023A2606360F0BC01F0B7
:101B2000C5B9000070B50223002504460370A0F873
:101B3000645080F8665080F8675005814581C56023
:101B4000056145618561C561056280F84C5000F012
:101B5000FDFF63681B6823B129462046BDE870403D
:101B6000184770BD436802781B6880F8682005221A
:101B700002700BB10421184770470000436890F8C9
:101B800068201B6802700BB10521184770470000E0
:101B900090F84C3070B5044613B1002380F84C30F7
:101BA00004F15C02204601F0EBF863689B6863BBBC
:101BB00094F85C5015F0600615D194F85D3005F08E
:101BC0007F0545EA032540F202339D4200F00E8175
:101BD0005BD8022D00F0DC803FD8002D00F087801C
:101BE000012D00F0CF800021204601F035FB0021BF
:101BF000204601F027FB63681B6813B106212046CD
:101C00009847062384F84C3070BD2046984700283A
:101C1000CED094F8632094F8623043EA0223626DD8
:101C2000934238BF636594F95C30656D002B4FF0CB
:101C3000200380F2FD80002D00F0EC80092284F862
:101C40004C2083F311880021636D226D2046FFF73D
:101C500057FF002383F3118870BDB5F5817F00F035
:101C6000B180B5F5407F49D0B5F5807FBBD194F800
:101C70005E30012BB7D1B4F8643023F00203A4F82E
:101C8000643026656665A665C3E740F201639D4240
:101C90001ED8B5F5C06F3BD2B5F5A06FA3D1B4F88F
:101CA0005C30B3F5A06F0ED194F85E3084F86630E6
:101CB000204600F0A3FF63681B6813B10121204692
:101CC000984703232370002323656365A365A0E77A
:101CD000B5F5106F32D040F602439D4252D0B5F5B3
:101CE000006F80D104F167032365012324E004F130
:101CF0006403236502236365A5658AE794F85E3073
:101D0000012B7FF470AFB4F8643043F00203B6E700
:101D100094F86120616894F860304D6894F85F1021
:101D200043EA0223204694F85E20A84700283FF4A7
:101D30005AAF4368236503686365A4E72378042BDF
:101D400010D1202383F311882046FFF7B7FE86F3D6
:101D50001188636884F867601B68032121700BB1E8
:101D60002046984794F85E30002BACD084F867305A
:101D70000423237063681B68002BA4D00221204633
:101D80009847A0E7374B23650223636500239DE74F
:101D900094F8601011F0800F204601F00F010ED072
:101DA00000F0E0FF012806D002287FF41CAF2E4B84
:101DB0002365606567E72D4B2365656563E700F084
:101DC000C3FFEFE794F85E30002B7FF40CAF94F87C
:101DD000603013F00F013FF476AF1A06204602D5AB
:101DE00001F04EFA6FE701F041FA6CE794F85E30CB
:101DF000002B7FF4F8AE94F8603013F00F013FF43D
:101E000062AF1B06204602D501F026FA5BE701F01F
:101E100019FA58E7142284F84C2083F311882B46D2
:101E20002A4629462046FFF759FE85F3118870BDE2
:101E30005DB1152284F84C2083F311880021636D75
:101E4000226D2046FFF74AFE03E70B2284F84C2060
:101E500083F311882B462A4629462046FFF750FE79
:101E6000E3E700BF4C3D0008443D0008483D000842
:101E700038B590F84C300446152B29D8DFE803F02C
:101E80003E28282828283E28280B293928282828B1
:101E9000282828283E3E90F8631090F86220436D71
:101EA00042EA01229A4214D9C268128AB3FBF2F5BF
:101EB00002FB15356DB9202383F311882B462A4682
:101EC0002946FFF71DFE85F311880A2384F84C305C
:101ED00038BD142384F84C30202383F31188002369
:101EE0001A4619462046FFF7F9FD002383F31188AF
:101EF00038BD836D03B198470023E7E7002101F067
:101F0000ABF90021204601F09DF963681B6813B10D
:101F10000621204698470623D8E7000090F84C2079
:101F2000152A38B5044622D80123934040F6416271
:101F300013421DD113F480150FD19B0217D50B232B
:101F400080F84C30202383F311882B462A462946FB
:101F5000FFF7D6FD85F3118838BDC3689B695B68C0
:101F60002BB9836D03B19847002384F84C3038BDFA
:101F7000002101F071F90021204601F063F9636846
:101F80001B6813B10621204698470623EDE70000A1
:101F9000024B00221B605B609A6070472033022076
:101FA000002303748268054B1B6899689142FBD239
:101FB0005A68036042601060586070472033022006
:101FC00008B5202383F31188037C032B05D0042B51
:101FD0000DD02BB983F3118808BD436900221A6024
:101FE0004FF0FF334361FFF7DBFF0023F2E790E898
:101FF0000C001A6002685360F2E7000000230374CB
:102000008268054B1B6899689142FBD85A68036047
:10201000426010605860704720330220054B1969F8
:102020000874186802681A60536018610123037409
:10203000FEF77AB92033022030B54B1C87B0054635
:102040000A4C10D023690A4A01A800F0D3F82846A8
:10205000FFF7E4FF049B13B101A800F007F923691F
:10206000586907B030BDFFF7D9FFF8E720330220E9
:10207000C11F000838B50C4D41612B6981689A6811
:102080009142044603D8BDE83840FFF789BF18469F
:10209000FFF786FF01232C61014623742046BDE82B
:1020A0003840FEF741B900BF20330220044B1A68C4
:1020B0001B6990689B68984294BF0020012070477C
:1020C0002033022010B5084C236820691A6822606A
:1020D0005460012223611A74FFF790FF01462069C2
:1020E000BDE81040FEF720B92033022082600222B2
:1020F00002740022427470478368A3F17C0243F8A3
:102100000C2C026943F83C2C426943F8382C074AEE
:1021100043F81C2CC26843F8102C022203F8082C48
:10212000002203F8072CA3F11800704741030008B0
:1021300010B5202383F31188FFF7DEFF002104464A
:10214000FFF798FF002383F31188204610BD00009D
:10215000024B1B6958610F20FFF760BF203302203C
:10216000202383F31188FFF7F3BF000008B5014671
:10217000202383F311880820FFF75EFF002383F3F9
:10218000118808BD49B1064B42681B6918605A6046
:10219000136043600420FFF74FBF4FF0FF307047DC
:1021A000203302200368984206D01A68026050600B
:1021B00059611846FFF7F4BE7047000038B5044671
:1021C0000D462068844200D138BD036823605C60FE
:1021D0004561FFF7E5FEF4E7054B03F114025A6190
:1021E0009A614FF0FF32DA6100221A62704700BF35
:1021F00020330220F8B503614FF08043C2605C6A6F
:10220000194B1A46022952F8145F38BF0221954231
:1022100006461F460AD1586198611C6205604560F8
:1022200081600819BDE8F84001F002BA186AAB688D
:10223000241A0C1902D3E41A2D6804E09C4202D23D
:10224000204401F003FAAB689C42F4D86B687360D9
:1022500035601E606E60B460A9684FF0FF33091BE3
:10226000A960FB61F8BD00BF2033022010B41B4CF5
:10227000234653F8141F814210D0416802680A6057
:10228000026851609A424FF00001C16003D0936828
:1022900081680B4493605DF8044B70470A68626183
:1022A00000209A425360C86003D15DF8044B01F0EE
:1022B000C7B993688868034493604FF08042206AEE
:1022C000526A121A9342E6D9991A012998BF931CAF
:1022D00018445DF8044B01F0B9B900BF2033022067
:1022E00000207047FEE70000704700004FF0FF300D
:1022F00070470000022906D0032906D001290648AC
:1023000018BF0020704705487047032A9ABF044849
:1023100000EBC200002070471C3E0008D03D0008C2
:102320003024022070B59AB001AD06460846294611
:10233000144600F095F82846FEF7DAFDC0B2431CBB
:102340005B0086E8180023700323637000230234C7
:102350001946DAB2904204F1020401D81AB070BDF5
:10236000EA5C04F8022C04F8011C0133F1E70000D8
:1023700008B5202383F311880348FFF7E1FA00230F
:1023800083F3118808BD00BF6033022010B50446F6
:10239000052916D8DFE801F016150316161D2023AF
:1023A00083F311880E4A0121FFF76EFB20460D4A88
:1023B0000221FFF769FB0C48FFF788FA002383F33B
:1023C000118810BD202383F311880748FFF754FAC2
:1023D000F4E7202383F311880348FFF76BFAEDE756
:1023E000503D0008743D00086033022038B50C4DA4
:1023F0000C4C0D492A4604F10800FFF793FF05F144
:10240000CA0204F110000949FFF78CFF05F5CA72F2
:1024100004F118000649BDE83840FFF783BF00BF4C
:102420002838022030240220A03D0008AA3D0008E0
:10243000B53D000870B5044608460D46FEF758FD48
:10244000C6B22046013403780BB9184670BD324637
:102450002946FEF735FD0028F3D1012070BD0000AC
:102460002DE9F04704460D46FEF742FD2C49C6B261
:102470002046FFF7DFFF08B10736F6B229492046AC
:10248000FFF7D8FF08B11036F6B2632E0BD8DFF88D
:102490009080DFF89090244FDFF898A0267846B916
:1024A0002E70BDE8F08721462846BDE8F04701F0D0
:1024B000E9BB252E2FD1072241462046FEF700FD1D
:1024C00070B91A4B2A4603F10C0153F8040B42F879
:1024D000040B8B42F9D11B88138007340E35DDE7DE
:1024E000082249462046FEF7EBFCA0B9104BAA1C77
:1024F00013F8011F09095345C95D02F8021C197838
:1025000001F00F0102F10202C95D02F8031CEFD1D4
:1025100018350834C2E72E7001340135BEE700BF1C
:102520003C3E0008B53D0008533E0008443E00080C
:102530001FF4F01F2BF4F01FBFF34F8F024AD36834
:10254000DB03FCD4704700BF003C024008B5074BDA
:102550001B7853B9FFF7F0FF054B1A69002ABFBF7C
:10256000044A5A6002F188325A6008BD863A022055
:10257000003C02402301674508B5054B1B7833B981
:10258000FFF7DAFF034A136943F00043136108BD04
:10259000863A0220003C02400B2870B513D80B4A43
:1025A0000B4C137863B90B4E4FF0006144F82310C5
:1025B00056F8235001330C2B2944F7D10123137013
:1025C00054F8200070BD002070BD00BFB83A022052
:1025D000883A0220643E0008014B53F820007047FF
:1025E000643E00080C2070470B2810B5044601D942
:1025F000002010BDFFF7D0FF064B53F824301844DD
:10260000C21A0BB9012010BD12680132F0D1043B8F
:10261000F6E700BF643E00080B2810B5044621D839
:10262000FFF78AFFFFF792FF0F4AF323D360C3003F
:10263000DBB243F4007343F002031361136943F404
:1026400080331361FFF778FFFFF7A6FF074B53F8BE
:10265000241000F0D9F8FFF78FFF2046BDE81040A6
:10266000FFF7C2BF002010BD003C0240643E0008DE
:102670002DE9F84312F00103154640D18218B2F15A
:10268000026F3CD22C4B1B6813F0010337D02B4C4C
:10269000FFF75CFFF323E360FFF74EFF40F20127F3
:1026A000032D01D9830713D0244C0F46401A40F262
:1026B0000118EB1B0B44012B00EB0706236924D800
:1026C00023F001032361FFF757FF0120BDE8F883E2
:1026D000236923F44073236123693B43236151F849
:1026E000046B0660BFF34F8FFFF726FF03689E421F
:1026F00008D0236923F001032361FFF73DFF002089
:10270000BDE8F883043D0430CAE723F44073236135
:10271000236943EA08032361B94637F8023B338053
:10272000BFF34F8FFFF708FF3688B9F80030B6B215
:10273000B342BED0DDE700BF00380240003C02409B
:10274000084908B50B7828B153B9FFF7FFFE0123FC
:102750000B7008BD23B1BDE808400870FFF70CBF3F
:1027600008BD00BF863A022010B50244064B04396A
:10277000D2B2904200D110BD441C00B253F82000E8
:1027800041F8040FE0B2F4E750280040104B30B598
:102790001C6F240407D41C6F44F400741C671C6F66
:1027A00044F400441C670B4C236843F4807323609B
:1027B0000244094B0439D2B2904200D130BD441CCE
:1027C00000B251F8045F43F82050E0B2F4E700BFD4
:1027D00000380240007000405028004007B5012238
:1027E00001A90020FFF7C0FF019803B05DF804FBCA
:1027F00007B502A9012241F8040D0020FFF7C6FF2A
:1028000003B05DF804FB00000144BFF34F8F064B9B
:10281000884204D3BFF34F8FBFF36F8F7047C3F865
:102820005C022030F4E700BF00ED00E0034B1B68C2
:102830009B0042BF024B01221A707047743802405D
:10284000B93A0220014B1878704700BFB93A02200C
:10285000064A536823F001035360EFF3098368339A
:1028600083F30988002383F31188704730EF00E079
:1028700010B5202383F31188104B5B6813F40063B9
:1028800018D0F1EE103AEFF309844FF0807344F85A
:102890004C3C0B4BDB6844F8083CA4F1680383F321
:1028A0000988FFF703FC18B1064B44F8503C10BDF3
:1028B000054BFAE783F3118810BD00BF00ED00E07F
:1028C00030EF00E05103000854030008F0B5BFF3F7
:1028D0004F8FBFF36F8F1D4B0021C3F85012BFF312
:1028E0004F8FBFF36F8F5A6942F400325A61BFF3C2
:1028F0004F8FBFF36F8FC3F88410BFF34F8FD3F8A0
:102900008020C2F3C904C2F34E325201A50743F638
:10291000E07602EA060E284621464EEA0007013913
:10292000C3F860724F1C00F14040F6D1203A12F11A
:10293000200FEED1BFF34F8F5A6942F480325A61B3
:10294000BFF34F8FBFF36F8FF0BD00BF00ED00E00E
:10295000FEE70000084A094B09498B4204D3094AA3
:102960000021934205D3704752F8040F43F8040B3B
:10297000F3E743F8041BF4E76C400008483D0220ED
:10298000483D0220483D0220036F30B500229D687B
:10299000C46E11464FF0FF3004EB421301329542F2
:1029A000C3F80019C3F81019C3F80809C3F8001BCD
:1029B000C3F8101BC3F8080BEED24FF00113C4F894
:1029C0001C3830BD890141F02001016103699B067B
:1029D000FCD4122000F0C8BE204B03EB80022DE98E
:1029E000F047D2F80CE0DD6EDEF81420461CD2F879
:1029F00000C005EB063605EB4018516861450BD366
:102A0000D5F83428012303FA00F022EA0000C5F8C3
:102A100034081846BDE8F087BEF81040ACEB01035F
:102A2000A34228BF2346D8F81849A4B2B3EB840FB9
:102A300010D894681F46A4F1040959F804AFC6F8E9
:102A400000A0042F01D9043FF7E71C440B44946015
:102A50005360D2E70020BDE8F08700BFBC3A0220F7
:102A600010B5054C2046FEF7EBFF4FF0A043E366A0
:102A7000024B236710BD00BFBC3A0220B83E0008DD
:102A80000378012B70B5054650D12A4BC46E98428D
:102A90001BD1294B5A6B42F080025A635A6D42F0A7
:102AA00080025A655A6D5A6942F080025A615A6929
:102AB00022F080025A610E2143205B69FEF740FC40
:102AC0001E4BE3601E4BC4F800380023C4F8003EE0
:102AD000C0232360EE6E4FF40413A3633369002B0D
:102AE000FCDA012333610C2000F03EFE3369DB0782
:102AF000FCD4122000F038FE3369002BFCDA0026EB
:102B0000A6602846FFF740FF6B68C4F81068DB68D2
:102B1000C4F81468C4F81C684BB90A4BA3614FF0A1
:102B2000FF336361A36843F00103A36070BD064BEC
:102B3000F4E700BFBC3A02200038024040140040D5
:102B400003002002003C30C0083C30C0F8B5C46E21
:102B5000054600212046FFF735FF296F00234FF07F
:102B600001128F68C4F834384FF00066C4F81C288E
:102B70004FF0FF3004EB431201339F42C2F800696B
:102B8000C2F8006BC2F80809C2F8080BF2D20B6851
:102B9000EA6E6B67636210231361166916F0100604
:102BA000FBD1122000F0E0FDD4F8003823F4FE63DE
:102BB000C4F80038A36943F4402343F01003A36131
:102BC0000923C4F81038C4F814380A4BEB604FF0EE
:102BD000C043C4F8103B084BC4F8003BC4F810696C
:102BE000C4F800396B6F03F1100243F480136A6775
:102BF000A362F8BD943E000840800010C26E90F8B9
:102C00006610D2F8003823F4FE6343EA0113C2F8D9
:102C1000003870472DE9F0410EB200EB86080D46F2
:102C2000D8F80C100F6807F00303022B50D0032BC9
:102C300050D03D4A3D4F012B18BF1746C46E4FEA96
:102C4000451E04EB0E030022C3F8102B8A6905F120
:102C5000100C002A40D04A8A05F158035B013A4320
:102C6000E2500123D4F81C2803FA0CF31343A644C2
:102C70004A69C4F81C380023CEF8103905F13F0327
:102C8000002A39D00A8A898B9208012988BF4A43D1
:102C9000416F04EB8303561841EA02424667294616
:102CA0005A602046FFF78EFED8F80C301B8A43EAA4
:102CB00085531F4305F148035B01E7500123D4F816
:102CC0001C2803FA05F51543C4F81C58BDE8F0812B
:102CD000174FB3E7174FB1E704EB4613D3F8002BB8
:102CE00022F40042C3F8002BD4F81C28012303FA75
:102CF0000CF322EA0303BAE704EB83030E4A5A609B
:102D000004EB461629462046FFF75CFED6F800394C
:102D100023F40043C6F80039D4F81C38012202FA23
:102D200005F523EA0505CFE70080001000800410B8
:102D30000080081000800C1000040002026F12686E
:102D40004267FFF721BE00005831C36E49015B584E
:102D500013F4004004D013F4001F14BF012002201C
:102D6000704700004831C36E49015B5813F40040BE
:102D700004D013F4001F14BF01200220704700008C
:102D800000EB8101CB68196A0B6813604B685360D4
:102D90007047000000EB810330B5DD68AA69136855
:102DA000D36019B9402B84BF402313606B8A146829
:102DB000C26E1C44013CB4FBF3F46343033323F0C1
:102DC000030302EB411043EAC44343F0C043C0F89D
:102DD000103B2B6803F00303012B09B20ED1D2F88C
:102DE000083802EB411013F4807FD0F8003B14BF89
:102DF00043F0805343F00053C0F8003B02EB411214
:102E0000D2F8003B43F00443C2F8003B30BD000061
:102E10002DE9F041244DEE6E06EB40130446D3F845
:102E2000087BC3F8087B38070AD5D6F81438190789
:102E300006D505EB84032146DB6828465B68984786
:102E4000FA072FD5D6F81438DB072BD505EB84030A
:102E5000D968CCB98B69488A5E68B6FBF0F200FB92
:102E600012628AB91868DA6890420DD2121A83E8A1
:102E70001400202383F311880B482146FFF78AFFB3
:102E800084F31188BDE8F081012303FA04F26B8911
:102E900023EA02036B81CB6823B121460248BDE8D7
:102EA000F0411847BDE8F081BC3A022000EB8103F5
:102EB00070B5DD68C36E6C692668E6604A0156BB72
:102EC0001A444FF40020C2F810092A6802F00302E5
:102ED000012A0AB20ED1D3F8080803EB421410F409
:102EE000807FD4F8000914BF40F0805040F00050BB
:102EF000C4F8000903EB4212D2F8000940F0044084
:102F0000C2F80009D3F83408012202FA01F10143A2
:102F1000C3F8341870BD19B9402E84BF402020601A
:102F200020682E8A841940F00050013C1A44B4FBFA
:102F3000F6F440EAC440C6E7F8B504461E48C56E3C
:102F400005EB4413D3F80869C3F80869F10717D5EE
:102F5000D5F81038DA0713D500EB8403D9684B692C
:102F60001F68DA68974218D2D21B00271A605F6088
:102F7000202383F311882146FFF798FF87F31188F8
:102F8000330617D5D5F834280123A340134211D0B6
:102F90002046BDE8F840FFF71FBD012303FA04F205
:102FA000038923EA020303818B68002BE8D02146C2
:102FB0009847E5E7F8BD00BFBC3A0220A0482DE9DC
:102FC000F84FC56E6E69AB691E4016F4805F6E6186
:102FD000044605D0FEF7A6FDBDE8F84FFFF748BC54
:102FE000002E12DAD5F8003E95489B071EBFD5F893
:102FF000003E23F00303C5F8003ED5F8043823F063
:103000000103C5F80438FEF7B9FD370502D58C4831
:10301000FEF7A8FDB0040CD5D5F8083813F0060F5C
:10302000EB6823F470530CBF43F4105343F4A053E4
:10303000EB60310704D56368DB680BB180489847C3
:10304000F2026FD4B3020CD5D4F86C80DFF8F0A193
:1030500000274FF00109236F9B68F9B28B4280F083
:103060009C80F70619D5E16E0A6AC2F30A1702F0CE
:103070000F0302F4F012B2F5802F00F0B680B2F523
:10308000402F0AD104EB830301F58051DB68186AF5
:1030900000231A469F4240F09C803303D5F818481D
:1030A0001DD5E70302D50020FFF7B2FEA50302D528
:1030B0000120FFF7ADFE600302D50220FFF7A8FE56
:1030C000210302D50320FFF7A3FEE20202D504206C
:1030D000FFF79EFEA30202D50520FFF799FE7703B6
:1030E0007FF57AAFE60702D50020FFF725FFA50799
:1030F00002D50120FFF720FF600702D50220FFF76D
:103100001BFF210702D50320FFF716FFE20602D5B9
:103110000420FFF711FFA3067FF55EAF0520FFF740
:103120000BFF59E7D4F86C80DFF814A100274FF0AB
:103130000109236F9B685FFA87FB5B4582D308EB2D
:103140004B13D3F8002902F44022B2F5802F22D18C
:10315000D3F80029002A1EDAD3F8002942F0904261
:10316000C3F80029D3F80029002AFBDB5946E06E9A
:10317000FFF728FC228909FA0BF322EA03032381D3
:1031800004EB8B03DB689B6813B1594650469847A4
:103190005846FFF721FC0137CBE708EB4112D2F884
:1031A000003B03F44023B3F5802F10D1D2F8003B4D
:1031B000002B0CDA628909FA01F322EA0303638126
:1031C00004EB8103DB68DB680BB15046984701379D
:1031D00041E79C0708BF0A68072B98BF027003F1FC
:1031E00001039CBF120A013054E7023304EB83024F
:1031F00001F58051526890690268D0F808C04068B3
:10320000A2EB000E0022104697420AD104EB830481
:1032100063689B699A683A449A605A6817445F6089
:103220003BE712F0030F08BF0868964588BF8CF88B
:10323000000002F1010284BF000A0CF1010CE3E777
:10324000BC3A0220C36E03EB4111D1F8003B43F4BA
:103250000013C1F8003B7047C36E03EB4111D1F876
:10326000003943F40013C1F800397047C36E03EB13
:103270004111D1F8003B23F40013C1F8003B704723
:10328000C36E03EB4111D1F8003923F40013C1F8E8
:103290000039704730B5039C0172043304FB0325E9
:1032A000C361049B03630021059B00604060C16013
:1032B000426102618561046242628162C16243636C
:1032C00030BD00000022416A41610161C26082623A
:1032D000C2626FF00101FEF771BF0000036942692D
:1032E000934203D1C2680AB100207047181D70478D
:1032F00003691960C2680132C260C26913448269FD
:103300000361934224BF436A03610021FEF74ABF71
:1033100038B504460D46E3683BB16269131D126877
:10332000A3621344E362002038BD237A33B92946EF
:103330002046FEF727FF0028EDDA38BD6FF00100C8
:10334000FBE70000C368C269013BC36043691344E3
:1033500082694361934224BF436A436100238362CD
:10336000036B03B11847704770B52023044683F3FD
:103370001188866A3EB9FFF7CBFF054618B186F380
:103380001188284670BDA36AE26A13F8015BA36244
:10339000934202D32046FFF7D5FF002383F3118821
:1033A000EFE700002DE9F84F04460E469046994697
:1033B000202787F311880025AA46D4F828B0BBF14E
:1033C000000F09D149462046FFF7A2FF20B18BF339
:1033D00011882846BDE8F88FA16AE36AA8EB050BBF
:1033E0005B1A9B4528BF9B46BBF1400F1BD9334658
:1033F00001F1400251F8040B43F8040B9142F9D15A
:10340000A36A40334036A3624035A26AE36A9A4217
:1034100002D32046FFF796FF8AF311884545D8D29C
:1034200087F31188C9E730465A46FDF73FFDA36A86
:103430005B445E44A3625D44E7E7000010B5029C74
:103440000172043303FB0421C36100238362C3625E
:10345000039B0363049B00604060C460426102619F
:10346000816104624262436310BD0000026AC2606F
:10347000426A4261026100228262C2626FF001010F
:10348000FEF79CBE436902699A4203D1C2680AB141
:1034900000207047184650F8043B0B60704700004E
:1034A000C368C2690133C3604369134482694361DD
:1034B000934224BF436A43610021FEF773BE0000BC
:1034C00038B504460D46E3683BB123691A1DA26274
:1034D000E2691344E362002038BD237A33B92946F8
:1034E0002046FEF74FFE0028EDDA38BD6FF00100F0
:1034F000FBE7000003691960C268013AC260C26953
:10350000134482690361934224BF436A0361002329
:103510008362036B03B118477047000070B5202326
:1035200004460E4683F31188856A35B91146FFF7C4
:10353000C7FF10B185F3118870BDA36A1E70A36A1E
:10354000E26A01339342A36204D3E169204604395D
:10355000FFF7D0FF002080F3118870BD2DE9F84FF0
:1035600004460D4691469A464FF0200888F311888C
:103570000026B346A76A4FB951462046FFF7A0FF81
:1035800020B187F311883046BDE8F88FA06AE76A5A
:10359000A9EB06033F1A9F4228BF1F46402F1BD9A5
:1035A00005F1400355F8042B40F8042B9D42F9D156
:1035B000A36A4033A3624036A26AE36A9A4204D304
:1035C000E16920460439FFF795FF8BF311884E45DA
:1035D000D9D288F31188CDE729463A46FDF766FC33
:1035E000A36A3B443D44A3623E44E5E70269436964
:1035F0009A4203D1C3681BB9184670470023FBE702
:10360000836A002BF8D0043B9B1AF5D01360C36883
:10361000013BC360C3691A44836902619A4224BFB3
:10362000436A0361002383620123E5E700F042B9A6
:103630004FF08043002258631A610222DA6070471B
:103640004FF080430022DA60704700004FF0804363
:1036500058637047FEE7000010B5194CFEF798FC60
:10366000FEF7BAFD802217492046FEF73FFD0123F1
:1036700044F8180C0374144B144AD96821F4E0611F
:103680000904090C0A431249DA60CA6842F08072E0
:10369000CA60104A1049C2F8B01F116841F0010118
:1036A00011601022DA77202283F82220002383F38E
:1036B000118862B60948BDE81040FEF739BD00BF69
:1036C00048330220C43E000800ED00E00003FA0584
:1036D000F0ED00E0001000E055CEACC5CC3E000897
:1036E0002DE9F84F1F4C4FF00008656904F11407ED
:1036F000C1464FF08043266A5B6AAA689E1B9642C9
:103700001DD34FF0200AAA68236AD5F80CB01344E1
:1037100023622B68BB425F60A6EB02066361C5F8BB
:103720000C8001D1FFF78CFF89F311882869D847F5
:103730008AF311886569AB689E42E4D2D9E7626971
:10374000BA420CD0916823628E1B9660A86802284A
:103750002CBF1818981CBDE8F84FFFF777BFBDE8DD
:10376000F88F00BF20330220034B59685A68521A61
:103770009042FBD8704700BF001000E04B684360E8
:103780008B688360CB68C3600B6943614B690362DC
:103790008B6943620B6803607047000008B5274BD4
:1037A00027481A6940F2FF710A431A611A6922F424
:1037B000FF6222F007021A611A691A6B0A431A6340
:1037C0001A6D0A431A651F4A1B6D1146FFF7D6FF93
:1037D0001D4802F11C01FFF7D1FF1C4802F138011E
:1037E000FFF7CCFF1A4802F15401FFF7C7FF194851
:1037F00002F17001FFF7C2FF174802F18C01FFF7D9
:10380000BDFF164802F1A801FFF7B8FF144802F106
:10381000C401FFF7B3FF134802F1E001FFF7AEFF69
:10382000114802F1FC01FFF7A9FF104802F58C7165
:10383000FFF7A4FFBDE8084000F09EB80038024042
:1038400000000240EC3E0008000402400008024074
:10385000000C024000100240001402400018024018
:10386000001C0240002002400024024000280240C8
:1038700008B500F0F5F9FFF7EFFEFEF7D7FFBDE85A
:103880000840FEF7B3BD0000704700004FF08043D2
:1038900010B51A69920708D500241C61202383F310
:1038A0001188FFF71DFF84F31188BDE81040FEF773
:1038B000DFBF0000104B1A6C42F001021A641A6E4E
:1038C00042F001021A660D4A1B6E936843F0010331
:1038D00093604FF080436B229A624FF0FF32DA62BE
:1038E00000229A615A63DA605A6001225A61082103
:1038F0001A601C20FDF724BD00380240002004E0BF
:103900001B4B1A696FEA42526FEA52521A611A69E6
:10391000C2F30A021A614FF0FF301A695A695861FE
:1039200000215A6959615A691A6A62F080521A6212
:103930001A6A02F080521A621A6A5A6A58625A6AFD
:1039400059625A6A0B4A106840F480701060186F10
:1039500000F44070B0F5007F1EBF4FF48030186750
:103960001967536823F40073536000F059B900BF1E
:103970000038024000700040354B364A1A64364A1F
:103980004FF4404111601A6842F001021A601A684F
:103990009207FCD59A6822F003029A602C4B1946D4
:1039A0009A6812F00C02FBD1186800F0F900186058
:1039B0009A601A6842F480321A600B689B03FCD547
:1039C0004B6F43F001034B67214B5A6F9007FCD5B7
:1039D000224A5A601A6842F080721A601E4B1A46D8
:1039E00059684904FCD5196841F48031196053685D
:1039F000D803FCD5136843F400331360164A5368A8
:103A00009903FCD5124B1A689201FCD5144A9A60AE
:103A100040F20112C3F88C200022C3F89020114A12
:103A200040F2073111609A6842F002029A60084B36
:103A30009A6802F00C02082AFAD15A6C42F48042C9
:103A40005A645A6E42F480425A665B6E704700BFF9
:103A500000380240000400100070004008364009A1
:103A600000948838003C0240084A08B55369116840
:103A70000B4003F00103536123B1054A13680BB1F6
:103A800050689847BDE80840FEF7F2BE003C014090
:103A9000C8290220084A08B5536911680B4003F091
:103AA0000203536123B1054A93680BB1D06898476C
:103AB000BDE80840FEF7DCBE003C0140C8290220FA
:103AC000084A08B5536911680B4003F004035361B9
:103AD00023B1054A13690BB150699847BDE8084006
:103AE000FEF7C6BE003C0140C8290220084A08B5BE
:103AF000536911680B4003F00803536123B1054A71
:103B000093690BB1D0699847BDE80840FEF7B0BE95
:103B1000003C0140C8290220084A08B553691168D1
:103B20000B4003F01003536123B1054A136A0BB134
:103B3000506A9847BDE80840FEF79ABE003C014035
:103B4000C8290220174B10B55C691A68144004F4A8
:103B500078725A61A30604D5134A936A0BB1D06AEE
:103B60009847600604D5104A136B0BB1506B984709
:103B7000210604D50C4A936B0BB1D06B9847E20534
:103B800004D5094A136C0BB1506C9847A30504D5B2
:103B9000054A936C0BB1D06C9847BDE81040FEF716
:103BA00067BE00BF003C0140C82902201A4B10B577
:103BB0005C691A68144004F47C425A61620504D5B9
:103BC000164A136D0BB1506D9847230504D5134A5F
:103BD000936D0BB1D06D9847E00404D50F4A136E76
:103BE0000BB1506E9847A10404D50C4A936E0BB1EB
:103BF000D06E9847620404D5084A136F0BB1506F1A
:103C00009847230404D5054A936F0BB1D06F9847AA
:103C1000BDE81040FEF72CBE003C0140C829022040
:103C2000062108B50846FDF78BFB06210720FDF7A6
:103C300087FB06210820FDF783FB06210920FDF7FD
:103C40007FFB06210A20FDF77BFB06211720FDF7ED
:103C500077FB06212820BDE80840FDF771BB000076
:103C600008B5FFF74DFEFDF7FDF9FDF70FFDFDF778
:103C7000E5FEFDF7B9FDFFF707FEBDE80840FFF7D9
:103C8000D5BC0000034611F8012B03F8012B002AD4
:103C9000F9D17047121012131211000000104100E8
:103CA00001105A0060330220482A0220B42A022060
:103CB00053544D3332463F3F3F3F3F3F0053544DF7
:103CC000333246375B347C355D780053544D3332A4
:103CD00046375B367C375D780000000000960000B8
:103CE00000000000000000000000000000000000D4
:103CF00000000000000000005516000841160008F2
:103D00007D1600086916000875160008611600087F
:103D10004D1600083916000889160008000000003A
:103D2000611700084D17000889170008751700086B
:103D3000811700086D17000859170008451700087B
:103D4000E51700080000000001000000000000006E
:103D500002000000000000008D190008F51900089D
:103D600040004000F837022008380220020000001E
:103D7000000000000300000000000000391A0008E5
:103D800000000000100000001838022000000000B1
:103D90000100000000000000BC3A02200101020006
:103DA0004172647550696C6F740025424F415244F2
:103DB000252D424C002553455249414C2500000019
:103DC0008D230008F5220008F91800087123000867
:103DD00043000000D83D000809024300020100C072
:103DE000320904000001020201000524001001054F
:103DF00024010001042402020524060001070582B3
:103E0000030800FF09040100020A00000007050181
:103E1000024000000705810240000000120000007F
:103E2000243E0008120110010200004083044057A4
:103E300000020102030100000403090425424F416E
:103E4000524425005442532D436F6C696272692DB0
:103E50004637003031323334353637383941424312
:103E60004445460000800000008000000080000003
:103E700000800000000002000000040000000400B8
:103E80000000040000000400000004000000040022
:103E90000000040000000000911B0008711E0008D3
:103EA0001D1F000840004000343B0220343B02202C
:103EB00001000000443B022080000000400100009F
:103EC000050000006D61696E00000000E43E00081E
:103ED000503B0220483D02200100000055360008FA
:103EE0000000000069646C65000000000000802A8A
:103EF00000000000AAAAAAAA00000000FFFF00001C
:103F00000000000000A00A00000000000000000007
:103F1000AAAAAAAA00000000FFFF000000000000FB
:103F2000000000000050000000000000AAAAAAAA99
:103F300000000000FFFF0000000000000000000083
:103F40008029000000000000AAAAAAAA40150000CB
:103F5000FFFF00000070700700000000400002003A
:103F600000000000AAAAAAAA00000100F7FF0000B2
:103F70000000000008000000002000000000000019
:103F8000AAAAAAAA00100000FFFF00000000000873
:103F9000000000000040000000000000AAAAAAAA39
:103FA00000000000FFFF0000000000000000000013
:103FB0000000000000000000AAAAAAAA0000000059
:103FC000FFFF0000000000000000000000000000F3
:103FD00000000000AAAAAAAA00000000FFFF00003B
:103FE00000000000000000000000000000000000D1
:103FF00000000000000000000000000000000000C1
:1040000000000000000000000000000000000000B0
:1040100000000000000000000000000000000000A0
:10402000FF00000000000000B03C00083F0000005E
:1040300049040000BD3C00083F000000510400009E
:10404000CB3C00083F000000009600000000080084
:1040500004000000383E00080000000000000000DE
:104060000000000000000000000000000000000050
:00000001FF
